:1000000061C000000C94F7120C941E1383C0000012
:1000100081C000007FC000007DC000007BC00000E8
:1000200079C0000077C0000075C0000073C00000F8
:1000300071C000000C945B0F6DC000006BC000002D
:100040000C94451367C000000C9409160C943B16E1
:1000500061C000005FC000005DC000005BC0000028
:1000600059C0000057C00000000000080002010055
:100070000003040700000000000000000102040863
:100080001020408001020408102001020408102002
:10009000040404040404040402020202020203032E
:1000A00003030303000000002300260029000000D2
:1000B0000000250028002B0000000000240027007D
:1000C0002A00601611241FBECFEFD8E0DEBFCDBFDF
:1000D00011E0A0E0B1E0E0EDF1E302C005900D9287
:1000E000A839B107D9F727E0A8E9B1E001C01D920E
:1000F000A23BB207E1F710E0C2E6D0E004C02197CE
:10010000FE010E94DC18C136D107C9F70E94BE0F5C
:100110000C94E61875CF611102C00C944E14613036
:10012000E1F362E0FACF662319F061E00C948A14DF
:1001300060E0FCCFCF92DF92EF92FF92CF938823C3
:1001400051F16A017B01CFEFC80F20E030E0A90137
:10015000CB01B6010E947F1087FF11C0C701B60115
:1001600090580E94F0109B01AC016C2F70E090E061
:1001700080E0CF91FF90EF90DF90CF90B2C0C701A9
:10018000B6010E94EB108C2FCF91FF90EF90DF9083
:10019000CF900C94CA13CF91FF90EF90DF90CF9047
:1001A00008950F931F938B019C0183E0369527954B
:1001B000179507958A95D1F708561E4F462F477019
:1001C00021E030E0F90102C0EE0FFF1F4A95E2F78F
:1001D000AF01F80120812423CB010196211102C037
:1001E00090E080E01F910F9108950F931F938B0172
:1001F0009C0183E036952795179507958A95D1F749
:10020000677081E090E001C0880F6A95EAF7F80115
:10021000E856FE4F2081452B31F480958223808360
:100220001F910F910895822BFACF2F923F924F92F8
:100230005F926F927F928F929F92AF92BF92CF9276
:10024000DF92EF92FF920F931F93CF93DF93D62EFF
:10025000C72E782E692E49015A01280161E08D2DA3
:100260000E944E14CD2DDC2D8E010F5F1F4FA80173
:100270006D2D7C2D872D962DB8DF20E030E0A90173
:10028000C201B7010E946F12181664F4C201B701CF
:100290000E94F0102B01C501B4010E94F010A201D0
:1002A000CE0123D0C801DF91CF911F910F91FF9014
:1002B000EF90DF90CF90BF90AF909F908F907F9006
:1002C0006F905F904F903F902F900895882341F05A
:1002D0008150682F70E090E080E050E040E085CFF2
:1002E0000895862FB9010C94CA139C01FC01E859AA
:1002F000FF4FE491E33061F140F4E13011F1E2307D
:1003000021F160E0822F0C948A14E730C1F1E830CB
:1003100009F441C0E430A9F7809180008C7F8260AD
:100320008093800090918100907E9061692B609312
:100330008100509387004093860080918000806206
:100340001BC084B5806884BDDCCF84B58062FBCFE0
:10035000809180008C7F82608093800090918100EA
:10036000907E9061692B6093810050938700409349
:10037000860080918000806880938000C2CF809149
:10038000B00080688093B0008091B100887F682BB6
:100390006093B100B6CF8091B0008062F3CF089532
:1003A0004F925F926F927F928F929F92AF92BF9285
:1003B000CF92EF92FF920F931F93CF93DF93CDB71E
:1003C000DEB72B013A01F02E9C2DB40130E028302D
:1003D000310511F424E030E00AE010E0992351F0F7
:1003E00000E110E0913031F008E010E0923011F0BF
:1003F00002E010E08111D0C0F1101BC0269DA001C9
:10040000279D500D369D500D1124B2018DE992E0CB
:10041000DF91CF911F910F91FF90EF90CF90BF9000
:10042000AF909F908F907F906F905F904F900C94C3
:100430008D168DE992E00E94C916E11015C0640C7A
:10044000751C6414750409F4A7C0F20161912F01B1
:10045000F1E0A8018DE992E0FF1203C00E949B1712
:10046000F0CF0E94A117EDCF81E0E81215C0E1E0C6
:100470006E1A710808F490C0F201619171912F0118
:10048000F1E0A8018DE992E0FF1203C00E94B117CC
:10049000EECF0E94B617EBCF82E0E81217C0E1E082
:1004A0006E1A710808F478C0F2014191519161917E
:1004B00071912F01F1E098018DE992E0FF1203C0E4
:1004C0000E948F17ECCF0E94C617E9CF83E0E81295
:1004D00018C0640C751C4614570409F45DC0F20181
:1004E00061912F01062E000C770BF1E0A8018DE938
:1004F00092E0FF1203C00E946917EDCF0E946F17B0
:10050000EACF84E0E81215C0E1E06E1A710808F441
:1005100043C0F201619171912F01F1E0A8018DE9D1
:1005200092E0FF1203C00E946917EECF0E946F177E
:10053000EBCF85E0E81216C0E1E06E1A710860F1B9
:10054000F20141915191619171912F01F1E0980176
:100550008DE992E0FF1203C00E942417EDCF0E94A4
:100560007F17EACF86E0E81217C0B12CE1E06E1ADF
:10057000710890F0F20141915191619171912F01B7
:10058000F1E095018DE992E0FF1203C00E94A918E5
:10059000EDCF0E94AA18EACFDF91CF911F910F9162
:1005A000FF90EF90CF90BF90AF909F908F907F90F3
:1005B0006F905F904F9008952F923F924F925F926D
:1005C0006F927F928F929F92AF92BF92CF92DF9263
:1005D000EF92FF920F931F93CF93DF93CDB7DEB7C8
:1005E0002E970FB6F894DEBF0FBECDBF6D837E830E
:1005F0008F83988729013A0118018701DA86C98615
:10060000DBA0CCA0FDA02EA129838114910449F484
:10061000A114B10431F492010E946F1218160CF467
:1006200087C1A30192016D817E818F8198850E948F
:100630007F1018160CF07CC13801660C771C660C14
:10064000771C2101460C571C7501EE0CFF1CEE0CAB
:10065000FF1CF201EE0DFF1D80819181A281B3810B
:100660008B879C87AD87BE872D813E814F815885C2
:10067000BC01CD010E946F1287FD7AC0F101EE0D21
:10068000FF1DD080C180F28093819983AFA1A11119
:100690004FC101501109F50131960A151B0511F4DE
:1006A000F0E0E0E0EE0FFF1FEE0FFF1FD201AE0FF4
:1006B000BF1F8D909D90AD90BC90E20DF31D1081F9
:1006C000E18022800381A50194016B857C858D8565
:1006D0009E850E947F1081110FC0A50194016D813C
:1006E0007E818F8198850E946F1287FD21C1D12E56
:1006F000CE2CF22C09831CC12D813E814F8158855F
:10070000C501B4010E9407102B013C012B853C85DB
:100710004D855E85C501B4010E9407109B01AC01A7
:10072000C301B2010E9483104B015C01AC019B012B
:1007300060E070E080E89FE30E940710212F3E2DCB
:10074000422D502F0E9473122B013C012D2D3C2D68
:100750004F2D5981C501B4010E9473129B01AC0158
:10076000C301B2010E940810D62EC72EF82E91C0E8
:1007700088A5882389F0E985FA8580819181811493
:10078000910409F488C09401215031098816990612
:1007900011F4318320834901E985FA85C080D18035
:1007A000F601EE0FFF1FEE0FFF1FE40DF51D2D816B
:1007B0003E814F81588560817181828193810E9441
:1007C0007F1087FF74C001501109F601EE0FFF1F63
:1007D000EE0FFF1FE40DF51D2D813E814F815885E1
:1007E00060817181828193810E947F1087FD7EC02C
:1007F000A985BA85CD92DC928601000F111F000FEA
:10080000111FF201E00FF11F80809180A280B38060
:10081000BFA1BB2309F4B3C020E030E040E857E3B8
:10082000C501B4019F770E94731269837A838B8319
:100830009C8320E030E040E857E30E947F1087FF70
:1008400008C080E090E0A0E8B7E389839A83AB8397
:10085000BC8320E030E040E05FE369817A818B81F6
:100860009C810E9473129B01AC01C501B4010E94DE
:1008700007102D813E814F8158850E947F101816E8
:100880000CF44DC0F101E00FF11FD080C180F28067
:10089000938199834DC04801F1E08F1A9108892B0B
:1008A00009F07ACFA985BA858D929C9275CF78018F
:1008B000F1E0EF1AF1088701F601EE0FFF1FEE0FCE
:1008C000FF1FE40DF51D2D813E814F81588560810C
:1008D0007181828193810E946F1287FF15C0CE14AF
:1008E000DF04D4F48FEFC81AD80A82CF8C149D0489
:1008F00009F47ECFC016D10624F42FEFC21AD20A13
:1009000064CFD12CC12C61CF1C141D041CF48601B2
:10091000015011096801CFCFD12CC12C69CFCD284E
:1009200021F5F2013497D080C180F280A381A983A0
:100930006D2D7C2D8F2D99812E960FB6F894DEBFEC
:100940000FBECDBFDF91CF911F910F91FF90EF9020
:10095000DF90CF90BF90AF909F908F907F906F90DF
:100960005F904F903F902F900895020D131DF80156
:100970003497D080C180F280B381B983D9CFCD289C
:1009800009F053C0F3013497D201AE0FBF1F4D9051
:100990005D906D907C90E20DF31DD080C180F2805F
:1009A00023812983F101E00FF11F1081E180228072
:1009B0000381A5019401C301B2010E947F10882325
:1009C00009F48BCE2D813E814F815885C501B4013C
:1009D0000E9407106D837E838F839887A301920105
:1009E000C501B4010E9407109B01AC016D817E819D
:1009F0008F8198850E9483104B015C01AC019B01A3
:100A000060E070E080E89FE30E940710212F3E2DF8
:100A1000422D502F0E9473122B013C01A50194011D
:100A20006D2D7C2D8F2D998197CEC8010497F201F1
:100A3000E80FF91F4080518062807380F101E80F58
:100A4000F91FD080C180F28083818983ABCFCF92A0
:100A5000DF92EF92FF926B017C019F7720E030E004
:100A600040E859E50E947F1087FF2BC020E030E06E
:100A700040E05FE3C701B6010E946F1287FD0EC020
:100A800020E030E040E05FE3C701B6010E940810BB
:100A9000FF90EF90DF90CF900C94591120E030E060
:100AA00040E05FEBC701B6010E946F12181684F494
:100AB00020E030E0A901C701B6010E9473126B016A
:100AC0007C01C701B601FF90EF90DF90CF900895B1
:100AD00020E030E040E05FE3C701B6010E9407106C
:100AE000FF90EF90DF90CF900C946C108F929F92BC
:100AF000AF92BF92CF92DF92EF92FF92CF93DF93AC
:100B0000C0912B02D0912C02E6E8F7E0C080D180A2
:100B1000E280F380248135814681578160914801CC
:100B20007091490180914A0190914B010E9473128A
:100B30004B015C01209144013091450140914601F7
:100B400050914701C701B6010E9473129B01AC018D
:100B5000C501B4010E9408109B01AC01CC82DD826A
:100B6000EE82FF82609192077091930780919407C3
:100B7000909195070E940810688379838A839B83EC
:100B8000DF91CF91FF90EF90DF90CF90BF90AF902B
:100B90009F908F9008952F923F924F925F926F9205
:100BA0007F928F929F92AF92BF92CF92DF92EF92FD
:100BB000FF920F931F93CF93DF93CDB7DEB7A39729
:100BC0000FB6F894DEBF0FBECDBF80916C0290913E
:100BD0006D028130910509F0DCC060916002709176
:100BE000610280916202909163026F5F7F4F8F4F2D
:100BF0009F4F0E941C112091640230916502409128
:100C00006602509167020E9473126093AF01709365
:100C1000B0018093B1019093B201AA24A394B12CA6
:100C2000B6E5CB2EB1E0DB2EEE24E394F12C05E506
:100C300011E021E030E044E551E062E773E086E94D
:100C400097E00E94700E6091960770919707072EAB
:100C5000000C880B990B0E941E1120910401309109
:100C6000050140910601509107010E9473122091E5
:100C700008013091090140910A0150910B010E9435
:100C800083106B017C01C0928E07D0928F07E09297
:100C90009007F09291078090000190900101A09040
:100CA0000201B0900301A50194016091400370918D
:100CB000410380914203909143030E947F10811170
:100CC000A2C4C701B601C3DE6B017C01D7D6811176
:100CD000A3C4C701B6018FD681119EC420E030E0C5
:100CE00040E853E4C701B6010E9473116B017C0117
:100CF00020E030E0A9010E947F1087FF90C4C70167
:100D0000B60190580E94F010619569836091540378
:100D10007091550380915603909157030E94F010F3
:100D2000C62E60914C0370914D0380914E039091BB
:100D30004F030E94F010E62E609150037091510312
:100D400080915203909153030E94F010062F6091FE
:100D500048037091490380914A0390914B030E948C
:100D6000F010162F60914403709145038091460363
:100D7000909147030E94F010862F912C812CF2E075
:100D8000AF2E212F41E050E0BE016F5F7F4F08DBA7
:100D900015C0892B99F4E091DF01F091E0010190F9
:100DA000F081E02D80819181A281B381E0916F0279
:100DB000F091700280839183A283B383C0906F020D
:100DC000D0907002D6014D905D906D907C90A30103
:100DD000920160910C0170910D0180910E01909132
:100DE0000F010E946F1218160CF01DC460911001C3
:100DF00070911101809112019091130120918E0741
:100E000030918F0740919007509191070E940710F1
:100E1000609392077093930780939407909395073C
:100E20008090800790908107A0907E07B0907F0708
:100E3000E0908407F090850700917A0710917B0776
:100E400020911C0130911D0140911E0150911F0104
:100E5000F60160817181828193810E9407101F9247
:100E60001F92209123012F93209122012F932091F3
:100E700021012F93209120012F93E2E8CE2EE7E06D
:100E8000DE2E20E030E0A90197DB5B016C01E090F1
:100E90002401F090250100912601109127010F9067
:100EA0000F900F900F900F900F909B01AC01B70126
:100EB000C8010E947F1087FD12C0E0902801F090C9
:100EC000290100912A0110912B019501A601B7017A
:100ED000C8010E946F12181614F075018601209146
:100EE0002C0130912D0140912E0150912F01B7011D
:100EF000C8010E9473126B017C01AC019B016091DF
:100F000018017091190180911A0190911B010E94A2
:100F10007F10682F661F6627661F8DE004D96BE07F
:100F200070E080E090E03DD98C0190937103809354
:100F30007003E0916F02F091700220E030E040E237
:100F400051E460817181828193810E947F10E894D5
:100F5000F7F887FD03C0C12CD12C760180903001B9
:100F600090903101A0903201B0903301A701960119
:100F7000B401C5010E947F1087FD12C0809034012A
:100F800090903501A0903601B0903701A7019601ED
:100F9000B401C5010E946F12181614F046015701E2
:100FA00020E030E04FE753E4B401C5010E947F1018
:100FB00018160CF441C320E030E0A901B401C501CA
:100FC0000E946F1287FD3FC3A401B501C801B2D8CA
:100FD000A3019201609138017091390180913A0129
:100FE00090913B010E946F1218160CF031C3609172
:100FF0003C0170913D0180913E0190913F0127DDC0
:101000006B017C0120E030E040E853E40E947F1057
:1010100087FF29C320E030E0A901C701B6010E9483
:101020006F1287FD1EC3C701B6010E94F0106983CD
:10103000698188E078D880916C0290916D02019767
:1010400009F0C8C240904C0150904D0160904E0193
:1010500070904F018091860790918707A091880733
:10106000B09189078E839F83A887B98780915001AB
:1010700090915101A0915201B09153018A839B83B9
:10108000AC83BD8380918A0790918B07A0918C07D8
:10109000B0918D078A879B87AC87BD87AA24A394CC
:1010A000B12C36E5C32E31E0D32EEE24E394F12C9F
:1010B00005E511E021E030E044E551E062E773E04E
:1010C00086E997E039D6E0916F02F0917002408195
:1010D0005181628173810091800710918107809115
:1010E0008407909185079C0121503109021713074D
:1010F0000CF0BCC20F5F1F4F109381070093800755
:10110000E0917E07F0917F07D12CE017F10769F499
:10111000021713070CF0ADC298012F5F3F4F3093B9
:101120007F0720937E07DD24D394E0907A07F09028
:101130007B07FC01E00FF11FEE0FFF1FEE0FFF1FFB
:10114000EE0DFF1D40835183628373832E813F81A7
:1011500048855985C301B2010E94731220E030E036
:10116000A90156D74B015C01000F111F000F111F81
:10117000E00EF11E2A853B854C855D856A817B8169
:101180008C819D810E947312A501940141D7D701E2
:101190006D937D938D939C931397DD2029F081E0CF
:1011A0008093AC018093150200916C0210916D0246
:1011B0000130110509F00EC2809115028823B1F0AB
:1011C000E091A501F091A601118210821092150202
:1011D000E2DCE091A501F091A601118300838091EA
:1011E0006C0290916D02019709F0F4C1E091DF016A
:1011F000F091E0010190F081E02D80819181A28148
:10120000B3818A879B87AC87BD878091AF0190911E
:10121000B001A091B101B091B201888F998FAA8FCE
:10122000BB8FE091B301F091B401C080D180E28026
:10123000F380E091E301F091E40120803180E091BE
:10124000A701F091A8014080518062807380A48141
:10125000B581BF83AE83B681BE8787818A8BE091DB
:10126000A501F091A6011182108288E0F101D2015E
:1012700001900D928A95E1F7E091DD01F091DE0198
:101280007182608233DC20E030E040E05FE3C70140
:10129000B6010E9473124B015C01D3012D913D9167
:1012A0004D915C910E947312F20120813181428143
:1012B0005381AED6D1016D937D938D939C931397FB
:1012C000F3012481358146815781C501B4010E9413
:1012D0007312D20114962D913D914D915C91179707
:1012E00097D6F1016483758386839783E091DF014C
:1012F000F091E00100811181A50194016A857B854F
:101300008C859D8585D6D8016D937D938D939C9317
:101310001397E091DD01F091DE018E819F81918331
:10132000808339DCE3DB20E030E0A901C701B601AE
:101330000E9473124B015C0120E030E040E45FE367
:10134000C701B6010E9473126A837B838C839D83DD
:10135000AE81BF812D913D914D915C910E947312A0
:101360006C8B7D8B8E8B9F8BF30120813181428131
:101370005381C501B4010E9473129B01AC016C89B9
:101380007D898E899F8944D6D2012D913D914D91C1
:101390005C913ED6F1016083718382839383D30194
:1013A00014962D913D914D915C911797C501B40113
:1013B0000E9473124B015C01EE81FF812481358113
:1013C000468157816A817B818C819D810E94731245
:1013D0009B01AC01C501B4011BD6D20114962D911D
:1013E0003D914D915C91179713D6F10164837583FC
:1013F00086839783E091DF01F091E0010081118104
:101400002A813B814C815D816A857B858C859D85A8
:10141000FFD5D8016D937D938D939C931397E091A5
:10142000DD01F091DE01BE85B0838A898183B3DB63
:101430005DDB29E33EE843E65EE3C701B6010E94B7
:1014400073126C8B7D8B8E8B9F8B2BEA3AEA4AEA68
:101450005EE3C701B6010E9473126C8F7D8F8E8F81
:101460009F8F29E33EE843EE5EE3C701B6010E9489
:10147000731268A379A38AA39BA382017B866A86E1
:101480009E859A83AA89AB83F2013896FB8BEA8BFF
:10149000F80181919191A191B1918F018E879F87E0
:1014A000A88BB98BAA85BB856D917D918D919D91FE
:1014B000BB87AA87EE81FF81419051906190719026
:1014C000FF83EE83AA81BB81CD90DD90ED90FD90EE
:1014D000BB83AA832C893D894E895F890E94731240
:1014E0004B015C012C8D3D8D4E8D5F8DC301B20192
:1014F000FAD79B01AC01C501B4018AD54B015C014F
:1015000028A139A14AA15BA1C701B601ECD79B0173
:10151000AC01C501B4017CD52E853F854889598928
:1015200077D5F10161937193819391931F018A891A
:101530009B898017910709F0ABCFE091DF01F09113
:10154000E0010190F081E02D888D998DAA8DBB8DF1
:1015500080839183A283B383E091A501F091A601DA
:1015600081E090E09183808380916002909161029C
:10157000A0916202B09163020196A11DB11D8093FA
:10158000600290936102A0936202B0936302809123
:10159000AF019091B001A091B101B091B201E09181
:1015A0006F02F091700280839183A283B383809154
:1015B000680290916902A0916A02B0916B02019653
:1015C000A11DB11D8093680290936902A0936A02E5
:1015D000B0936B02A3960FB6F894DEBF0FBECDBFDB
:1015E000DF91CF911F910F91FF90EF90DF90CF90FF
:1015F000BF90AF909F908F907F906F905F904F9033
:101600003F902F9008958092400390924103A092C2
:101610004203B092430355CBC12CD12C7601C701B4
:10162000B601DED572CB60911401709115018091E5
:10163000160190911701E2CB812C912C5FE7A52E2A
:1016400063E4B62EC1CC812C912CA12CB12CBCCC46
:10165000609140017091410180914201909143015C
:10166000CECC1982E5CC8FEF8983E2CC10E000E08C
:1016700043CD30E020E053CD8F929F92AF92BF9246
:10168000DF92EF92FF920F931F93CF93DF9384E04B
:1016900090E07AD1E1EAF1E0ACE6B2E0B583A48370
:1016A0008FE692E097AF86AF04E612E0138B028BD1
:1016B0002BE232E035AF24AF45E252E05093E40133
:1016C0004093E3012AE532E03093E2012093E10107
:1016D0002CE532E03093E6012093E50127E232E089
:1016E0003093E8012093E70129E232E03093EA01E8
:1016F0002093E901F0930A02E0930902F383E28365
:1017000021E030E02D933C9322E532E062E372E089
:10171000D9016D937C936AE372E0709355026093F4
:10172000540262E472E070935702609356026AE4D6
:1017300072E07093590260935802A6E8B7E0EA019C
:10174000B983A88337832683109220022BE531E0EA
:101750003187208721E732E0FC01318320834AE092
:1017600057ED63E27CE3E801488359836A837B8316
:10177000CAE3D3E010927F0710927E071092810790
:1017800010928007109283071092820780E890E001
:1017900090938507809384078AE793E000E011E047
:1017A000F80140A151A162A173A1FC0140835183C2
:1017B00062837383F9014081518162817381409317
:1017C0007A0550937B0560937C0570937D0590931B
:1017D0007B0780937A0718AE19AE1AAE1BAE1D9226
:1017E0001D921D921C92139714961D921D921D928C
:1017F0001C9217971882F80180819181A281B38190
:101800008E839F83A887B987812C912C5401839460
:1018100089829A82AB82BC821A861B861C861D86B0
:1018200080E090E0A0E8BFE38E879F87A88BB98B0C
:101830001A8A1B8A1C8A1D8A1E8A1F8A188E198E74
:101840001A8E1B8E1C8E1D8E80E00E94CF01DD241F
:10185000D394DD8218A289A29AA2ABA2BCA261E0B5
:101860008DE00E948B00DDA218AA1DAA89AA9AAA5F
:10187000ABAABCAAE12CF12C8701A80197016BE06F
:1018800070E080E090E00E9415019FAB8EABDDAA76
:1018900018A689A69AA6ABA6BCA661E088E00E941D
:1018A0008B00DDA6DF91CF911F910F91FF90EF90FC
:1018B000DF90BF90AF909F908F90089580913A03F2
:1018C000811103C081E080933A0380915A03811112
:1018D00003C081E080935A0380916A0381112EC076
:1018E00081E080936A0380916B0390916C03A091D7
:1018F0006D03B0916E030197A105B105F9F48091D4
:101900006F038823D9F06BE070E080E090E00E94E4
:10191000D100909371038093700340E050E0BA01CE
:101920000E949A006BE070E080E090E00E94D1009D
:1019300090937103809370030E946601809162030B
:10194000811103C081E080936203089560E070E03C
:1019500080E89FE7089560E070E080E89FE70895E1
:1019600060E070E080E89FEF089560E070E080E85C
:101970009FEF089560E070E080EC9FEF089560E0D5
:1019800070E080EC9FEF0895F5DF6093A4077093FB
:10199000A5078093A6079093A707F1DF60939807A8
:1019A0007093990780939A0790939B07CFDF60937A
:1019B000A0077093A1078093A2079093A307CBDFA2
:1019C00060939C0770939D0780939E0790939F0759
:1019D000C7DF6093A8077093A9078093AA07909325
:1019E000AB07C3DF6093AC077093AD078093AE077E
:1019F0009093AF070895CF92DF92EF92FF92CF932B
:101A00006B017C01AC019B016091A0077091A10763
:101A10008091A2079091A30772D3C1E0882369F057
:101A2000A70196016091A8077091A9078091AA0764
:101A30009091AB0764D38111C0E08C2FCF91FF90C0
:101A4000EF90DF90CF9008950F931F938B019C012F
:101A50000027112720783F770115110520483F47BF
:101A600049F4AB01BC016F77772781E0452B462B0A
:101A7000472B09F480E01F910F910895E5CF02975D
:101A80008431910540F48E599E4FFC018081082ECF
:101A9000000C990B08958FEF9FEF0895CF93DF937C
:101AA000EC0170E060E06C177D071CF0DF91CF91D6
:101AB0000895072E000C880B990BC0D320E030E06E
:101AC000A901A6D220E030E0A901A2D220E030E0B6
:101AD00040E450E49DD220E030E040E450E497D26E
:101AE0007AD36F5F7F4FDFCFCF93DF9380917B02FD
:101AF00090917C023CD7EC0180917F029091800212
:101B0000CDDF8091790290917A0231D7019771F4FB
:101B100080917D0290917E02CD2B71F4019690937D
:101B20007E0280937D02DF91CF91089580917D02A6
:101B300090917E02219791F30197F1CFCF93DF939C
:101B40008091790290917A0212D7EC0180917F0204
:101B500090918002A3DF80917B0290917C0207D755
:101B6000019771F480917D0290917E02219771F42A
:101B7000019690937E0280937D02DF91CF9108952C
:101B800080917D0290917E02CD2B91F30197F1CF50
:101B9000CF93DF938091830290918402E8D6EC0189
:101BA000809187029091880279DF809181029091E3
:101BB0008202DDD6019771F48091850290918602B0
:101BC000CD2B71F401969093860280938502DF916C
:101BD000CF9108958091850290918602219791F38B
:101BE0000197F1CFCF93DF93809181029091820290
:101BF000BED6EC0180918702909188024FDF8091E0
:101C0000830290918402B3D6019771F4809185028A
:101C100090918602219771F40196909386028093A9
:101C20008502DF91CF91089580918502909186027F
:101C3000CD2B91F30197F1CFCF93DF9380918B025E
:101C400090918C0294D6EC0180918F029091900239
:101C500025DF8091890290918A0289D6019771F4DB
:101C600080918D0290918E02CD2B71F4019690930C
:101C70008E0280938D02DF91CF91089580918D0225
:101C800090918E02219791F30197F1CFCF93DF933B
:101C90008091890290918A026AD6EC0180918F022C
:101CA00090919002FBDE80918B0290918C025FD626
:101CB000019771F480918D0290918E02219771F4B9
:101CC000019690938E0280938D02DF91CF910895BB
:101CD00080918D0290918E02CD2B91F30197F1CFDF
:101CE0000F931F93CF93DF938C01EA0120E030E044
:101CF00040E85FE3FB016081718182819381FFD1C4
:101D0000811115C0E88188E0E89FF0011124E758AF
:101D1000FD4F84819581F80191838083E88188E07B
:101D2000E89FF0011124E758FD4F15821482DF91DE
:101D3000CF911F910F910895CF92DF92EF92FF9272
:101D40000F931F93CF93DF937B01EA0120E030E0F4
:101D500040E85FE3DB016D917D918D919C91CFD146
:101D6000882309F454C0E881D8018C9190E0B8E050
:101D7000EB9FF0011124E758FD4F91838083E881A8
:101D8000D6018C9190E0B8E0EB9FF0011124E75868
:101D9000FD4F93838283E88128E0E29FF0011124C4
:101DA000E758FD4F8081918160E078D5E88188E037
:101DB000E89FF0011124E758FD4F8281938160E094
:101DC0006DD5E881A8E0EA9FF0011124E758FD4FA6
:101DD0008081918161E09ED5E881B8E0EB9FF001C0
:101DE0001124E758FD4F8281938161E093D588816A
:101DF000813059F1A8F0823009F43BC080E090E0D6
:101E0000A0E8BFE3F70180839183A283B383DF91CE
:101E1000CF911F910F91FF90EF90DF90CF90089599
:101E20008091790290917A022ADE41E050E064E7E5
:101E30007DE0BDD380917B0290917C0220DE41E069
:101E400050E06EE97DE0B3D3D9CF809181029091CB
:101E5000820215DE41E050E068EC7DE0A8D380917D
:101E60008302909184020BDE41E050E062EF7DE05E
:101E7000EACF8091890290918A0201DE41E050E030
:101E80006CE17EE094D380918B0290918C02F7DD1F
:101E900041E050E066E47EE0D6CF40E052EC61E005
:101EA00070E090E080E000C0892B21F426E08DE90D
:101EB00092E04FC608951F920F920FB60F92112411
:101EC0002F933F934F935F936F937F938F939F9342
:101ED000AF93BF93EF93FF938FE89DEF90938500AF
:101EE0008093840032D0FF91EF91BF91AF919F9189
:101EF0008F917F916F915F914F913F912F910F90B3
:101F00000FBE0F901F9018958FE89DEF909385005E
:101F100080938400AFE6B0E08C918E7F8C93E0E8F4
:101F2000F0E080818C7F8083E1E8F0E08081877E33
:101F3000808380818460808380818C7F80838C918A
:101F400081608C93089581E008958091910291E0E1
:101F5000980F90939102882349F021E030E030936C
:101F600093022093920280939102089578940E94A4
:101F7000CB05F894809191028150F5CF0F931F9378
:101F8000CF93DF931092B1071092B007C8D385DFCB
:101F9000C0916001D0916101198218826DDBF894C3
:101FA000B3DF88819981892B31F481E0FE01E3530D
:101FB000FF4F9081911180E08093B00778947894DE
:101FC0008E0103531F4F8091B007811109C076DC49
:101FD000F89490E080E0DF91CF911F910F910895E8
:101FE00088819981892B89F481E0F8019081911190
:101FF00001C080E08093B1079091B10781E0911119
:1020000080E08093B0079FDFDECF81E0F3CF5058B0
:10201000BB27AA270ED012C203D230F008D220F07C
:1020200031F49F3F11F41EF4F8C10EF4E095E7FB84
:10203000C5C1E92F14D280F3BA176207730784076A
:10204000950718F071F49EF543C20EF4E0950B2E3F
:10205000BA2FA02D0B01B90190010C01CA01A001FA
:102060001124FF27591B99F0593F50F4503E68F155
:102070001A16F040A22F232F342F4427585FF3CF96
:10208000469537952795A795F0405395C9F77EF467
:102090001F16BA0B620B730B840BBAF09150A1F0B0
:1020A000FF0FBB1F661F771F881FC2F70EC0BA0F36
:1020B000621F731F841F48F4879577956795B795BE
:1020C000F7959E3F08F0B3CF9395880F08F09927B6
:1020D000EE0F979587950895E4D180F09F3740F4EF
:1020E00091110EF4F6C160E070E080E89FE308957E
:1020F00026F01B16611D711D811D66C180C13AD17C
:1021000008F481E008950CD099C191D140F088D1B4
:1021100030F021F45F3F19F051C15111DAC17DC196
:102120009ED198F39923C9F35523B1F3951B550B11
:10213000BB27AA2762177307840738F09F5F5F4F9A
:10214000220F331F441FAA1FA9F333D00E2E3AF0DB
:10215000E0E830D091505040E695001CCAF729D0F5
:10216000FE2F27D0660F771F881FBB1F2617370744
:102170004807AB07B0E809F0BB0B802DBF01FF2774
:1021800093585F4F2AF09E3F510568F017C1A1C1D7
:102190005F3FECF3983EDCF3869577956795B795AE
:1021A000F7959F5FC9F7880F911D9695879597F9C9
:1021B0000895E1E0660F771F881FBB1F6217730742
:1021C0008407BA0720F0621B730B840BBA0BEE1F57
:1021D00088F7E095089504D06894B1117AC1089504
:1021E00046D188F09F5790F0B92F9927B751A0F0AA
:1021F000D1F0660F771F881F991F1AF0BA95C9F79B
:1022000012C0B13081F064D1B1E0089561C1672F8F
:10221000782F8827B85F39F0B93FCCF3869577954A
:102220006795B395D9F73EF4909580957095619533
:102230007F4F8F4F9F4F0895E89409C097FB3EF45E
:1022400090958095709561957F4F8F4F9F4F992303
:10225000A9F0F92F96E9BB279395F6958795779581
:102260006795B795F111F8CFFAF4BB0F11F460FF41
:102270001BC06F5F7F4F8F4F9F4F16C0882311F099
:1022800096E911C0772321F09EE8872F762F05C0AD
:10229000662371F096E8862F70E060E02AF09A9548
:1022A000660F771F881FDAF7880F9695879597F93D
:1022B0000895F7D080F09F3740F491110EF009C1D6
:1022C00060E070E080E89FEB089526F41B16611D26
:1022D000711D811D79C093C0A3D018F011F0A7D053
:1022E00038F49BC0F6C0E92FBAD0B0F35523C9F338
:1022F000E7FB6217730784079507A8F199F3E92FA5
:10230000FF2788232AF03197660F771F881FDAF797
:10231000952F5527442332F091505040220F331F00
:10232000441FD2F7BB27E91BF50B621B730B840B11
:10233000B109C1F222F4620F731F841FB11D3197DE
:102340002AF0660F771F881FBB1FEFCF91505040B8
:102350005AF041F0882332F0660F771F881F9150A2
:102360005040C1F793954BC08695779567959F5FD1
:10237000D9F7F8CF990F0008550FAA0BE0E8FEEF48
:1023800016161706E807F907C0F012161306E40739
:10239000F50798F0621B730B840B950B39F40A2632
:1023A00061F0232B242B252B21F408950A2609F410
:1023B000A140A6958FEF811D811D089597F99F6714
:1023C00080E870E060E00895882371F4772321F0BD
:1023D0009850872B762F07C0662311F499270DC0DC
:1023E0009051862B70E060E02AF09A95660F771F77
:1023F000881FDAF7880F9695879597F908959F3F7C
:1024000031F0915020F4879577956795B795880FAF
:10241000911D9695879597F908959FEF80EC089503
:1024200000240A94161617061806090608950024B3
:102430000A9412161306140605060895092E03942D
:10244000000C11F4882352F0BB0F40F4BF2B11F4A1
:1024500060FF04C06F5F7F4F8F4F9F4F089557FD00
:102460009058440F551F59F05F3F71F04795880F02
:1024700097FB991F61F09F3F79F087950895121699
:1024800013061406551FF2CF4695F1DF08C0161645
:1024900017061806991FF1CF8695710561050894F6
:1024A0000895E5DFA0F0BEE7B91788F4BB279F3891
:1024B00060F41616B11D672F782F8827985FF7CF25
:1024C000869577956795B11D93959639C8F30895CC
:1024D000E894BB2766277727CB0197F908954ADF51
:1024E00008F48FEF08950BD0A9CF9ADF28F09FDF73
:1024F00018F0952309F062CF90CF1124EACFAFDF17
:10250000A0F3959FD1F3950F50E0551F629FF00106
:10251000729FBB27F00DB11D639FAA27F00DB11D5F
:10252000AA1F649F6627B00DA11D661F829F2227E8
:10253000B00DA11D621F739FB00DA11D621F839F6F
:10254000A00D611D221F749F3327A00D611D231F45
:10255000849F600D211D822F762F6A2F11249F5793
:1025600050408AF0E1F088234AF0EE0FFF1FBB1FB6
:10257000661F771F881F91505040A9F79E3F510555
:1025800070F01CCFA6CF5F3FECF3983EDCF386954E
:1025900077956795B795F795E7959F5FC1F7FE2B00
:1025A000880F911D9695879597F908950895823023
:1025B000E8F4E82FF0E0EE0FFF1FE95AFE4F7183B9
:1025C0006083813041F0809169008C7F482B40937B
:1025D0006900E89A089580916900837F440F551F30
:1025E000440F551F482B40936900E99A08951F92A4
:1025F0000F920FB60F9211242F933F934F935F9337
:102600006F937F938F939F93AF93BF93EF93FF93BA
:10261000E0915701F09158010995FF91EF91BF9119
:10262000AF919F918F917F916F915F914F913F916A
:102630002F910F900FBE0F901F9018951F920F9221
:102640000FB60F9211242F933F934F935F936F9385
:102650007F938F939F93AF93BF93EF93FF93E091FB
:102660005901F0915A010995FF91EF91BF91AF91F6
:102670009F918F917F916F915F914F913F912F919A
:102680000F900FBE0F901F9018951F920F920FB6CC
:102690000F9211242F933F938F939F93AF93BF93E8
:1026A0008091950290919602A0919702B091980224
:1026B0003091940223E0230F2D3758F50196A11D88
:1026C000B11D209394028093950290939602A0935B
:1026D0009702B09398028091990290919A02A091EA
:1026E0009B02B0919C020196A11DB11D809399029D
:1026F00090939A02A0939B02B0939C02BF91AF91DA
:102700009F918F913F912F910F900FBE0F901F902F
:10271000189526E8230F0296A11DB11DD2CF7894FB
:1027200084B5826084BD84B5816084BD85B58260D6
:1027300085BD85B5816085BDEEE6F0E08081816074
:102740008083E1E8F0E01082808182608083808174
:1027500081608083E0E8F0E0808181608083E1EB4C
:10276000F0E0808184608083E0EBF0E08081816034
:102770008083EAE7F0E080818460808380818260EA
:1027800080838081816080838081806880831092D3
:10279000C10008951F93CF93DF93182FEB0161E0E1
:1027A0007DD0209731F460E0812FDF91CF911F9190
:1027B000B1C0CF3FD10511F461E0F6CFE12FF0E0D9
:1027C000E859FF4FE491E33031F140F4E130B1F0EA
:1027D000E230E1F0C038D1057CF7E5CFE73029F1F0
:1027E000E83059F1E430B1F7809180008062809345
:1027F0008000D0938B00C0938A0004C084B58068A9
:1028000084BDC7BDDF91CF911F91089584B58062CB
:1028100084BDC8BDF7CF8091800080688093800020
:10282000D0938900C0938800EDCF8091B00080687C
:102830008093B000C093B300E5CF8091B000806278
:102840008093B000C093B400DDCF833081F028F4D2
:10285000813099F08230A9F008958730A9F088304E
:10286000C9F08430B1F4809180008F7D03C08091E5
:1028700080008F7780938000089584B58F7784BD22
:10288000089584B58F7DFBCF8091B0008F778093C2
:10289000B00008958091B0008F7DF9CFCF93DF9382
:1028A00090E0FC01E458FF4F249180579F4FFC01BA
:1028B00084918823C9F090E0880F991FFC01E854A7
:1028C000FF4FA591B491FC01E255FF4FC591D49102
:1028D00061110DC09FB7F8948C91209582238C9341
:1028E0008881282328839FBFDF91CF91089562308C
:1028F00051F49FB7F8943C91822F809583238C9359
:10290000E8812E2BEFCF8FB7F894EC912E2B2C93E0
:102910008FBFEACF1F93CF93DF93282F30E0F901C9
:10292000E859FF4F8491F901E458FF4FD491F90120
:10293000E057FF4FC491CC23A1F0162F811185DF02
:10294000EC2FF0E0EE0FFF1FE255FF4FA591B49181
:102950008FB7F894EC91111108C0D095DE23DC9369
:102960008FBFDF91CF911F910895DE2BF8CFCF93CA
:10297000DF93282F30E0F901E859FF4F8491F901E6
:10298000E458FF4FD491F901E057FF4FC491CC2395
:1029900099F081115ADFEC2FF0E0EE0FFF1FEC559C
:1029A000FF4FA591B491EC91ED2381E090E009F403
:1029B00080E0DF91CF91089580E090E0FACFFC01B4
:1029C000918D228D892F90E0805C9F4F821B910911
:1029D0008F7399270895FC01918D828D981731F09E
:1029E000828DE80FF11D858D90E008958FEF9FEFA8
:1029F0000895FC01918D828D981761F0A28DAE0F24
:102A0000BF2FB11D5D968C91928D9F5F9F73928FAA
:102A100090E008958FEF9FEF0895FC01538D448D52
:102A2000252F30E0842F90E0821B930B541710F079
:102A3000CF96089501970895FC01A48DA80FB92F92
:102A4000B11DA35ABF4F2C91848D90E001968F73D6
:102A50009927848FA689B7892C93A089B1898C91F5
:102A6000837080648C93938D848D981306C0028844
:102A7000F389E02D80818F7D80830895CF93DF934C
:102A8000EC01888D8823B1F0AA89BB89E889F9898E
:102A90008C9185FD03C0808186FD0CC00FB607FCBC
:102AA000F7CF8C9185FFF2CF808185FFEDCFCE01EE
:102AB000C3DFEACFDF91CF910895EF92FF920F939A
:102AC0001F93CF93DF93EC0181E0888F9B8D8C8DDA
:102AD00098131AC0E889F989808185FF15C09FB7CE
:102AE000F894EE89FF896083E889F9898081837091
:102AF000806480839FBF81E090E0DF91CF911F9140
:102B00000F91FF90EF900895F62E0B8D10E00F5F60
:102B10001F4F0F731127E02E8C8D8E110BC00FB637
:102B200007FCFACFE889F989808185FFF5CFCE01CE
:102B300083DFF2CFEB8DEC0FFD2FF11DE35AFF4F3A
:102B4000F0829FB7F8940B8FEA89FB8980818062BD
:102B5000D0CFCF92DF92EF92FF921F93CF93DF936C
:102B6000EC016A017B01122FE889F98982E08083F8
:102B7000C11481EED806E104F10499F060E079E037
:102B80008DE390E0A7019601F5D22150310941096A
:102B900051095695479537952795211580E13807B6
:102BA00090F0E889F989108260E874E88EE190E09D
:102BB000A7019601DFD221503109410951095695EB
:102BC000479537952795EC85FD853083EE85FF8504
:102BD0002083188EEC89FD891083EA89FB89808126
:102BE00080618083EA89FB89808188608083EA89AB
:102BF000FB89808180688083EA89FB8980818F7D61
:102C00008083DF91CF911F91FF90EF90DF90CF9065
:102C100008951F920F920FB60F9211242F938F9346
:102C20009F93EF93FF93E091AD02F091AE0280810C
:102C3000E091B302F091B40282FD1BC090818091BB
:102C4000B6028F5F8F732091B702821741F0E09137
:102C5000B602F0E0E356FD4F958F8093B602FF91E8
:102C6000EF919F918F912F910F900FBE0F901F901A
:102C700018958081F4CF1F920F920FB60F921124F6
:102C80002F933F934F935F936F937F938F939F9374
:102C9000AF93BF93EF93FF938DE992E0CDDEFF9169
:102CA000EF91BF91AF919F918F917F916F915F91C4
:102CB0004F913F912F910F900FBE0F901F9018953D
:102CC000EDE9F2E01382128288EE93E0A0E0B0E03A
:102CD00084839583A683B7838AE791E09183808379
:102CE00085EC90E09587848784EC90E097878687D1
:102CF00080EC90E0918B808B81EC90E0938B828BC9
:102D000082EC90E0958B848B86EC90E0978B868BA1
:102D1000118E128E138E148E0895AF92BF92CF92A1
:102D2000DF92EF92FF920F931F93CF93DF936C018B
:102D30007B018B01040F151FEB015E01AE18BF086C
:102D4000C017D10759F06991D601ED91FC9101901E
:102D5000F081E02DC6010995892B79F7C501DF9136
:102D6000CF911F910F91FF90EF90DF90CF90BF9088
:102D7000AF900895FB0101900020E9F73197AF0172
:102D8000461B570BDC01ED91FC910280F381E02D95
:102D900009946115710509F0EDCF90E080E0089588
:102DA000DC01ED91FC910190F081E02D099468E83F
:102DB00071E0E0CF8F929F92AF92BF92EF92FF921D
:102DC0000F931F93CF93DF93CDB7DEB7A1970FB6C5
:102DD000F894DEBF0FBECDBF7C01FA01CB0119A272
:102DE000223008F42AE08E010F5D1F4F822E912CB5
:102DF000B12CA12CBF01A5019401BCD1F901CA01DC
:102E00006A3004F5605DD8016E938D01232B242B6D
:102E1000252B81F790E080E0109719F0BD01C701E4
:102E2000A9DFA1960FB6F894DEBF0FBECDBFDF912C
:102E3000CF911F910F91FF90EF90BF90AF909F9017
:102E40008F900895695CDFCFCF92DF92EF92FF926F
:102E50000F931F93CF93DF932115310581F4DC018C
:102E6000ED91FC910190F081E02D642FDF91CF91E5
:102E70001F910F91FF90EF90DF90CF9009942A302F
:102E80003105F1F42AE077FF1BC06A017B01EC01F8
:102E90006DE286DF8C0144275527BA014C195D0984
:102EA0006E097F092AE0CE0185DF800F911FDF9137
:102EB000CF911F910F91FF90EF90DF90CF900895E9
:102EC000DF91CF911F910F91FF90EF90DF90CF9006
:102ED00071CF9A01AB01770F660B770BB5CF0F93CC
:102EE0001F93CF93DF93EC01F4DF8C01CE015FDF02
:102EF000800F911FDF91CF911F910F9108950F9334
:102F00001F93CF93DF93EC019FDF8C01CE014FDF46
:102F1000800F911FDF91CF911F910F91089521157F
:102F2000310541F4DC01ED91FC910190F081E02D3F
:102F3000642F09943FCF9A01462F50E070E060E083
:102F4000EECF0F931F93CF93DF93EC01F4DF8C014F
:102F5000CE012DDF800F911FDF91CF911F910F9137
:102F600008959A01AB0170E060E0D9CF0F931F93F1
:102F7000CF93DF93EC01F5DF8C01CE0118DF800FDA
:102F8000911FDF91CF911F910F9108950F931F9380
:102F9000CF93DF93EC01C3DF8C01CE0108DF800FFC
:102FA000911FDF91CF911F910F9108952F923F9222
:102FB0004F925F926F927F928F929F92AF92BF9249
:102FC000CF92DF92EF92FF921F93CF93DF93EC01AA
:102FD0006A017B01722EAB019601CB01B601F2D0E2
:102FE0006BE871E0811123C046015701E894B7F8FE
:102FF0002FEF3FEF4FE75FE7C501B401E3D0811149
:103000000BC02FEF3FEF4FE75FE7C501B40177D863
:103010006FE871E018165CF02FEF3FEF4FE75FE4C9
:10302000C701B6015CDA1816ACF463E971E0CE01B1
:10303000DF91CF911F91FF90EF90DF90CF90BF90E5
:10304000AF909F908F907F906F905F904F903F9048
:103050002F9090CE2FEF3FEF4FE75FECC701B60107
:103060004ED887FDE2CF20E030E0A901C701B601CC
:1030700046D8312C212C87FF08C06DE2CE0190DEAE
:103080001C01F7FAF094F7F8F09410E060E070E0BB
:1030900080E09FE3711639F020E030E040E251E437
:1030A00032D81F5FF7CFA70196010E9408102B01AD
:1030B0003C0196D84B015C012AE0BC01A401CE0181
:1030C00079DE7C01E20CF31C112381F1C501B4010E
:1030D000B3D89B01AC01C301B2010E9407104B01A0
:1030E0005C016EE2CE015CDEE80EF91E1150F0F0DC
:1030F00020E030E040E251E4C501B401F4D92B01F5
:103100003C016ED84B014AE050E0CE012ADFE80EC8
:10311000F91EB40190E080E08FD89B01AC01C3019F
:10312000B2010E9407104B015C01E0CFC701DF91A3
:10313000CF911F91FF90EF90DF90CF90BF90AF9015
:103140009F908F907F906F905F904F903F902F90C7
:1031500008952CCF0F931F93CF93DF93EC0126DFBD
:103160008C01CE0124DE800F911FDF91CF911F9142
:103170000F910895A1E21A2EAA1BBB1BFD010DC0E1
:10318000AA1FBB1FEE1FFF1FA217B307E407F50717
:1031900020F0A21BB30BE40BF50B661F771F881FF3
:1031A000991F1A9469F760957095809590959B0189
:1031B000AC01BD01CF010895EE0FFF1F0590F49102
:1031C000E02D0994D7D8880B990B0895F894FFCF78
:1031D000000000000080BB450000484500000000E2
:1031E0000000000000002042000000008FC2753C7B
:1031F0000000000000004041000040C10000AA4162
:1032000000007F43000000000000000000000000FC
:1032100000000000713D96C100000080BA490C3EDC
:10322000E17A3041000203D612D6126F6465330092
:10323000A1010001FFFFFFFFFFFFFFFFFFFFFFFFF7
:10324000FFFF05040302000000005D158D160D153B
:103250003E15DF14F914EB140D0A006E616E00695F
:083260006E66006F7666000047
:00000001FF
