:1000000061C000000C94B40F0C94DB0F83C000009F
:1000100081C000007FC000007DC000007BC00000E8
:1000200079C0000077C0000075C0000073C00000F8
:1000300071C000000C94180C6DC000006BC0000073
:100040000C94021067C000000C94C6120C94F812B5
:1000500061C000005FC000005DC000005BC0000028
:1000600059C0000057C00000000000080002010055
:100070000003040700000000000000000102040863
:100080001020408001020408102001020408102002
:10009000040404040404040402020202020203032E
:1000A00003030303000000002300260029000000D2
:1000B0000000250028002B0000000000240027007D
:1000C0002A001D1311241FBECFEFD8E0DEBFCDBF25
:1000D00011E0A0E0B1E0EAE4FBE202C005900D927D
:1000E000A439B107D9F723E0A4E9B1E001C01D921A
:1000F000AE39B207E1F710E0C2E6D0E004C02197C4
:10010000FE010E949915C136D107C9F70E947B0CE8
:100110000C94A31575CF611102C00C940B116130C2
:10012000E1F362E0FACF662319F061E00C94471125
:1001300060E0FCCFCF92DF92EF92FF92CF938823C3
:1001400051F16A017B01CFEFC80F20E030E0A90137
:10015000CB01B6010E943C0D87FF11C0C701B6015B
:1001600090580E94AD0D9B01AC016C2F70E090E0A7
:1001700080E0CF91FF90EF90DF90CF90B2C0C701A9
:10018000B6010E94A80D8C2FCF91FF90EF90DF90C9
:10019000CF900C948710CF91FF90EF90DF90CF908D
:1001A00008950F931F938B019C0183E0369527954B
:1001B000179507958A95D1F70C561E4F462F477015
:1001C00021E030E0F90102C0EE0FFF1F4A95E2F78F
:1001D000AF01F80120812423CB010196211102C037
:1001E00090E080E01F910F9108950F931F938B0172
:1001F0009C0183E036952795179507958A95D1F749
:10020000677081E090E001C0880F6A95EAF7F80115
:10021000EC56FE4F2081452B31F48095822380835C
:100220001F910F910895822BFACF2F923F924F92F8
:100230005F926F927F928F929F92AF92BF92CF9276
:10024000DF92EF92FF920F931F93CF93DF93D62EFF
:10025000C72E782E692E49015A01280161E08D2DA3
:100260000E940B11CD2DDC2D8E010F5F1F4FA801B9
:100270006D2D7C2D872D962DB8DF20E030E0A90173
:10028000C201B7010E942C0F181664F4C201B70115
:100290000E94AD0D2B01C501B4010E94AD0DA2015C
:1002A000CE0123D0C801DF91CF911F910F91FF9014
:1002B000EF90DF90CF90BF90AF909F908F907F9006
:1002C0006F905F904F903F902F900895882341F05A
:1002D0008150682F70E090E080E050E040E085CFF2
:1002E0000895862FB9010C9487109C01FC01E859F0
:1002F000FF4FE491E33061F140F4E13011F1E2307D
:1003000021F160E0822F0C944711E730C1F1E83011
:1003100009F441C0E430A9F7809180008C7F8260AD
:100320008093800090918100907E9061692B609312
:100330008100509387004093860080918000806206
:100340001BC084B5806884BDDCCF84B58062FBCFE0
:10035000809180008C7F82608093800090918100EA
:10036000907E9061692B6093810050938700409349
:10037000860080918000806880938000C2CF809149
:10038000B00080688093B0008091B100887F682BB6
:100390006093B100B6CF8091B0008062F3CF089532
:1003A0004F925F926F927F928F929F92AF92BF9285
:1003B000CF92EF92FF920F931F93CF93DF93CDB71E
:1003C000DEB72B013A01F02E9C2DB40130E028302D
:1003D000310511F424E030E00AE010E0992351F0F7
:1003E00000E110E0913031F008E010E0923011F0BF
:1003F00002E010E08111D0C0F1101BC0269DA001C9
:10040000279D500D369D500D1124B20189E992E0CF
:10041000DF91CF911F910F91FF90EF90CF90BF9000
:10042000AF909F908F907F906F905F904F900C94C3
:100430004A1389E992E00E948613E11015C0640C0A
:10044000751C6414750409F4A7C0F20161912F01B1
:10045000F1E0A80189E992E0FF1203C00E9458145C
:10046000F0CF0E945E14EDCF81E0E81215C0E1E00C
:100470006E1A710808F490C0F201619171912F0118
:10048000F1E0A80189E992E0FF1203C00E946E1416
:10049000EECF0E947314EBCF82E0E81217C0E1E0C8
:1004A0006E1A710808F478C0F2014191519161917E
:1004B00071912F01F1E0980189E992E0FF1203C0E8
:1004C0000E944C14ECCF0E948314E9CF83E0E81221
:1004D00018C0640C751C4614570409F45DC0F20181
:1004E00061912F01062E000C770BF1E0A80189E93C
:1004F00092E0FF1203C00E942614EDCF0E942C143C
:10050000EACF84E0E81215C0E1E06E1A710808F441
:1005100043C0F201619171912F01F1E0A80189E9D5
:1005200092E0FF1203C00E942614EECF0E942C140A
:10053000EBCF85E0E81216C0E1E06E1A710860F1B9
:10054000F20141915191619171912F01F1E0980176
:1005500089E992E0FF1203C00E94E113EDCF0E94EF
:100560003C14EACF86E0E81217C0B12CE1E06E1A25
:10057000710890F0F20141915191619171912F01B7
:10058000F1E0950189E992E0FF1203C00E9466152F
:10059000EDCF0E946715EACFDF91CF911F910F91A8
:1005A000FF90EF90CF90BF90AF909F908F907F90F3
:1005B0006F905F904F900895CF92DF92EF92FF92ED
:1005C0006B017C019F7720E030E040E859E50E9414
:1005D0003C0D87FF2BC020E030E040E05FE3C70127
:1005E000B6010E942C0F87FD0EC020E030E040E0F5
:1005F0005FE3C701B6010E94C50CFF90EF90DF904A
:10060000CF900C94160E20E030E040E05FEBC70185
:10061000B6010E942C0F181684F420E030E0A901E6
:10062000C701B6010E94300F6B017C01C701B60102
:10063000FF90EF90DF90CF90089520E030E040E011
:100640005FE3C701B6010E94C40CFF90EF90DF90FA
:10065000CF900C94290D8F929F92AF92BF92CF9220
:10066000DF92EF92FF920F931F93CF93DF93C0918E
:100670002702D0912802E0E4F3E0C080D180E2803C
:10068000F38000E011E02481358146815781F80133
:1006900064897589868997890E94300F4B015C01B6
:1006A000F8012089318942895389C701B6010E9426
:1006B000300F9B01AC01C501B4010E94C50C9B0128
:1006C000AC01CC82DD82EE82FF8260913A037091B0
:1006D0003B0380913C0390913D030E94C50C6883CD
:1006E00079838A839B83DF91CF911F910F91FF9034
:1006F000EF90DF90CF90BF90AF909F908F90089534
:100700002F923F924F925F926F927F928F929F9221
:10071000AF92BF92CF92DF92EF92FF920F931F930F
:10072000CF93DF93CDB7DEB76F970FB6F894DEBFE8
:100730000FBECDBF80916802909169028130910512
:1007400009F0DBC060915C0270915D0280915E02F5
:1007500090915F026F5F7F4F8F4F9F4F0E94D90D27
:1007600020916002309161024091620250916302D7
:100770000E94300F6093AB017093AC018093AD0188
:100780009093AE01AA24A394B12C52E5C52E51E05A
:10079000D52EEE24E394F12C01E511E021E030E0C8
:1007A00040E551E060E873E08EE393E056D7609156
:1007B0003E0370913F03072E000C880B990B0E949B
:1007C000DB0D20910401309105014091060150910B
:1007D00007010E94300F20910801309109014091DA
:1007E0000A0150910B010E94400D6B017C01C092E7
:1007F0003603D0923703E0923803F09239038090A9
:10080000000190900101A0900201B0900301A501A8
:10081000940160914E0370914F0380915003909129
:1008200051030E943C0D8111E2C3C701B601C4DE31
:100830006B017C01E0D58111E3C3C701B60198D5F6
:100840008111DEC320E030E040E853E4C701B60187
:100850000E94300E6B017C0120E030E0A9010E9473
:100860003C0D87FFD0C3C701B60190580E94AD0D63
:100870006195698360916203709163038091640361
:10088000909165030E94AD0DC62E60915A03709140
:100890005B0380915C0390915D030E94AD0DE62E99
:1008A00060915E0370915F0380916003909161039A
:1008B0000E94AD0D062F60915603709157038091F1
:1008C0005803909159030E94AD0D162F6091520369
:1008D0007091530380915403909155030E94AD0D84
:1008E000862F912C812C32E0A32E212F41E050E065
:1008F000BE016F5F7F4F54DD15C0892B99F4E091E5
:10090000DB01F091DC010190F081E02D808191818B
:10091000A281B381E0916B02F0916C02808391839C
:10092000A283B3832091400330914103409142035D
:1009300050914303609118017091190180911A013F
:1009400090911B010E94300F6B017C0120914403A8
:1009500030914503409146035091470360911C013B
:1009600070911D0180911E0190911F010E94300F16
:100970009B01AC01C701B6010E94C50C5B016C0173
:10098000E0902001F09021010091220110912301BB
:100990009B01AC01B701C8010E943C0D87FD12C04C
:1009A000E0902401F090250100912601109127018B
:1009B0009501A601B701C8010E942C0F181614F06A
:1009C00075018601209128013091290140912A0169
:1009D00050912B01B701C8010E94300F6B017C01BF
:1009E000AC019B0160910C0170910D0180910E0191
:1009F00090910F010E943C0D682F661F6627661FAD
:100A00008DE091DBE0916B02F0916C0220E030E030
:100A100040E251E460817181828193810E943C0DAA
:100A2000E894F7F887FD03C0C12CD12C76016BE068
:100A300070E080E090E0B5DB4C0190937F03809301
:100A40007E03A0902C01B0902D0100912E011091F9
:100A50002F01A7019601B501C8010E943C0D87FD39
:100A600012C0A0903001B09031010091320110917C
:100A70003301A7019601B501C8010E942C0F181679
:100A800014F05601870120E030E04FE753E4B50150
:100A9000C801F2D718160CF4BAC220E030E0A90160
:100AA000B501C8010E942C0F87FF04C0A12CB12CF6
:100AB00000E010E0A501B801C4013CDBE0916B024D
:100AC000F0916C0280809180A280B380A501940196
:100AD0006091340170913501809136019091370118
:100AE0000E942C0F18160CF097C26091380170917B
:100AF000390180913A0190913B015EDD6B017C01EF
:100B000020E030E040E853E4B7D787FF90C220E010
:100B100030E0A901C701B6010E942C0F87FD85C2F4
:100B2000C701B6010E94AD0D6983698188E0FBDAD7
:100B3000A5019401609140017091410180914201B1
:100B4000909143010E942C0F18160CF073C2609113
:100B50004401709145018091460190914701209197
:100B600036033091370340913803509139030CD745
:100B700020914C0130914D0140914E0150914F0117
:100B80000E94300F60933A0370933B0380933C03C1
:100B900090933D0380916802909169020197A9F4B6
:100BA000AA24A394B12C92E5C92E91E0D92EEE246B
:100BB000E394F12C01E511E021E030E040E551E063
:100BC00060E873E08EE393E074D5809168029091C1
:100BD0006902019709F0F2C1E091DB01F091DC01BB
:100BE0000190F081E02D80819181A281B3818E837B
:100BF0009F83A887B9878091AB019091AC01A091A8
:100C0000AD01B091AE018C8B9D8BAE8BBF8BE09113
:100C1000AF01F091B001C080D180E280F380E0911B
:100C2000DF01F091E00100811181E091A301F091D9
:100C3000A40120803180A281B381BB83AA838481F7
:100C400095819D838C8396819A87A781AE87E09159
:100C5000A101F091A2011182108288E0F801D10176
:100C600001900D928A95E1F7E091D901F091DA01B6
:100C70008A819B8191838083EEDC20E030E040E03C
:100C80005FE3C701B6010E94300F2B013C01AA812E
:100C9000BB812D913D914D915C910E94300FF101EE
:100CA000208131814281538170D6D8016D937D932B
:100CB0008D939C931397EA81FB8124813581468132
:100CC0005781C301B2010E94300FD10114962D91BA
:100CD0003D914D915C91179758D6F80164837583C7
:100CE00086839783E091DB01F091DC01A080B180E5
:100CF000A30192016E817F818885998546D6D501B1
:100D00006D937D938D939C931397E091D901F0910E
:100D1000DA018C819D8191838083F2DC9CDC20E070
:100D200030E0A901C701B6010E94300F4B015C0100
:100D300020E030E040E45FE3C701B6010E94300FDD
:100D40002B013C01AC81BD812D913D914D915C9178
:100D50000E94300F688B798B8A8B9B8BEA81FB8199
:100D60002081318142815381C501B4010E94300F3D
:100D70009B01AC01688979898A899B8906D6D10152
:100D80002D913D914D915C9100D6F8016083718366
:100D900082839383AA81BB8114962D913D914D91BD
:100DA0005C911797C501B4010E94300F4B015C01A3
:100DB000EC81FD812481358146815781C301B201D7
:100DC0000E94300F9B01AC01C501B401DED5D101F9
:100DD00014962D913D914D915C911797D6D5F801C0
:100DE0006483758386839783E091DB01F091DC0156
:100DF000A080B180A30192016E817F818885998551
:100E0000C4D5D5016D937D938D939C931397E091F9
:100E1000D901F091DA01BA85B0838E85818370DCC7
:100E20001ADC29E33EE843E65EE3C701B6010E940F
:100E3000300F688B798B8A8B9B8B2BEA3AEA4AEAD4
:100E40005EE3C701B6010E94300F688F798F8A8FE9
:100E50009B8F29E33EE843EE5EE3C701B6010E94A3
:100E6000300F6C8F7D8F8E8F9F8F9A859E83AE857E
:100E7000AF83F1013896FF87EE87F101819191915F
:100E8000A191B1911F018A879B87AC87BD87AA81F9
:100E9000BB816D917D918D919D91BB83AA83EC81E6
:100EA000FD814190519061907190FD83EC83AE8102
:100EB000BF81CD90DD90ED90FD90BF83AE832889FA
:100EC00039894A895B89CCD74B015C01288D398DE2
:100ED0004A8D5B8DC301B201C3D79B01AC01C50133
:100EE000B40153D54B015C012C8D3D8D4E8D5F8D32
:100EF000C701B601B5D79B01AC01C501B40145D509
:100F00002A853B854C855D8540D5F80161937193B9
:100F1000819391938F018E859F852816390609F05C
:100F2000ACCFE091DB01F091DC010190F081E02D8C
:100F30008C899D89AE89BF8980839183A283B38385
:100F4000E091A101F091A20181E090E09183808382
:100F500080915C0290915D02A0915E02B0915F026F
:100F60000196A11DB11D80935C0290935D02A09338
:100F70005E02B0935F028091AB019091AC01A091B1
:100F8000AD01B091AE01E0916B02F0916C028083F3
:100F90009183A283B3838091640290916502A091B2
:100FA0006602B09167020196A11DB11D8093640293
:100FB00090936502A0936602B09367026F960FB696
:100FC000F894DEBF0FBECDBFDF91CF911F910F917F
:100FD000FF90EF90DF90CF90BF90AF909F908F9059
:100FE0007F906F905F904F903F902F9008958092E8
:100FF0004E0390924F03A0925003B092510315CC30
:10100000C12CD12C7601C701B601A7D532CCA12CB9
:10101000B12C0FE713E44ECD60913C0170913D017E
:1010200080913E0190913F0168CD19827ECD8FEF76
:1010300089837BCD609148017091490180914A017B
:1010400090914B018CCD4F925F926F927F92BF92A5
:10105000CF92DF92EF92FF920F931F93CF93DF9384
:1010600084E090E04ED1EDE9F1E088EDDF011D92E2
:101070008A95E9F788E692E095838483CBE6D2E00F
:10108000D7AFC6AF00E612E0138B028B27E232E047
:1010900035AF24AF21E232E03093E0012093DF014D
:1010A00046E552E05093DE014093DD0148E552E011
:1010B0005093E2014093E10143E252E05093E40196
:1010C0004093E30145E252E05093E6014093E5018D
:1010D000F0930602E0930502F383E28341E050E0DF
:1010E000DC014D935C938EE492E04EE252E0DC0131
:1010F0004D935C9346E352E050935102409350026B
:101100004EE352E0509353024093520246E452E0C1
:10111000509355024093540240E4C42E43E0D42E31
:10112000D901CD92DC929783868387E591E0918700
:1011300080878DE692E0998388834AE057ED63E2E9
:101140007CE3F8014083518362837383E6E3F3E039
:101150008AE0DF011D928A95E9F788E0F601119295
:101160008A95E9F7C8E4D3E08CE3DE011D928A9505
:10117000E9F78091000190910101A0910201B091E5
:1011800003018E839F83A887B987412C512C32019C
:10119000439449825A826B827C8280E090E0A0E88E
:1011A000BFE38E879F87A88BB98B80E0F8D8BB24DC
:1011B000B394BD8218A249A25AA26BA27CA261E09C
:1011C0008DE00E948B00BDA218AA1DAA49AA5AAAA6
:1011D0006BAA7CAAE12CF12C8701A80197016BE096
:1011E00070E080E090E021D89FAB8EABBDAA18A63E
:1011F00049A65AA66BA67CA661E088E00E948B00F7
:10120000BDA6E8AEF9AE0AAF1BAFF601E082F182EF
:1012100002831383E482F58206831783DF91CF91E3
:101220001F910F91FF90EF90DF90CF90BF907F9034
:101230006F905F904F90089580914803811103C093
:1012400081E08093480380916803811103C081E0AD
:10125000809368038091780381112DC081E0809391
:1012600078038091790390917A03A0917B03B091E8
:101270007C030197A105B105F1F480917D038823DA
:10128000D1F06BE070E080E090E00E94D10090939C
:101290007F0380937E0340E050E0BA010E949A00F1
:1012A0006BE070E080E090E00E94D10090937F03BB
:1012B00080937E030BD880917003811103C081E07D
:1012C00080937003089560E070E080E89FE70895E0
:1012D00060E070E080E89FE7089560E070E080E8FB
:1012E0009FEF089560E070E080E89FEF089560E070
:1012F00070E080EC9FEF089560E070E080EC9FEF7D
:101300000895F5DF609390037093910380939203A7
:1013100090939303F1DF609384037093850380932C
:10132000860390938703CFDF60938C0370938D03C4
:1013300080938E0390938F03CBDF60938803709329
:10134000890380938A0390938B03C7DF6093940390
:10135000709395038093960390939703C3DF6093F4
:1013600098037093990380939A0390939B03089535
:10137000CF92DF92EF92FF92CF936B017C01AC0191
:101380009B0160918C0370918D0380918E039091ED
:101390008F0372D3C1E0882369F0A70196016091A1
:1013A000940370919503809196039091970364D371
:1013B0008111C0E08C2FCF91FF90EF90DF90CF9004
:1013C00008950F931F938B019C010027112720780C
:1013D0003F770115110520483F4749F4AB01BC0197
:1013E0006F77772781E0452B462B472B09F480E068
:1013F0001F910F910895E5CF02978431910540F434
:10140000825A9E4FFC018081082E000C990B089592
:101410008FEF9FEF0895CF93DF93EC0170E060E0D2
:101420006C177D071CF0DF91CF910895072E000CFB
:10143000880B990BC0D320E030E0A901A6D220E0B0
:1014400030E0A901A2D220E030E040E450E49DD297
:1014500020E030E040E450E497D27AD36F5F7F4FD2
:10146000DFCFCF93DF9380917702909178023CD7C2
:10147000EC0180917B0290917C02CDDF809175021E
:101480009091760231D7019771F480917902909111
:101490007A02CD2B71F4019690937A0280937902AF
:1014A000DF91CF9108958091790290917A022197EE
:1014B00091F30197F1CFCF93DF93809175029091D3
:1014C000760212D7EC0180917B0290917C02A3DF1F
:1014D000809177029091780207D7019771F48091FB
:1014E000790290917A02219771F4019690937A0291
:1014F00080937902DF91CF91089580917902909144
:101500007A02CD2B91F30197F1CFCF93DF938091A6
:101510007F0290918002E8D6EC0180918302909145
:10152000840279DF80917D0290917E02DDD6019761
:1015300071F48091810290918202CD2B71F4019619
:101540009093820280938102DF91CF9108958091E0
:10155000810290918202219791F30197F1CFCF936D
:10156000DF9380917D0290917E02BED6EC01809146
:101570008302909184024FDF80917F0290918002DC
:10158000B3D6019771F480918102909182022197E4
:1015900071F401969093820280938102DF91CF9142
:1015A00008958091810290918202CD2B91F3019751
:1015B000F1CFCF93DF93809187029091880294D6E8
:1015C000EC0180918B0290918C0225DF8091850245
:1015D0009091860289D6019771F480918902909149
:1015E0008A02CD2B71F4019690938A02809389022E
:1015F000DF91CF9108958091890290918A0221977D
:1016000091F30197F1CFCF93DF9380918502909171
:1016100086026AD6EC0180918B0290918C02FBDEEF
:1016200080918702909188025FD6019771F4809132
:10163000890290918A02219771F4019690938A020F
:1016400080938902DF91CF910895809189029091D2
:101650008A02CD2B91F30197F1CF0F931F93CF9374
:10166000DF938C01EA0120E030E040E85FE3FB011A
:101670006081718182819381FFD1811115C0E881E0
:1016800088E0E89FF0011124EB58FD4F848195819B
:10169000F80191838083E88188E0E89FF0011124BC
:1016A000EB58FD4F15821482DF91CF911F910F915E
:1016B0000895CF92DF92EF92FF920F931F93CF93F3
:1016C000DF937B01EA0120E030E040E85FE3DB01EB
:1016D0006D917D918D919C91CFD1882309F454C057
:1016E000E881D8018C9190E0B8E0EB9FF0011124E3
:1016F000EB58FD4F91838083E881D6018C9190E077
:10170000B8E0EB9FF0011124EB58FD4F93838283E7
:10171000E88128E0E29FF0011124EB58FD4F808121
:10172000918160E078D5E88188E0E89FF00111249C
:10173000EB58FD4F8281938160E06DD5E881A8E090
:10174000EA9FF0011124EB58FD4F8081918161E007
:101750009ED5E881B8E0EB9FF0011124EB58FD4FD6
:101760008281938161E093D58881813059F1A8F01D
:10177000823009F43BC080E090E0A0E8BFE3F701CD
:1017800080839183A283B383DF91CF911F910F91C7
:10179000FF90EF90DF90CF90089580917502909127
:1017A00076022ADE41E050E061E37AE0BDD3809129
:1017B00077029091780220DE41E050E06BE57AE01C
:1017C000B3D3D9CF80917D0290917E0215DE41E0A6
:1017D00050E065E87AE0A8D380917F029091800282
:1017E0000BDE41E050E06FEA7AE0EACF80918502BB
:1017F0009091860201DE41E050E069ED7AE094D3F9
:101800008091870290918802F7DD41E050E063E02B
:101810007BE0D6CF40E052EC61E070E090E080E009
:1018200000C0892B21F426E089E992E04FC6089593
:101830001F920F920FB60F9211242F933F934F9345
:101840005F936F937F938F939F93AF93BF93EF9328
:10185000FF938FE89DEF909385008093840032D0B2
:10186000FF91EF91BF91AF919F918F917F916F9178
:101870005F914F913F912F910F900FBE0F901F904E
:1018800018958FE89DEF9093850080938400AFE6D4
:10189000B0E08C918E7F8C93E0E8F0E080818C7FCB
:1018A0008083E1E8F0E08081877E808380818460AE
:1018B000808380818C7F80838C9181608C9308955C
:1018C00081E0089580918D0291E0980F90938D02B0
:1018D000882349F021E030E030938F0220938E027C
:1018E00080938D02089578940E948003F8948091EB
:1018F0008D028150F5CF0F931F93CF93DF931092FA
:101900009D0310929C03C8D385DFC0915C01D091E8
:101910005D011982188297DBF894B3DF8881998181
:10192000892B31F481E0FE01E353FF4F9081911147
:1019300080E080939C03789478948E0103531F4F2A
:1019400080919C03811109C077DCF89490E080E0DD
:10195000DF91CF911F910F91089588819981892BF3
:1019600089F481E0F8019081911101C080E08093B9
:101970009D0390919D0381E0911180E080939C03F1
:101980009FDFDECF81E0F3CF5058BB27AA270ED0D0
:1019900012C203D230F008D220F031F49F3F11F48C
:1019A0001EF4F8C10EF4E095E7FBC5C1E92F14D28F
:1019B00080F3BA17620773078407950718F071F46C
:1019C0009EF543C20EF4E0950B2EBA2FA02D0B010D
:1019D000B90190010C01CA01A0011124FF27591B74
:1019E00099F0593F50F4503E68F11A16F040A22F7A
:1019F000232F342F4427585FF3CF469537952795EB
:101A0000A795F0405395C9F77EF41F16BA0B620BE9
:101A1000730B840BBAF09150A1F0FF0FBB1F661F30
:101A2000771F881FC2F70EC0BA0F621F731F841F73
:101A300048F4879577956795B795F7959E3F08F099
:101A4000B3CF9395880F08F09927EE0F9795879558
:101A50000895E4D180F09F3740F491110EF4F6C15F
:101A600060E070E080E89FE3089526F01B16611D9A
:101A7000711D811D66C180C13AD108F481E00895CD
:101A80000CD099C191D140F088D130F021F45F3F62
:101A900019F051C15111DAC17DC19ED198F399233A
:101AA000C9F35523B1F3951B550BBB27AA27621722
:101AB0007307840738F09F5F5F4F220F331F441F67
:101AC000AA1FA9F333D00E2E3AF0E0E830D091509F
:101AD0005040E695001CCAF729D0FE2F27D0660F8C
:101AE000771F881FBB1F261737074807AB07B0E8CB
:101AF00009F0BB0B802DBF01FF2793585F4F2AF0E1
:101B00009E3F510568F017C1A1C15F3FECF3983EBD
:101B1000DCF3869577956795B795F7959F5FC9F73D
:101B2000880F911D9695879597F90895E1E0660FC6
:101B3000771F881FBB1F621773078407BA0720F03F
:101B4000621B730B840BBA0BEE1F88F7E0950895A8
:101B500004D06894B1117AC1089546D188F09F5796
:101B600090F0B92F9927B751A0F0D1F0660F771FE9
:101B7000881F991F1AF0BA95C9F712C0B13081F0C9
:101B800064D1B1E0089561C1672F782F8827B85FCD
:101B900039F0B93FCCF3869577956795B395D9F72A
:101BA0003EF490958095709561957F4F8F4F9F4F34
:101BB0000895E89409C097FB3EF490958095709540
:101BC00061957F4F8F4F9F4F9923A9F0F92F96E989
:101BD000BB279395F695879577956795B795F111FE
:101BE000F8CFFAF4BB0F11F460FF1BC06F5F7F4F9B
:101BF0008F4F9F4F16C0882311F096E911C07723AD
:101C000021F09EE8872F762F05C0662371F096E8B5
:101C1000862F70E060E02AF09A95660F771F881F84
:101C2000DAF7880F9695879597F90895F7D080F0A1
:101C30009F3740F491110EF009C160E070E080E838
:101C40009FEB089526F41B16611D711D811D79C03F
:101C500093C0A3D018F011F0A7D038F49BC0F6C001
:101C6000E92FBAD0B0F35523C9F3E7FB6217730726
:101C700084079507A8F199F3E92FFF2788232AF015
:101C80003197660F771F881FDAF7952F5527442362
:101C900032F091505040220F331F441FD2F7BB2720
:101CA000E91BF50B621B730B840BB109C1F222F423
:101CB000620F731F841FB11D31972AF0660F771FC3
:101CC000881FBB1FEFCF915050405AF041F088233E
:101CD00032F0660F771F881F91505040C1F79395DF
:101CE0004BC08695779567959F5FD9F7F8CF990F89
:101CF0000008550FAA0BE0E8FEEF16161706E807D6
:101D0000F907C0F012161306E407F50798F0621BF6
:101D1000730B840B950B39F40A2661F0232B242BCB
:101D2000252B21F408950A2609F4A140A6958FEFEA
:101D3000811D811D089597F99F6780E870E060E03C
:101D40000895882371F4772321F09850872B762FFC
:101D500007C0662311F499270DC09051862B70E0BF
:101D600060E02AF09A95660F771F881FDAF7880FD0
:101D70009695879597F908959F3F31F0915020F4FB
:101D8000879577956795B795880F911D9695879557
:101D900097F908959FEF80EC089500240A94161691
:101DA000170618060906089500240A941216130649
:101DB000140605060895092E0394000C11F48823D7
:101DC00052F0BB0F40F4BF2B11F460FF04C06F5FF3
:101DD0007F4F8F4F9F4F089557FD9058440F551FC9
:101DE00059F05F3F71F04795880F97FB991F61F09D
:101DF0009F3F79F087950895121613061406551F14
:101E0000F2CF4695F1DF08C0161617061806991F7F
:101E1000F1CF86957105610508940895E5DFA0F07E
:101E2000BEE7B91788F4BB279F3860F41616B11DBA
:101E3000672F782F8827985FF7CF869577956795D6
:101E4000B11D93959639C8F30895E894BB2766278A
:101E50007727CB0197F908954ADF08F48FEF0895AB
:101E60000BD0A9CF9ADF28F09FDF18F0952309F057
:101E700062CF90CF1124EACFAFDFA0F3959FD1F3CB
:101E8000950F50E0551F629FF001729FBB27F00D28
:101E9000B11D639FAA27F00DB11DAA1F649F66277D
:101EA000B00DA11D661F829F2227B00DA11D621FCC
:101EB000739FB00DA11D621F839FA00D611D221F86
:101EC000749F3327A00D611D231F849F600D211D6A
:101ED000822F762F6A2F11249F5750408AF0E1F00D
:101EE00088234AF0EE0FFF1FBB1F661F771F881F56
:101EF00091505040A9F79E3F510570F01CCFA6CFDE
:101F00005F3FECF3983EDCF3869577956795B79540
:101F1000F795E7959F5FC1F7FE2B880F911D96956A
:101F2000879597F9089508958230E8F4E82FF0E056
:101F3000EE0FFF1FED5AFE4F71836083813041F039
:101F4000809169008C7F482B40936900E89A08953E
:101F500080916900837F440F551F440F551F482B04
:101F600040936900E99A08951F920F920FB60F925D
:101F700011242F933F934F935F936F937F938F938E
:101F80009F93AF93BF93EF93FF93E0915301F09131
:101F900054010995FF91EF91BF91AF919F918F915E
:101FA0007F916F915F914F913F912F910F900FBE55
:101FB0000F901F9018951F920F920FB60F92112439
:101FC0002F933F934F935F936F937F938F939F9341
:101FD000AF93BF93EF93FF93E0915501F0915601BA
:101FE0000995FF91EF91BF91AF919F918F917F9153
:101FF0006F915F914F913F912F910F900FBE0F9076
:102000001F9018951F920F920FB60F9211242F93C5
:102010003F938F939F93AF93BF9380919102909141
:102020009202A0919302B09194023091900223E029
:10203000230F2D3758F50196A11DB11D2093900255
:102040008093910290939202A0939302B093940292
:102050008091950290919602A0919702B09198027A
:102060000196A11DB11D8093950290939602A093B5
:102070009702B0939802BF91AF919F918F913F913A
:102080002F910F900FBE0F901F90189526E8230FE9
:102090000296A11DB11DD2CF789484B5826084BD13
:1020A00084B5816084BD85B5826085BD85B581605C
:1020B00085BDEEE6F0E0808181608083E1E8F0E0BC
:1020C0001082808182608083808181608083E0E8EB
:1020D000F0E0808181608083E1EBF0E080818460CA
:1020E0008083E0EBF0E0808181608083EAE7F0E0CC
:1020F0008081846080838081826080838081816030
:1021000080838081806880831092C10008951F932E
:10211000CF93DF93182FEB0161E07DD0209731F44E
:1021200060E0812FDF91CF911F91B1C0CF3FD105EA
:1021300011F461E0F6CFE12FF0E0E859FF4FE491B0
:10214000E33031F140F4E130B1F0E230E1F0C03899
:10215000D1057CF7E5CFE73029F1E83059F1E430DB
:10216000B1F780918000806280938000D0938B00D3
:10217000C0938A0004C084B5806884BDC7BDDF9168
:10218000CF911F91089584B5806284BDC8BDF7CFFB
:1021900080918000806880938000D0938900C093F4
:1021A0008800EDCF8091B00080688093B000C0932C
:1021B000B300E5CF8091B00080628093B000C093FF
:1021C000B400DDCF833081F028F4813099F0823083
:1021D000A9F008958730A9F08830C9F08430B1F4AF
:1021E000809180008F7D03C0809180008F778093E5
:1021F0008000089584B58F7784BD089584B58F7D60
:10220000FBCF8091B0008F778093B00008958091CC
:10221000B0008F7DF9CFCF93DF9390E0FC01E458BD
:10222000FF4F249180579F4FFC0184918823C9F070
:1022300090E0880F991FFC01E854FF4FA591B491DD
:10224000FC01E255FF4FC591D49161110DC09FB7BC
:10225000F8948C91209582238C938881282328835D
:102260009FBFDF91CF910895623051F49FB7F894EA
:102270003C91822F809583238C93E8812E2BEFCF86
:102280008FB7F894EC912E2B2C938FBFEACF1F932E
:10229000CF93DF93282F30E0F901E859FF4F849165
:1022A000F901E458FF4FD491F901E057FF4FC49171
:1022B000CC23A1F0162F811185DFEC2FF0E0EE0F7B
:1022C000FF1FE255FF4FA591B4918FB7F894EC91A1
:1022D000111108C0D095DE23DC938FBFDF91CF9121
:1022E0001F910895DE2BF8CFCF93DF93282F30E096
:1022F000F901E859FF4F8491F901E458FF4FD49157
:10230000F901E057FF4FC491CC2399F081115ADFB6
:10231000EC2FF0E0EE0FFF1FEC55FF4FA591B491AD
:10232000EC91ED2381E090E009F480E0DF91CF9122
:10233000089580E090E0FACFFC01918D228D892FE5
:1023400090E0805C9F4F821B91098F7399270895BD
:10235000FC01918D828D981731F0828DE80FF11D6F
:10236000858D90E008958FEF9FEF0895FC01918D8A
:10237000828D981761F0A28DAE0FBF2FB11D5D96B3
:102380008C91928D9F5F9F73928F90E008958FEF55
:102390009FEF0895FC01538D448D252F30E0842F4D
:1023A00090E0821B930B541710F0CF96089501977D
:1023B0000895FC01A48DA80FB92FB11DA35ABF4FDA
:1023C0002C91848D90E001968F739927848FA68934
:1023D000B7892C93A089B1898C91837080648C9388
:1023E000938D848D981306C00288F389E02D808137
:1023F0008F7D80830895CF93DF93EC01888D8823B0
:10240000B1F0AA89BB89E889F9898C9185FD03C05F
:10241000808186FD0CC00FB607FCF7CF8C9185FF3D
:10242000F2CF808185FFEDCFCE01C3DFEACFDF9110
:10243000CF910895EF92FF920F931F93CF93DF9365
:10244000EC0181E0888F9B8D8C8D98131AC0E889F0
:10245000F989808185FF15C09FB7F894EE89FF89BF
:102460006083E889F98980818370806480839FBF5D
:1024700081E090E0DF91CF911F910F91FF90EF905D
:102480000895F62E0B8D10E00F5F1F4F0F7311276D
:10249000E02E8C8D8E110BC00FB607FCFACFE889A9
:1024A000F989808185FFF5CFCE0183DFF2CFEB8DF7
:1024B000EC0FFD2FF11DE35AFF4FF0829FB7F89408
:1024C0000B8FEA89FB8980818062D0CFCF92DF9227
:1024D000EF92FF921F93CF93DF93EC016A017B0190
:1024E000122FE889F98982E08083C11481EED80631
:1024F000E104F10499F060E079E08DE390E0A70158
:102500009601F5D221503109410951095695479557
:1025100037952795211580E1380790F0E889F989EA
:10252000108260E874E88EE190E0A7019601DFD2A6
:1025300021503109410951095695479537952795FD
:10254000EC85FD853083EE85FF852083188EEC8930
:10255000FD891083EA89FB89808180618083EA8913
:10256000FB89808188608083EA89FB89808180681B
:102570008083EA89FB8980818F7D8083DF91CF9181
:102580001F91FF90EF90DF90CF9008951F920F92D0
:102590000FB60F9211242F938F939F93EF93FF9376
:1025A000E091A902F091AA028081E091AF02F0913E
:1025B000B00282FD1BC090818091B2028F5F8F7349
:1025C0002091B302821741F0E091B202F0E0E756A9
:1025D000FD4F958F8093B202FF91EF919F918F9164
:1025E0002F910F900FBE0F901F9018958081F4CF00
:1025F0001F920F920FB60F9211242F933F934F9378
:102600005F936F937F938F939F93AF93BF93EF935A
:10261000FF9389E992E0CDDEFF91EF91BF91AF91F9
:102620009F918F917F916F915F914F913F912F91EA
:102630000F900FBE0F901F901895E9E9F2E01382FA
:10264000128288EE93E0A0E0B0E084839583A683B5
:10265000B78386E791E09183808385EC90E095874E
:10266000848784EC90E09787868780EC90E0918B5C
:10267000808B81EC90E0938B828B82EC90E0958B49
:10268000848B86EC90E0978B868B118E128E138E46
:10269000148E0895AF92BF92CF92DF92EF92FF9285
:1026A0000F931F93CF93DF936C017B018B01040F7A
:1026B000151FEB015E01AE18BF08C017D10759F016
:1026C0006991D601ED91FC910190F081E02DC60158
:1026D0000995892B79F7C501DF91CF911F910F9152
:1026E000FF90EF90DF90CF90BF90AF900895FB01E7
:1026F00001900020E9F73197AF01461B570BDC0131
:10270000ED91FC910280F381E02D09946115710532
:1027100009F0EDCF90E080E00895DC01ED91FC91AF
:102720000190F081E02D099464E871E0E0CF8F9290
:102730009F92AF92BF92EF92FF920F931F93CF930E
:10274000DF93CDB7DEB7A1970FB6F894DEBF0FBE0B
:10275000CDBF7C01FA01CB0119A2223008F42AE096
:102760008E010F5D1F4F822E912CB12CA12CBF0129
:10277000A5019401BCD1F901CA016A3004F5605D7C
:10278000D8016E938D01232B242B252B81F790E00C
:1027900080E0109719F0BD01C701A9DFA1960FB61F
:1027A000F894DEBF0FBECDBFDF91CF911F910F9187
:1027B000FF90EF90BF90AF909F908F900895695CCD
:1027C000DFCFCF92DF92EF92FF920F931F93CF93C1
:1027D000DF932115310581F4DC01ED91FC9101902D
:1027E000F081E02D642FDF91CF911F910F91FF9029
:1027F000EF90DF90CF9009942A303105F1F42AE070
:1028000077FF1BC06A017B01EC016DE286DF8C0162
:1028100044275527BA014C195D096E097F092AE042
:10282000CE0185DF800F911FDF91CF911F910F9116
:10283000FF90EF90DF90CF900895DF91CF911F919F
:102840000F91FF90EF90DF90CF9071CF9A01AB0185
:10285000770F660B770BB5CF0F931F93CF93DF9353
:10286000EC01F4DF8C01CE015FDF800F911FDF915F
:10287000CF911F910F9108950F931F93CF93DF93E3
:10288000EC019FDF8C01CE014FDF800F911FDF91A4
:10289000CF911F910F9108952115310541F4DC016D
:1028A000ED91FC910190F081E02D642F09943FCFD0
:1028B0009A01462F50E070E060E0EECF0F931F9337
:1028C000CF93DF93EC01F4DF8C01CE012DDF800F7D
:1028D000911FDF91CF911F910F9108959A01AB0144
:1028E00070E060E0D9CF0F931F93CF93DF93EC019B
:1028F000F5DF8C01CE0118DF800F911FDF91CF91A2
:102900001F910F9108950F931F93CF93DF93EC01C5
:10291000C3DF8C01CE0108DF800F911FDF91CF91C3
:102920001F910F9108952F923F924F925F926F9255
:102930007F928F929F92AF92BF92CF92DF92EF924F
:10294000FF921F93CF93DF93EC016A017B01722EFC
:10295000AB019601CB01B601F2D067E871E08111BD
:1029600023C046015701E894B7F82FEF3FEF4FE738
:102970005FE7C501B401E3D081110BC02FEF3FEF3A
:102980004FE75FE7C501B40177D86BE871E018162F
:102990005CF02FEF3FEF4FE75FE4C701B6015CDA71
:1029A0001816ACF46FE871E0CE01DF91CF911F9162
:1029B000FF90EF90DF90CF90BF90AF909F908F905F
:1029C0007F906F905F904F903F902F9090CE2FEF21
:1029D0003FEF4FE75FECC701B6014ED887FDE2CF6E
:1029E00020E030E0A901C701B60146D8312C212CE6
:1029F00087FF08C06DE2CE0190DE1C01F7FAF0946B
:102A0000F7F8F09410E060E070E080E09FE371166A
:102A100039F020E030E040E251E432D81F5FF7CFD8
:102A2000A70196010E94C50C2B013C0196D84B01D1
:102A30005C012AE0BC01A401CE0179DE7C01E20C3C
:102A4000F31C112381F1C501B401B3D89B01AC0182
:102A5000C301B2010E94C40C4B015C016EE2CE01C5
:102A60005CDEE80EF91E1150F0F020E030E040E2AC
:102A700051E4C501B401F4D92B013C016ED84B01DE
:102A80004AE050E0CE012ADFE80EF91EB40190E0E2
:102A900080E08FD89B01AC01C301B2010E94C40C3D
:102AA0004B015C01E0CFC701DF91CF911F91FF90F7
:102AB000EF90DF90CF90BF90AF909F908F907F90DE
:102AC0006F905F904F903F902F9008952CCF0F9371
:102AD0001F93CF93DF93EC0126DF8C01CE0124DE20
:102AE000800F911FDF91CF911F910F910895A1E267
:102AF0001A2EAA1BBB1BFD010DC0AA1FBB1FEE1F78
:102B0000FF1FA217B307E407F50720F0A21BB30BC2
:102B1000E40BF50B661F771F881F991F1A9469F73E
:102B200060957095809590959B01AC01BD01CF019A
:102B30000895EE0FFF1F0590F491E02D0994D7D86A
:0A2B4000880B990B0895F894FFCF5D
:102B4A00000000000080BB4500004845000000006E
:102B5A00713D96C100000080BA490C3EE17A3041CD
:102B6A0000004041000040C10000AA4100007F432C
:102B7A00000000000000000000000000000000004B
:102B8A00000000000000000000002042B81EA53F1F
:102B9A00000203930F930F6F646533009D010001D8
:102BAA00FFFFFFFFFFFFFFFFFFFFFFFFFFFF050420
:102BBA000302000000001A124A13CA11FB119C11E9
:102BCA00B611A8110D0A006E616E00696E66006F7B
:042BDA00766600001B
:00000001FF
