:1000000070C000000C94300D0C94570D92C000008D
:1000100090C000008EC000008CC000008AC00000AC
:1000200088C0000086C0000084C0000082C00000BC
:1000300080C000000C9432097CC000007AC000002F
:100040000C947E0D76C000000C9442100C94741039
:1000500070C000006EC000006CC000006AC00000EC
:1000600068C0000066C0000005A84CCDB2D44EB9EF
:100070003836A9020C50B9918688083CA6AAAA2A4B
:10008000BE000000803F00000008000201000003E5
:100090000407000000000000000001020408102016
:1000A000408001020408102001020408102004040A
:1000B0000404040404040202020202020303030310
:1000C00003030000000023002600290000000000B8
:1000D000250028002B0000000000240027002A0033
:1000E000991011241FBECFEFD8E0DEBFCDBF11E0C5
:1000F000A0E0B1E0EAE4F6E202C005900D92AC3770
:10010000B107D9F723E0ACE7B1E001C01D92A634F6
:10011000B207E1F710E0C1E7D0E004C02197FE018B
:100120000E941913C037D107C9F70E9494090C9493
:10013000231366CF611102C00C94870E6130E1F386
:1001400062E0FACF662319F061E00C94C30E60E020
:10015000FCCFCF92DF92EF92FF92CF93882351F1A1
:100160006A017B01CFEFC80F20E030E0A901CB018D
:10017000B6010E94430A87FF11C0C701B60190581B
:100180000E94B40A9B01AC016C2F70E090E080E00B
:10019000CF91FF90EF90DF90CF90B2C0C701B60132
:1001A0000E94AF0A8C2FCF91FF90EF90DF90CF90FD
:1001B0000C94030ECF91FF90EF90DF90CF900895B5
:1001C0000F931F938B019C0183E03695279517951C
:1001D00007958A95D1F704581E4F462F477021E0A6
:1001E00030E0F90102C0EE0FFF1F4A95E2F7AF01C0
:1001F000F80120812423CB010196211102C090E057
:1002000080E01F910F9108950F931F938B019C0124
:1002100083E036952795179507958A95D1F76770EE
:1002200081E090E001C0880F6A95EAF7F801E45890
:10023000FE4F2081452B31F48095822380831F91CE
:100240000F910895822BFACF2F923F924F925F9297
:100250006F927F928F929F92AF92BF92CF92DF92D6
:10026000EF92FF920F931F93CF93DF93D62EC72E5B
:10027000782E692E49015A01280161E08D2D0E94D6
:10028000870ECD2DDC2D8E010F5F1F4FA8016D2D28
:100290007C2D872D962DB8DF20E030E0A901C2012A
:1002A000B7010E94330C181664F4C201B7010E9412
:1002B000B40A2B01C501B4010E94B40AA201CE0107
:1002C00023D0C801DF91CF911F910F91FF90EF9044
:1002D000DF90CF90BF90AF909F908F907F906F9066
:1002E0005F904F903F902F900895882341F0815068
:1002F000682F70E090E080E050E040E085CF089506
:10030000862FB9010C94030E9C01FC01EA57FF4FA4
:10031000E491E33061F140F4E13011F1E23021F198
:1003200060E0822F0C94C30EE730C1F1E83009F48D
:1003300041C0E430A9F7809180008C7F8260809377
:10034000800090918100907E9061692B6093810084
:1003500050938700409386008091800080621BC08C
:1003600084B5806884BDDCCF84B58062FBCF80918A
:1003700080008C7F82608093800090918100907ECD
:100380009061692B609381005093870040938600B1
:1003900080918000806880938000C2CF8091B000FF
:1003A00080688093B0008091B100887F682B609353
:1003B000B100B6CF8091B0008062F3CF08954F9224
:1003C0005F926F927F928F929F92AF92BF92CF92E5
:1003D000EF92FF920F931F93CF93DF93CDB7DEB7CA
:1003E0002B013A01F02E9C2DB40130E0283031056C
:1003F00011F424E030E00AE010E0992351F000E12C
:1004000010E0913031F008E010E0923011F002E09D
:1004100010E08111D0C0F1101BC0269DA001279DC6
:10042000500D369D500D1124B2018DE492E0DF9104
:10043000CF911F910F91FF90EF90CF90BF90AF9011
:100440009F908F907F906F905F904F900C94C6100C
:100450008DE492E00E940211E11015C0640C751C3D
:100460006414750409F4A7C0F20161912F01F1E051
:10047000A8018DE492E0FF1203C00E94D411F0CFD6
:100480000E94DA11EDCF81E0E81215C0E1E06E1AAA
:10049000710808F490C0F201619171912F01F1E0AF
:1004A000A8018DE492E0FF1203C00E94EA11EECF92
:1004B0000E94EF11EBCF82E0E81217C0E1E06E1A64
:1004C000710808F478C0F2014191519161917191E4
:1004D0002F01F1E098018DE492E0FF1203C00E9429
:1004E000C811ECCF0E94FF11E9CF83E0E81218C0D9
:1004F000640C751C4614570409F45DC0F201619147
:100500002F01062E000C770BF1E0A8018DE492E09C
:10051000FF1203C00E94A211EDCF0E94A811EACFE2
:1005200084E0E81215C0E1E06E1A710808F443C0D7
:10053000F201619171912F01F1E0A8018DE492E047
:10054000FF1203C00E94A211EECF0E94A811EBCFB0
:1005500085E0E81216C0E1E06E1A710860F1F20160
:1005600041915191619171912F01F1E098018DE4D8
:1005700092E0FF1203C00E945D11EDCF0E94B811FE
:10058000EACF86E0E81217C0B12CE1E06E1A7108DC
:1005900090F0F20141915191619171912F01F1E03F
:1005A00095018DE492E0FF1203C00E94E612EDCFA8
:1005B0000E94E712EACFDF91CF911F910F91FF9038
:1005C000EF90CF90BF90AF909F908F907F906F9063
:1005D0005F904F900895CF92DF92EF92FF926B0160
:1005E0007C019F7720E030E040E859E54CD787FF59
:1005F0002AC020E030E040E05FE3C701B6010E947E
:10060000330C87FD0DC020E030E040E05FE3C70120
:10061000B601C2D6FF90EF90DF90CF900C941D0BE7
:1006200020E030E040E05FEBC701B6010E94330CF0
:10063000181684F420E030E0A901C701B6010E9439
:10064000370C6B017C01C701B601FF90EF90DF9082
:10065000CF90089520E030E040E05FE3C701B601AD
:100660009AD6FF90EF90DF90CF90FAC64F925F92AC
:100670006F927F928F929F92AF92BF92CF92DF92B2
:10068000EF92FF920F931F93CF93DF931F92CDB7FB
:10069000DEB7AA24A394B12C5EE2C52E51E0D52E7C
:1006A000EE24E394F12C0DE211E021E030E04CE285
:1006B00051E062E273E08AE293E0E9D4C090000185
:1006C000D0900101E0900201F0900301A701960192
:1006D0006091F0027091F1028091F2029091F30228
:1006E000D2D6882341F0C092F002D092F102E0927B
:1006F000F202F092F30260912A0370912B03072E0D
:10070000000C880B990B5ED72091040130910501F4
:1007100040910601509107010E94370C2091080179
:100720003091090140910A0150910B01B0D685D753
:100730006B017C017AD38111DCC1C701B60132D3D0
:100740008111D7C120E030E040E853E4C701B60191
:100750008ED76B017C0120E030E0A90194D687FFA1
:10076000CBC1C701B6019058FFD6619569836091EE
:100770000403709105038091060390910703F4D65A
:10078000C62E6091FC027091FD028091FE02909154
:10079000FF02EAD6E62E609100037091010380917A
:1007A000020390910303E0D6062F6091F802709146
:1007B000F9028091FA029091FB02D6D6162F609131
:1007C000F4027091F5028091F6029091F702CCD676
:1007D000862F912C812C32E0A32E212F41E050E076
:1007E000BE016F5F7F4FEBDDE0911F02F0912002B1
:1007F00080809180A280B380C0900C01D0900D01C8
:10080000E0900E01F0900F0120E030E040E85FE35F
:10081000C701B60138D666E470E087FD0DC020E060
:1008200030E040E251E4C701B6012DD66AE070E045
:1008300087FF02C069E170E0072E000C880B990B5E
:10084000C1D6A50194010E94330C18160CF058C1B2
:10085000A5019401C701B6010E94370C0E949A0CB1
:1008600020E030E040E251E40E94370C209110017A
:10087000309111014091120150911301F8D74B01B1
:100880005C01AC019B016091140170911501809194
:10089000160190911701F7D5682F661F6627661F0E
:1008A0008DE050DC6BE070E080E090E089DC6C0172
:1008B0009093210380932003E894B7F8E090180107
:1008C000F090190100911A0110911B01A5019401EA
:1008D000B701C801D8D587FD11C0E0901C01F09088
:1008E0001D0100911E0110911F01A5019401B70186
:1008F000C801B9D7181614F07401850120E030E062
:100900004FE753E4B701C801BED518160CF4FCC07C
:1009100020E030E0A901B701C801A5D787FF04C0D6
:10092000E12CF12C00E010E0A701B801C60111DCB8
:10093000E0911F02F09120022091200130912101CD
:1009400040912201509123016081718182819381C4
:100950009AD587FFDEC060912401709125018091B6
:1009600026019091270137DE6B017C0120E030E009
:1009700040E853E488D587FFD7C020E030E0A901E4
:10098000C701B60170D787FDCDC0C701B601ECD550
:100990006983698188E0D6DBAA24A394B12C9EE206
:1009A000C92E91E0D92EEE24E394F12C0DE211E052
:1009B00021E030E04CE251E062E273E08AE293E051
:1009C00092D3C0900902D0900A02E0900B02F090FE
:1009D0000C028FEFC81AD80AE80AF80AC092090276
:1009E000D0920A02E0920B02F0920C02C114D104E0
:1009F000E104F10499F480910D0290910E02A0910E
:100A00000F02B09110020196A11DB11D80930D023D
:100A100090930E02A0930F02B093100280901102E7
:100A200090901202A0901302B090140200911F0245
:100A30001091200260910D0270910E0280910F02C0
:100A400090911002BDD5A501940111D720E030E0AE
:100A500040E85FE40CD72B013C01C701B601B0D5DB
:100A6000A501940104D79B01AC01C301B20194D448
:100A7000F801608371838283938380911502909142
:100A80001602A0911702B09118020196A11DB11D86
:100A90008093150290931602A0931702B093180248
:100AA000892B8A2B8B2B99F48091190290911A0231
:100AB000A0911B02B0911C020196A11DB11D809353
:100AC000190290931A02A0931B02B0931C020F907C
:100AD000DF91CF911F910F91FF90EF90DF90CF901A
:100AE000BF90AF909F908F907F906F905F904F904E
:100AF0000895C12CD12C7601C701B60135D536CE6B
:100B000060E070E0CB01B2CEE12CF12C0FE713E4F2
:100B10000BCF609128017091290180912A01909159
:100B20002B0121CF198235CF8FEF898332CF8F925E
:100B30009F92AF92BF92DF92EF92FF920F931F931B
:100B4000CF93DF9384E090E0F6D0E5E8F1E084EA2B
:100B5000DF011D928A95E9F78DE192E09583848308
:100B6000CFE1D2E0D7AFC6AF01E112E0138B028B29
:100B7000F093EE01E093ED01F383E28321E030E0B6
:100B8000DC012D933C9383E391E09187808781E2A0
:100B900092E0998388834AE057ED63E27CE3F801B1
:100BA000408351836283738310922B0310922A0334
:100BB000CAEED2E080E4DE011D928A95E9F7DD24D9
:100BC000D394DCAE8091000190910101A0910201CB
:100BD000B09103018E839F83A887B987812C912CC4
:100BE0005401839489829A82AB82BC8280E090E037
:100BF000A0E8BFE38E879F87A88BB98B80E0DEDB00
:100C0000DD8218A2DEAE89A29AA2ABA2BCA261E0EC
:100C10008DE090DADDA218AADDAE1DAA89AA9AAAF3
:100C2000ABAABCAAE12CF12C8701A80197016BE0CB
:100C300070E080E090E008DB9FAB8EABDDAA18A6E9
:100C4000DFAE89A69AA6ABA6BCA661E088E072DA00
:100C5000DDA6E8AEF9AE0AAF1BAFDF91CF911F91D1
:100C60000F91FF90EF90DF90BF90AF909F908F908B
:100C700008958091EA02811103C081E08093EA0225
:100C800080910A03811103C081E080930A0380915F
:100C90001A0381112AC081E080931A0380911B03FB
:100CA00090911C03A0911D03B0911E030197A10513
:100CB000B105D9F480911F038823B9F06BE070E08F
:100CC00080E090E07DDA909321038093200340E060
:100CD00050E0BA013EDA6BE070E080E090E070DA5C
:100CE000909321038093200300DB809112038111F4
:100CF00003C081E080931203089560E070E080E813
:100D00009FE7089560E070E080E89FE7089560E065
:100D100070E080E89FEF089560E070E080E89FEF6A
:100D2000089560E070E080EC9FEF089560E070E06F
:100D300080EC9FEF0895F5DF6093380370933903DB
:100D400080933A0390933B03F1DF60932C037093FD
:100D50002D0380932E0390932F03CFDF60933403F2
:100D6000709335038093360390933703CBDF609302
:100D70003003709331038093320390933303C7DFC2
:100D800060933C0370933D0380933E0390933F0335
:100D9000C3DF6093400370934103809342039093B9
:100DA00043030895CF92DF92EF92FF92CF936B01AE
:100DB0007C01AC019B0160913403709135038091FB
:100DC0003603909137035FD3C1E0882369F0A70110
:100DD000960160913C0370913D0380913E03909198
:100DE0003F0351D38111C0E08C2FCF91FF90EF9042
:100DF000DF90CF9008950F931F938B019C010027E4
:100E0000112720783F770115110520483F4749F405
:100E1000AB01BC016F77772781E0452B462B472B31
:100E200009F480E01F910F910895E5CF0297843176
:100E3000910540F4895B9E4FFC018081082E000CD7
:100E4000990B08958FEF9FEF0895CF93DF93EC01F7
:100E500070E060E06C177D071CF0DF91CF91089582
:100E6000072E000C880B990BADD320E030E0A901D0
:100E700093D220E030E0A9018FD220E030E040E4BE
:100E800050E48AD220E030E040E450E484D267D3DA
:100E90006F5F7F4FDFCFCF93DF9380912B029091D5
:100EA0002C029ED7EC0180912F0290913002CDDF71
:100EB0008091290290912A0293D7019771F4809131
:100EC0002D0290912E02CD2B71F4019690932E025B
:100ED00080932D02DF91CF91089580912D02909102
:100EE0002E02219791F30197F1CFCF93DF93809159
:100EF000290290912A0274D7EC0180912F029091DF
:100F00003002A3DF80912B0290912C0269D70197C8
:100F100071F480912D0290912E02219771F4019627
:100F200090932E0280932D02DF91CF9108958091AE
:100F30002D0290912E02CD2B91F30197F1CFCF93FB
:100F4000DF9380913302909134024AD7EC01809173
:100F500037029091380279DF80913102909132020C
:100F60003FD7019771F48091350290913602CD2BD5
:100F700071F401969093360280933502DF91CF9100
:100F800008958091350290913602219791F301974F
:100F9000F1CFCF93DF93809131029091320220D72D
:100FA000EC0180913702909138024FDF809133023B
:100FB0009091340215D7019771F480913502909188
:100FC0003602219771F40196909336028093350290
:100FD000DF91CF9108958091350290913602CD2B0B
:100FE00091F30197F1CFCF93DF9380913B029091E2
:100FF0003C02F6D6EC0180913F029091400225DF41
:101000008091390290913A02EBD6019771F4809168
:101010003D0290913E02CD2B71F4019690933E02D9
:1010200080933D02DF91CF91089580913D02909190
:101030003E02219791F30197F1CFCF93DF938091F7
:10104000390290913A02CCD6EC0180913F02909106
:101050004002FBDE80913B0290913C02C1D6019799
:1010600071F480913D0290913E02219771F40196B6
:1010700090933E0280933D02DF91CF91089580913D
:101080003D0290913E02CD2B91F30197F1CF0F934A
:101090001F93CF93DF938C01EA0120E030E040E81A
:1010A0005FE3FB016081718182819381ECD18111C9
:1010B00015C0E88188E0E89FF0011124E75DFD4F4D
:1010C00084819581F80191838083E88188E0E89F9D
:1010D000F0011124E75DFD4F15821482DF91CF915D
:1010E0001F910F910895CF92DF92EF92FF920F938D
:1010F0001F93CF93DF937B01EA0120E030E040E8CB
:101100005FE3DB016D917D918D919C91BCD1882332
:1011100009F454C0E881D8018C9190E0B8E0EB9FCD
:10112000F0011124E75DFD4F91838083E881D601B2
:101130008C9190E0B8E0EB9FF0011124E75DFD4F4A
:1011400093838283E88128E0E29FF0011124E75D28
:10115000FD4F8081918160E0DAD5E88188E0E89FE9
:10116000F0011124E75DFD4F8281938160E0CFD5CE
:10117000E881A8E0EA9FF0011124E75DFD4F80813E
:10118000918161E000D6E881B8E0EB9FF001112485
:10119000E75DFD4F8281938161E0F5D588818130E3
:1011A00059F1A8F0823009F43BC080E090E0A0E85B
:1011B000BFE3F70180839183A283B383DF91CF9153
:1011C0001F910F91FF90EF90DF90CF900895809145
:1011D000290290912A022ADE41E050E06BE477E098
:1011E0001FD480912B0290912C0220DE41E050E030
:1011F00065E777E015D4D9CF809131029091320222
:1012000015DE41E050E06FE977E00AD480913302C7
:10121000909134020BDE41E050E069EC77E0EACFD8
:101220008091390290913A0201DE41E050E063EF93
:1012300077E0F6D380913B0290913C02F7DD41E0EC
:1012400050E06DE178E0D6CF40E052EC61E070E034
:1012500090E080E000C0892B21F426E08DE492E04C
:10126000B1C608951F920F920FB60F9211242F93BB
:101270003F934F935F936F937F938F939F93AF931E
:10128000BF93EF93FF938FE89DEF9093850080933A
:10129000840032D0FF91EF91BF91AF919F918F91D8
:1012A0007F916F915F914F913F912F910F900FBE62
:1012B0000F901F9018958FE89DEF90938500809375
:1012C0008400AFE6B0E08C918E7F8C93E0E8F0E094
:1012D00080818C7F8083E1E8F0E08081877E80835D
:1012E00080818460808380818C7F80838C91816009
:1012F0008C93089581E008958091410291E0980FC8
:1013000090934102882349F021E030E0309343027A
:10131000209342028093410208957894A7D9F894CB
:10132000809141028150F6CFCF93DF931092450315
:10133000109244032DD488DFC0914501D09146011D
:1013400019821882F4DBF894B6DF81E028813981B4
:10135000232B09F080E08093440378947894809163
:101360004403811107C085DCF89490E080E0DF91B0
:10137000CF91089581E028813981232B09F480E001
:10138000809345039091450381E0911180E0809323
:101390004403B0DFE4CF5058BB27AA270ED012C2B7
:1013A00003D230F008D220F031F49F3F11F41EF444
:1013B000F8C10EF4E095E7FBC5C1E92F14D280F324
:1013C000BA17620773078407950718F071F49EF542
:1013D00043C20EF4E0950B2EBA2FA02D0B01B901DC
:1013E00090010C01CA01A0011124FF27591B99F09B
:1013F000593F50F4503E68F11A16F040A22F232FA7
:10140000342F4427585FF3CF469537952795A795F6
:10141000F0405395C9F77EF41F16BA0B620B730B9D
:10142000840BBAF09150A1F0FF0FBB1F661F771F0E
:10143000881FC2F70EC0BA0F621F731F841F48F4C3
:10144000879577956795B795F7959E3F08F0B3CF49
:101450009395880F08F09927EE0F97958795089533
:10146000E4D180F09F3740F491110EF4F6C160E0B2
:1014700070E080E89FE3089526F01B16611D711D42
:10148000811D66C180C13AD108F481E008950CD075
:1014900099C191D140F088D130F021F45F3F19F02B
:1014A00051C15111DAC17DC19ED198F39923C9F37D
:1014B0005523B1F3951B550BBB27AA27621773075A
:1014C000840738F09F5F5F4F220F331F441FAA1F0E
:1014D000A9F333D00E2E3AF0E0E830D091505040CE
:1014E000E695001CCAF729D0FE2F27D0660F771F7C
:1014F000881FBB1F261737074807AB07B0E809F05E
:10150000BB0B802DBF01FF2793585F4F2AF09E3FF2
:10151000510568F017C1A1C15F3FECF3983EDCF3C1
:10152000869577956795B795F7959F5FC9F7880F6B
:10153000911D9695879597F90895E1E0660F771FBD
:10154000881FBB1F621773078407BA0720F0621B4E
:10155000730B840BBA0BEE1F88F7E095089504D047
:101560006894B1117AC1089546D188F09F5790F0E0
:10157000B92F9927B751A0F0D1F0660F771F881FB8
:10158000991F1AF0BA95C9F712C0B13081F064D131
:10159000B1E0089561C1672F782F8827B85F39F0CF
:1015A000B93FCCF3869577956795B395D9F73EF417
:1015B00090958095709561957F4F8F4F9F4F0895BF
:1015C000E89409C097FB3EF49095809570956195DD
:1015D0007F4F8F4F9F4F9923A9F0F92F96E9BB2793
:1015E0009395F695879577956795B795F111F8CF0F
:1015F000FAF4BB0F11F460FF1BC06F5F7F4F8F4F7A
:101600009F4F16C0882311F096E911C0772321F06F
:101610009EE8872F762F05C0662371F096E8862F07
:1016200070E060E02AF09A95660F771F881FDAF75E
:10163000880F9695879597F90895F7D080F09F3792
:1016400040F491110EF009C160E070E080E89FEB7A
:10165000089526F41B16611D711D811D79C093C06C
:10166000A3D018F011F0A7D038F49BC0F6C0E92F32
:10167000BAD0B0F35523C9F3E7FB621773078407A9
:101680009507A8F199F3E92FFF2788232AF03197CE
:10169000660F771F881FDAF7952F5527442332F0FE
:1016A00091505040220F331F441FD2F7BB27E91B34
:1016B000F50B621B730B840BB109C1F222F4620FAC
:1016C000731F841FB11D31972AF0660F771F881F83
:1016D000BB1FEFCF915050405AF041F0882332F0B9
:1016E000660F771F881F91505040C1F793954BC0EC
:1016F0008695779567959F5FD9F7F8CF990F000882
:10170000550FAA0BE0E8FEEF16161706E807F907D3
:10171000C0F012161306E407F50798F0621B730B6E
:10172000840B950B39F40A2661F0232B242B252BEF
:1017300021F408950A2609F4A140A6958FEF811D92
:10174000811D089597F99F6780E870E060E0089533
:10175000882371F4772321F09850872B762F07C0C8
:10176000662311F499270DC09051862B70E060E03C
:101770002AF09A95660F771F881FDAF7880F9695DB
:10178000879597F908959F3F31F0915020F4879500
:1017900077956795B795880F911D9695879597F9D9
:1017A00008959FEF80EC089500240A9416161706FA
:1017B00018060906089500240A9412161306140642
:1017C00005060895092E0394000C11F4882352F0A5
:1017D000BB0F40F4BF2B11F460FF04C06F5F7F4F5D
:1017E0008F4F9F4F089557FD9058440F551F59F044
:1017F0005F3F71F04795880F97FB991F61F09F3FFE
:1018000079F087950895121613061406551FF2CF26
:101810004695F1DF08C0161617061806991FF1CF76
:1018200086957105610508940895E5DFA0F0BEE78F
:10183000B91788F4BB279F3860F41616B11D672FBF
:10184000782F8827985FF7CF869577956795B11D94
:1018500093959639C8F30895E894BB2766277727B0
:10186000CB0197F908954ADF08F48FEF08950BD064
:10187000A9CF9ADF28F09FDF18F0952309F062CFF7
:1018800090CF1124EACFAFDFA0F3959FD1F3950F4E
:1018900050E0551F629FF001729FBB27F00DB11DF4
:1018A000639FAA27F00DB11DAA1F649F6627B00D84
:1018B000A11D661F829F2227B00DA11D621F739F6D
:1018C000B00DA11D621F839FA00D611D221F749F7B
:1018D0003327A00D611D231F849F600D211D822FC2
:1018E000762F6A2F11249F5750408AF0E1F0882309
:1018F0004AF0EE0FFF1FBB1F661F771F881F915016
:101900005040A9F79E3F510570F01CCFA6CF5F3F16
:10191000ECF3983EDCF3869577956795B795F79548
:10192000E7959F5FC1F7FE2B880F911D96958795D0
:1019300097F908959F9305D00F9007FCEE5F28C09C
:1019400030CF59DFE8F3E894E0E0BB279F57F0F091
:101950002AED3FE049EC06C0EE0FBB0F661F771F74
:10196000881F28F0B23A62077307840728F0B25A3A
:10197000620B730B840BE3959A9572F7803830F401
:101980009A95BB0F661F771F881FD2F79048FDCE30
:10199000EF93E0FF06C0A2EA2AED3FE049EC5FEBDF
:1019A0000CDD10DF0F90039401FC9058E8E6F0E0A6
:1019B00000C09F938F937F936F93FF93EF939B014F
:1019C000AC0155DFEF91FF9105D02F913F914F91E1
:1019D0005F914DCFDF93CF931F930F93FF92EF92C1
:1019E000DF927B018C01689405C0DA2EEF014BDF9A
:1019F000FE01E894A5912591359145915591AEF35D
:101A0000EF01DBDCFE019701A801DA9479F7DF90A2
:101A1000EF90FF900F911F91CF91DF91089508955E
:101A20008230E8F4E82FF0E0EE0FFF1FE15DFE4F9B
:101A300071836083813041F0809169008C7F482BF5
:101A400040936900E89A089580916900837F440F6C
:101A5000551F440F551F482B40936900E99A08957C
:101A60001F920F920FB60F9211242F933F934F9313
:101A70005F936F937F938F939F93AF93BF93EF93F6
:101A8000FF93E0912F01F09130010995FF91EF91C3
:101A9000BF91AF919F918F917F916F915F914F9186
:101AA0003F912F910F900FBE0F901F9018951F928E
:101AB0000F920FB60F9211242F933F934F935F9382
:101AC0006F937F938F939F93AF93BF93EF93FF9306
:101AD000E0913101F09132010995FF91EF91BF91B1
:101AE000AF919F918F917F916F915F914F913F91B6
:101AF0002F910F900FBE0F901F9018951F920F926D
:101B00000FB60F9211242F933F938F939F93AF9310
:101B1000BF938091450290914602A0914702B091F7
:101B200048023091440223E0230F2D3758F50196E7
:101B3000A11DB11D2093440280934502909346025B
:101B4000A0934702B09348028091490290914A02C3
:101B5000A0914B02B0914C020196A11DB11D809342
:101B6000490290934A02A0934B02B0934C02BF915A
:101B7000AF919F918F913F912F910F900FBE0F903A
:101B80001F90189526E8230F0296A11DB11DD2CFF4
:101B9000789484B5826084BD84B5816084BD85B548
:101BA000826085BD85B5816085BDEEE6F0E080810F
:101BB00081608083E1E8F0E0108280818260808330
:101BC000808181608083E0E8F0E0808181608083B3
:101BD000E1EBF0E0808184608083E0EBF0E08081E5
:101BE00081608083EAE7F0E0808184608083808187
:101BF000826080838081816080838081806880832F
:101C00001092C10008951F93CF93DF93182FEB011B
:101C100061E07DD0209731F460E0812FDF91CF919A
:101C20001F91B1C0CF3FD10511F461E0F6CFE12F94
:101C3000F0E0EA57FF4FE491E33031F140F4E13056
:101C4000B1F0E230E1F0C038D1057CF7E5CFE73004
:101C500029F1E83059F1E430B1F7809180008062D9
:101C600080938000D0938B00C0938A0004C084B519
:101C7000806884BDC7BDDF91CF911F91089584B561
:101C8000806284BDC8BDF7CF80918000806880935A
:101C90008000D0938900C0938800EDCF8091B00080
:101CA00080688093B000C093B300E5CF8091B0000E
:101CB00080628093B000C093B400DDCF833081F0A8
:101CC00028F4813099F08230A9F008958730A9F086
:101CD0008830C9F08430B1F4809180008F7D03C0DA
:101CE000809180008F7780938000089584B58F77EE
:101CF00084BD089584B58F7DFBCF8091B0008F7730
:101D00008093B00008958091B0008F7DF9CFCF937C
:101D1000DF9390E0FC01E656FF4F249182559F4FE0
:101D2000FC0184918823C9F090E0880F991FFC0181
:101D3000EA52FF4FA591B491FC01E453FF4FC591C6
:101D4000D49161110DC09FB7F8948C912095822396
:101D50008C938881282328839FBFDF91CF9108959A
:101D6000623051F49FB7F8943C91822F8095832381
:101D70008C93E8812E2BEFCF8FB7F894EC912E2B1C
:101D80002C938FBFEACF1F93CF93DF93282F30E0A0
:101D9000F901EA57FF4F8491F901E656FF4FD491BC
:101DA000F901E255FF4FC491CC23A1F0162F811108
:101DB00085DFEC2FF0E0EE0FFF1FE453FF4FA591FE
:101DC000B4918FB7F894EC91111108C0D095DE232F
:101DD000DC938FBFDF91CF911F910895DE2BF8CF59
:101DE000CF93DF93282F30E0F901EA57FF4F84911A
:101DF000F901E656FF4FD491F901E255FF4FC49126
:101E0000CC2399F081115ADFEC2FF0E0EE0FFF1F89
:101E1000EE53FF4FA591B491EC91ED2381E090E05A
:101E200009F480E0DF91CF91089580E090E0FACF4F
:101E3000FC01918D228D892F90E0805C9F4F821B49
:101E400091098F7399270895FC01918D828D9817C0
:101E500031F0828DE80FF11D858D90E008958FEFB0
:101E60009FEF0895FC01918D828D981761F0A28DEE
:101E7000AE0FBF2FB11D5D968C91928D9F5F9F73AA
:101E8000928F90E008958FEF9FEF0895FC01538D9E
:101E9000448D252F30E0842F90E0821B930B541744
:101EA00010F0CF96089501970895FC01A48DA80F16
:101EB000B92FB11DA35ABF4F2C91848D90E001968C
:101EC0008F739927848FA689B7892C93A089B189AC
:101ED0008C91837080648C93938D848D981306C04D
:101EE0000288F389E02D80818F7D80830895CF93D0
:101EF000DF93EC01888D8823B1F0AA89BB89E8893A
:101F0000F9898C9185FD03C0808186FD0CC00FB6D8
:101F100007FCF7CF8C9185FFF2CF808185FFEDCF55
:101F2000CE01C3DFEACFDF91CF910895EF92FF9208
:101F30000F931F93CF93DF93EC0181E0888F9B8DEC
:101F40008C8D98131AC0E889F989808185FF15C0A6
:101F50009FB7F894EE89FF896083E889F9898081C9
:101F60008370806480839FBF81E090E0DF91CF9198
:101F70001F910F91FF90EF900895F62E0B8D10E0BA
:101F80000F5F1F4F0F731127E02E8C8D8E110BC02A
:101F90000FB607FCFACFE889F989808185FFF5CF74
:101FA000CE0183DFF2CFEB8DEC0FFD2FF11DE35A55
:101FB000FF4FF0829FB7F8940B8FEA89FB898081ED
:101FC0008062D0CFCF92DF92EF92FF921F93CF9398
:101FD000DF93EC016A017B01122FE889F98982E025
:101FE0008083C11481EED806E104F10499F060E029
:101FF00079E08DE390E0A7019601F9D221503109F3
:10200000410951095695479537952795211580E146
:10201000380790F0E889F989108260E874E88EE169
:1020200090E0A7019601E3D22150310941095109FD
:102030005695479537952795EC85FD853083EE8538
:10204000FF852083188EEC89FD891083EA89FB893E
:10205000808180618083EA89FB89808188608083B8
:10206000EA89FB89808180688083EA89FB89808195
:102070008F7D8083DF91CF911F91FF90EF90DF9054
:10208000CF9008951F920F920FB60F9211242F93A5
:102090008F939F93EF93FF93E0915D02F0915E0227
:1020A0008081E0916302F091640282FD1BC0908107
:1020B000809166028F5F8F7320916702821741F0D3
:1020C000E0916602F0E0E35BFD4F958F809366023E
:1020D000FF91EF919F918F912F910F900FBE0F90D5
:1020E0001F9018958081F4CF1F920F920FB60F9218
:1020F00011242F933F934F935F936F937F938F930D
:102100009F93AF93BF93EF93FF938DE492E0CDDE67
:10211000FF91EF91BF91AF919F918F917F916F91BF
:102120005F914F913F912F910F900FBE0F901F9095
:102130001895EDE4F2E01382128288EE93E0A0E0BD
:10214000B0E084839583A683B7838FE591E0918384
:10215000808385EC90E09587848784EC90E0978776
:10216000868780EC90E0918B808B81EC90E0938B64
:10217000828B82EC90E0958B848B86EC90E0978B41
:10218000868B118E128E138E148E0895AF92BF928D
:10219000CF92DF92EF92FF920F931F93CF93DF9333
:1021A0006C017B018B01040F151FEB015E01AE1862
:1021B000BF08C017D10759F06991D601ED91FC9184
:1021C0000190F081E02DC6010995892B79F7C501B1
:1021D000DF91CF911F910F91FF90EF90DF90CF9003
:1021E000BF90AF900895FB0101900020E9F731976F
:1021F000AF01461B570BDC01ED91FC910280F3818E
:10220000E02D09946115710509F0EDCF90E080E0B3
:102210000895DC01ED91FC910190F081E02D09948D
:102220006DE671E0E0CF8F929F92AF92BF92EF92F6
:10223000FF920F931F93CF93DF93CDB7DEB7A19794
:102240000FB6F894DEBF0FBECDBF7C01FA01CB0103
:1022500019A2223008F42AE08E010F5D1F4F822E52
:10226000912CB12CA12CBF01A5019401C0D1F90181
:10227000CA016A3004F5605DD8016E938D01232B8D
:10228000242B252B81F790E080E0109719F0BD01F9
:10229000C701A9DFA1960FB6F894DEBF0FBECDBF70
:1022A000DF91CF911F910F91FF90EF90BF90AF9072
:1022B0009F908F900895695CDFCFCF92DF92EF926D
:1022C000FF920F931F93CF93DF932115310581F474
:1022D000DC01ED91FC910190F081E02D642FDF9104
:1022E000CF911F910F91FF90EF90DF90CF900994C5
:1022F0002A303105F1F42AE077FF1BC06A017B0127
:10230000EC016DE286DF8C0144275527BA014C1998
:102310005D096E097F092AE0CE0185DF800F911FDC
:10232000DF91CF911F910F91FF90EF90DF90CF90B1
:102330000895DF91CF911F910F91FF90EF90DF9063
:10234000CF9071CF9A01AB01770F660B770BB5CFAA
:102350000F931F93CF93DF93EC01F4DF8C01CE0139
:102360005FDF800F911FDF91CF911F910F91089533
:102370000F931F93CF93DF93EC019FDF8C01CE016E
:102380004FDF800F911FDF91CF911F910F91089523
:102390002115310541F4DC01ED91FC910190F081B2
:1023A000E02D642F09943FCF9A01462F50E070E052
:1023B00060E0EECF0F931F93CF93DF93EC01F4DF38
:1023C0008C01CE012DDF800F911FDF91CF911F91E6
:1023D0000F9108959A01AB0170E060E0D9CF0F939F
:1023E0001F93CF93DF93EC01F5DF8C01CE0118DF53
:1023F000800F911FDF91CF911F910F9108950F933F
:102400001F93CF93DF93EC01C3DF8C01CE0108DF74
:10241000800F911FDF91CF911F910F9108952F92FF
:102420003F924F925F926F927F928F929F92AF9264
:10243000BF92CF92DF92EF92FF921F93CF93DF93E1
:10244000EC016A017B01722EAB019601CB01B60152
:10245000F6D060E771E0811123C046015701E8948E
:10246000B7F82FEF3FEF4FE75FE7C501B401E7D0C3
:1024700081110BC02FEF3FEF4FE75FE7C501B401BC
:1024800002D864E771E018165CF02FEF3FEF4FE7DA
:102490005FE4C701B601E7D91816ACF468E771E04C
:1024A000CE01DF91CF911F91FF90EF90DF90CF9001
:1024B000BF90AF909F908F907F906F905F904F9064
:1024C0003F902F9090CE2FEF3FEF4FE75FECC7018B
:1024D000B6010E94430A87FDE1CF20E030E0A90168
:1024E000C701B6010E94430A312C212C87FF08C086
:1024F0006DE2CE018EDE1C01F7FAF094F7F8F0944D
:1025000010E060E070E080E09FE3711641F020E0B1
:1025100030E040E251E40E94470A1F5FF6CFA70176
:1025200096010E94CC092B013C011ED84B015C0195
:102530002AE0BC01A401CE0176DE7C01E20CF31C92
:10254000112389F1C501B4013BD89B01AC01C30142
:10255000B2010E94CB094B015C016EE2CE0159DE53
:10256000E80EF91E1150F8F020E030E040E251E4AE
:10257000C501B4017CD92B013C010E94B40A4B0176
:102580004AE050E0CE0126DFE80EF91EB40190E0EB
:1025900080E016D89B01AC01C301B2010E94CB09B7
:1025A0004B015C01DFCFC701DF91CF911F91FF90FD
:1025B000EF90DF90CF90BF90AF909F908F907F90E3
:1025C0006F905F904F903F902F90089528CF0F937A
:1025D0001F93CF93DF93EC0122DF8C01CE0120DE2D
:1025E000800F911FDF91CF911F910F910895A1E26C
:1025F0001A2EAA1BBB1BFD010DC0AA1FBB1FEE1F7D
:10260000FF1FA217B307E407F50720F0A21BB30BC7
:10261000E40BF50B661F771F881F991F1A9469F743
:1026200060957095809590959B01AC01BD01CF019F
:102630000895EE0FFF1F0590F491E02D09945ED8E8
:0A264000880B990B0895F894FFCF62
:10264A000000000000803B45000048450000C842E9
:10265A000000AA410000000000007F4300000000C3
:10266A000000000000000000000000000002030F4C
:10267A000D0F0D4669786564537465704469736318
:10268A00726574650085010001FFFFFFFFFFFFFF10
:10269A00FFFFFFFFFFFFFF05040302000000009693
:1026AA000FC610460F770F180F320F240F0D0A00AE
:0C26BA006E616E00696E66006F7666004F
:00000001FF
