:1000000061C000000C945B0F0C94820F83C0000051
:1000100081C000007FC000007DC000007BC00000E8
:1000200079C0000077C0000075C0000073C00000F8
:1000300071C000000C94BF0B6DC000006BC00000CD
:100040000C94A90F67C000000C946D120C949F12C1
:1000500061C000005FC000005DC000005BC0000028
:1000600059C0000057C00000000000080002010055
:100070000003040700000000000000000102040863
:100080001020408001020408102001020408102002
:10009000040404040404040402020202020203032E
:1000A00003030303000000002300260029000000D2
:1000B0000000250028002B0000000000240027007D
:1000C0002A00C41211241FBECFEFD8E0DEBFCDBF7F
:1000D00011E0A0E0B1E0E8E9FAE202C005900D927B
:1000E000AC38B107D9F723E0ACE8B1E001C01D920C
:1000F000AE38B207E1F710E0C2E6D0E004C02197C5
:10010000FE010E944015C136D107C9F70E94220C9A
:100110000C944A1575CF611102C00C94B210613075
:10012000E1F362E0FACF662319F061E00C94EE107F
:1001300060E0FCCFCF92DF92EF92FF92CF938823C3
:1001400051F16A017B01CFEFC80F20E030E0A90137
:10015000CB01B6010E94E30C87FF11C0C701B601B5
:1001600090580E94540D9B01AC016C2F70E090E000
:1001700080E0CF91FF90EF90DF90CF90B2C0C701A9
:10018000B6010E944F0D8C2FCF91FF90EF90DF9022
:10019000CF900C942E10CF91FF90EF90DF90CF90E6
:1001A00008950F931F938B019C0183E0369527954B
:1001B000179507958A95D1F704571E4F462F47701C
:1001C00021E030E0F90102C0EE0FFF1F4A95E2F78F
:1001D000AF01F80120812423CB010196211102C037
:1001E00090E080E01F910F9108950F931F938B0172
:1001F0009C0183E036952795179507958A95D1F749
:10020000677081E090E001C0880F6A95EAF7F80115
:10021000E457FE4F2081452B31F480958223808363
:100220001F910F910895822BFACF2F923F924F92F8
:100230005F926F927F928F929F92AF92BF92CF9276
:10024000DF92EF92FF920F931F93CF93DF93D62EFF
:10025000C72E782E692E49015A01280161E08D2DA3
:100260000E94B210CD2DDC2D8E010F5F1F4FA80113
:100270006D2D7C2D872D962DB8DF20E030E0A90173
:10028000C201B7010E94D30E181664F4C201B7016F
:100290000E94540D2B01C501B4010E94540DA2010E
:1002A000CE0123D0C801DF91CF911F910F91FF9014
:1002B000EF90DF90CF90BF90AF909F908F907F9006
:1002C0006F905F904F903F902F900895882341F05A
:1002D0008150682F70E090E080E050E040E085CFF2
:1002E0000895862FB9010C942E109C01FC01E85949
:1002F000FF4FE491E33061F140F4E13011F1E2307D
:1003000021F160E0822F0C94EE10E730C1F1E8306B
:1003100009F441C0E430A9F7809180008C7F8260AD
:100320008093800090918100907E9061692B609312
:100330008100509387004093860080918000806206
:100340001BC084B5806884BDDCCF84B58062FBCFE0
:10035000809180008C7F82608093800090918100EA
:10036000907E9061692B6093810050938700409349
:10037000860080918000806880938000C2CF809149
:10038000B00080688093B0008091B100887F682BB6
:100390006093B100B6CF8091B0008062F3CF089532
:1003A0004F925F926F927F928F929F92AF92BF9285
:1003B000CF92EF92FF920F931F93CF93DF93CDB71E
:1003C000DEB72B013A01F02E9C2DB40130E028302D
:1003D000310511F424E030E00AE010E0992351F0F7
:1003E00000E110E0913031F008E010E0923011F0BF
:1003F00002E010E08111D0C0F1101BC0269DA001C9
:10040000279D500D369D500D1124B20189E892E0D0
:10041000DF91CF911F910F91FF90EF90CF90BF9000
:10042000AF909F908F907F906F905F904F900C94C3
:10043000F11289E892E00E942D13E11015C0640CBE
:10044000751C6414750409F4A7C0F20161912F01B1
:10045000F1E0A80189E892E0FF1203C00E94FF13B7
:10046000F0CF0E940514EDCF81E0E81215C0E1E065
:100470006E1A710808F490C0F201619171912F0118
:10048000F1E0A80189E892E0FF1203C00E94151470
:10049000EECF0E941A14EBCF82E0E81217C0E1E021
:1004A0006E1A710808F478C0F2014191519161917E
:1004B00071912F01F1E0980189E892E0FF1203C0E9
:1004C0000E94F313ECCF0E942A14E9CF83E0E812D4
:1004D00018C0640C751C4614570409F45DC0F20181
:1004E00061912F01062E000C770BF1E0A80189E83D
:1004F00092E0FF1203C00E94CD13EDCF0E94D313F0
:10050000EACF84E0E81215C0E1E06E1A710808F441
:1005100043C0F201619171912F01F1E0A80189E8D6
:1005200092E0FF1203C00E94CD13EECF0E94D313BE
:10053000EBCF85E0E81216C0E1E06E1A710860F1B9
:10054000F20141915191619171912F01F1E0980176
:1005500089E892E0FF1203C00E948813EDCF0E9449
:10056000E313EACF86E0E81217C0B12CE1E06E1A7F
:10057000710890F0F20141915191619171912F01B7
:10058000F1E0950189E892E0FF1203C00E940D1589
:10059000EDCF0E940E15EACFDF91CF911F910F9101
:1005A000FF90EF90CF90BF90AF909F908F907F90F3
:1005B0006F905F904F900895CF92DF92EF92FF92ED
:1005C0006B017C019F7720E030E040E859E50E9414
:1005D000E30C87FF2BC020E030E040E05FE3C70181
:1005E000B6010E94D30E87FD0EC020E030E040E04F
:1005F0005FE3C701B6010E946C0CFF90EF90DF90A3
:10060000CF900C94BD0D20E030E040E05FEBC701DF
:10061000B6010E94D30E181684F420E030E0A90140
:10062000C701B6010E94D70E6B017C01C701B6015C
:10063000FF90EF90DF90CF90089520E030E040E011
:100640005FE3C701B6010E946B0CFF90EF90DF9053
:10065000CF900C94D00CCF93DF93C0911F02D09118
:1006600020022091700330917103409172035091E8
:100670007303609118017091190180911A01909192
:100680001B010E94D70E20916A0330916B034091A9
:100690006C0350916D030E946C0C688379838A838C
:1006A0009B83DF91CF9108952F923F924F925F925B
:1006B0006F927F928F929F92AF92BF92CF92DF9272
:1006C000EF92FF920F931F93CF93DF93CDB7DEB7D7
:1006D00061970FB6F894DEBF0FBECDBF8091580270
:1006E000909159028130910509F017C1809144021F
:1006F00090914502A0914602B091470280904C0231
:1007000090904D02A0904E02B0904F02C0904802CF
:10071000D0904902E0904A02F0904B028F3F2FEFB9
:100720009207A207B20709F0D6C0C701B6016F5FF2
:100730007F4F8F4F9F4F0E94800DA50194010E9413
:10074000D70E20E030E040E85FE40E94D70E6093CF
:10075000A3017093A4018093A5019093A601AA24FC
:10076000A394B12C9AE4C92E91E0D92EEE24E394FF
:10077000F12C09E411E021E030E048E451E06EE5BD
:1007800073E08EE693E010D760916E0370916F0373
:10079000072E000C880B990B0E94820D20910401FA
:1007A0003091050140910601509107010E94D70E3A
:1007B000209108013091090140910A0150910B01EB
:1007C0000E94E70C6B017C01C0926603D092670324
:1007D000E0926803F092690380900001909001011B
:1007E000A0900201B0900301A501940160912C0337
:1007F00070912D0380912E0390912F030E94E30CA2
:1008000081119CC3C701B6010E94BD0D6B017C0123
:1008100099D581119CC3C701B60151D5811197C3E8
:1008200020E030E040E853E4C701B6010E94D70D54
:100830006B017C0120E030E0A9010E94E30C87FFFE
:1008400089C3C701B60190580E94540D6195698310
:100850006091400370914103809142039091430362
:100860000E94540DC62E6091380370913903809117
:100870003A0390913B030E94540DE62E60913C0395
:1008800070913D0380913E0390913F030E94540D6F
:10089000062F609134037091350380913603909157
:1008A00037030E94540D162F60913003709131036D
:1008B00080913203909133030E94540D862F912C26
:1008C000812C62E0A62E212F41E050E0BE016F5F37
:1008D0007F4F66DD37C0BC01CD016F5F7F4F8F4F0B
:1008E0009F4F0E94800DA50194010E94D70E2B01FD
:1008F0003C01C701B6010E94800DA50194010E9430
:10090000D70E20E030E040E85FE40E94D70E9B0164
:10091000AC01C301B201E0D71ACF892B99F4E09161
:10092000D301F091D4010190F081E02D808191817B
:10093000A281B381E0915B02F0915C02808391839C
:10094000A283B383E0915B02F0915C02408051800E
:1009500062807380A301920160910C0170910D017E
:1009600080910E0190910F010E94D30E18160CF089
:10097000F5C2609110017091110180911201909166
:1009800013012091660330916703409168035091F1
:100990006903A1D76B017C01C0926A03D0926B03FB
:1009A000E0926C03F0926D0320917003309171031B
:1009B000409172035091730360911C0170911D016D
:1009C00080911E0190911F010E94D70E4B015C0186
:1009D0002091200130912101409122015091230169
:1009E000C701B6010E94D70E9B01AC01C501B4013D
:1009F00073D75B016C01E0902401F0902501009118
:100A00002601109127019B01AC01B701C801DBD77A
:100A100087FD12C0E0902801F090290100912A0181
:100A200010912B019501A601B701C8010E94D30EB8
:100A3000181614F07501860120912C0130912D01BA
:100A400040912E0150912F01B701C8010E94D70E8D
:100A50006B017C01AC019B0160913001709131010F
:100A60008091320190913301AED7682F661F6627BF
:100A7000661F8DE058DB6BE070E080E090E091DB7A
:100A80004C0190935D0380935C03E0915B02F091D5
:100A90005C0220E030E040E251E4608171818281BB
:100AA000938191D7E894F7F887FD03C0C12CD12C2E
:100AB0007601A0903401B09035010091360110917B
:100AC0003701A7019601B501C8017DD787FD12C086
:100AD000A0903801B090390100913A0110913B018A
:100AE000A7019601B501C8010E94D30E181614F093
:100AF0005601870120E030E04FE753E4B501C8011B
:100B000062D718160CF433C220E030E0A901B50119
:100B1000C8010E94D30E87FD2FC2A501B801C401F0
:100B200009DBA301920160913C0170913D0180912C
:100B30003E0190913F010E94D30E18160CF021C285
:100B40006091400170914101809142019091430177
:100B500033DD6B017C0120E030E040E853E433D723
:100B600087FF1AC220E030E0A901C701B6010E9448
:100B7000D30E87FD0FC2C701B60196D7698369817D
:100B800088E0D1DA80915802909159020197A9F436
:100B9000AA24A394B12C4AE4C42E41E0D42EEE241E
:100BA000E394F12C09E411E021E030E048E451E065
:100BB0006EE573E08EE693E023D580915802909124
:100BC00059029D878C87019709F09FC1E091D3015D
:100BD000F091D4010190F081E02D4080518062803D
:100BE00073808091A3019091A401A091A501B0917F
:100BF000A6018E879F87A88BB98BE091A701F09102
:100C0000A801C080D180E280F380E091D701F0910B
:100C1000D80100811181E0919B01F0919C01A0819C
:100C2000B181BF83AE83228033808481958199878F
:100C30008887A681B781BB87AA87E0919901F09147
:100C40009A011182108284E0F801AE81BF81019087
:100C50000D928A95E1F7E091D101F091D2013182B4
:100C60002082F9DC20E030E040E05FE3C701B6011C
:100C70000E94D70E4B015C01F1012081318142813C
:100C800053810E94D70EAE81BF812D913D914D9130
:100C90005C9122D6F8016083718382839383E09113
:100CA000D301F091D401808191819B838A83A50136
:100CB0009401C301B20110D6AA81BB816D937D93CB
:100CC0008D939C931397E091D101F091D201888587
:100CD000998591838083E8DCBEDC20E030E040E44D
:100CE0005FE3C701B6010E94D70E4B015C0120E013
:100CF00030E0A901C701B6010E94D70ED1012D91A4
:100D00003D914D915C910E94D70E6A837B838C83C9
:100D10009D83E885F9852081318142815381C50118
:100D2000B4010E94D70E9B01AC016A817B818C814A
:100D30009D81D2D5AE81BF812D913D914D915C9128
:100D4000CBD5F8016083718382839383E091D301D3
:100D5000F091D401808191819B838A83A5019401C4
:100D6000C301B201B9D5AA81BB816D937D938D93E7
:100D70009C931397E091D101F091D2018A859B85D4
:100D80009183808391DC67DC29E33EE843E65EE300
:100D9000C701B6010E94D70ED1012D913D914D9111
:100DA0005C910E94D70E4B015C012BEA3AEA4AEAB9
:100DB0005EE3C701B601FBD7E885F9852081318163
:100DC00042815381F4D79B01AC01C501B40184D5A4
:100DD0004B015C0129E33EE843EE5EE3C701B60147
:100DE000E6D7AA85BB852D913D914D915C91DFD7CA
:100DF0009B01AC01C501B4016FD5EE81FF8120815B
:100E000031814281538168D5D8016D937D938D9353
:100E10009C931397E091D301F091D4010190F0815C
:100E2000E02D8E859F85A889B98980839183A283CF
:100E3000B383E0919901F0919A01AC85BD85B183AE
:100E4000A0838091440290914502A0914602B09106
:100E500047020196A11DB11D809344029093450263
:100E6000A0934602B0934702892B8A2B8B2B99F4CF
:100E70008091480290914902A0914A02B0914B02A0
:100E80000196A11DB11D8093480290934902A09341
:100E90004A02B0934B028091A3019091A401A091CA
:100EA000A501B091A601E0915B02F0915C02808304
:100EB0009183A283B3838091500290915102A091BB
:100EC0005202B09153020196A11DB11D80935002B0
:100ED00090935102A0935202B0935302892B8A2B14
:100EE0008B2B99F48091540290915502A091560257
:100EF000B09157020196A11DB11D809354029093A9
:100F00005502A0935602B093570261960FB6F8941B
:100F1000DEBF0FBECDBFDF91CF911F910F91FF902C
:100F2000EF90DF90CF90BF90AF909F908F907F9089
:100F30006F905F904F903F902F90089580922C0378
:100F400090922D03A0922E03B0922F035BCCC12C64
:100F5000D12C7601C701B601A7D579CC60911401D7
:100F60007091150180911601909117010ACDA12C65
:100F7000B12C0FE713E4D1CDA12CB12C00E010E08F
:100F8000CCCD6091440170914501809146019091D2
:100F90004701DECD1982F3CD8FEF8983F0CD8F929B
:100FA0009F92AF92BF92DF92EF92FF920F931F93A7
:100FB000CF93DF9384E090E04BD1E5E9F1E080ED61
:100FC000DF011D928A95E9F7A8E5B2E0B583A48315
:100FD0008BE592E097AF86AFCCE4D2E0D38BC28BA7
:100FE0002FE132E035AF24AF49E152E05093D80110
:100FF0004093D7012EE332E03093D6012093D50100
:1010000020E432E03093DA012093D9012BE132E081
:101010003093DC012093DB012DE132E03093DE01DF
:101020002093DD01F093FE01E093FD01F383E28361
:1010300021E030E02D933C9326E332E066E272E05B
:10104000D9016D937C936AE272E0709339026093E8
:1010500038026EE272E070933B0260933A0262E300
:1010600072E070933D0260933C0200E713E0DA0106
:101070000D931C93378326832FE431E0318720873B
:101080002DE532E0FC01318320834AE057ED63E235
:101090007CE3488359836A837B83E6E6F3E08AE056
:1010A000DF011D928A95E9F784E0F80111928A9593
:1010B000E9F7C6E2D3E080E4DE011D928A95E9F704
:1010C000DD24D394DCAE8091000190910101A091C8
:1010D0000201B09103018E839F83A887B987812C79
:1010E000912C5401839489829A82AB82BC8280E0E5
:1010F00090E0A0E8BFE38E879F87A88BB98B80E044
:101100004ED9DD8218A2DEAE89A29AA2ABA2BCA201
:1011100061E08DE000D8DDA218AADDAE1DAA89AA83
:101120009AAAABAABCAAE12CF12C8701A8019701CD
:101130006BE070E080E090E078D89FAB8EABDDAAEA
:1011400018A6DFAE89A69AA6ABA6BCA661E088E089
:101150000E948B00DDA6E8AEF9AE0AAF1BAFE092AD
:101160007003F09271030093720310937303DF9185
:10117000CF911F910F91FF90EF90DF90BF90AF90B4
:101180009F908F90089580912603811103C081E084
:101190008093260380914603811103C081E08093F0
:1011A00046038091560381112DC081E08093560340
:1011B0008091570390915803A0915903B0915A031D
:1011C0000197A105B105F1F480915B038823D1F06B
:1011D0006BE070E080E090E00E94D10090935D03AE
:1011E00080935C0340E050E0BA010E949A006BE0FB
:1011F00070E080E090E00E94D10090935D038093C6
:101200005C0364D880914E03811103C081E0809318
:101210004E03089560E070E080E89FE7089560E085
:1012200070E080E89FE7089560E070E080E89FEF5D
:10123000089560E070E080E89FEF089560E070E05E
:1012400080EC9FEF089560E070E080EC9FEF0895E0
:10125000F5DF609380037093810380938203909302
:101260008303F1DF609374037093750380937603B7
:1012700090937703CFDF60937C0370937D0380931B
:101280007E0390937F03CBDF6093780370937903A1
:1012900080937A0390937B03C7DF609384037093FA
:1012A00085038093860390938703C3DF609388034D
:1012B0007093890380938A0390938B030895CF9250
:1012C000DF92EF92FF92CF936B017C01AC019B0107
:1012D00060917C0370917D0380917E0390917F03E8
:1012E00072D3C1E0882369F0A7019601609184035D
:1012F00070918503809186039091870364D3811157
:10130000C0E08C2FCF91FF90EF90DF90CF900895A9
:101310000F931F938B019C010027112720783F77A3
:101320000115110520483F4749F4AB01BC016F7717
:10133000772781E0452B462B472B09F480E01F914E
:101340000F910895E5CF02978431910540F48A5AB0
:101350009E4FFC018081082E000C990B08958FEFA1
:101360009FEF0895CF93DF93EC0170E060E06C177E
:101370007D071CF0DF91CF910895072E000C880B9C
:10138000990BC0D320E030E0A901A6D220E030E0E4
:10139000A901A2D220E030E040E450E49DD220E058
:1013A00030E040E450E497D27AD36F5F7F4FDFCFD5
:1013B000CF93DF9380916702909168023CD7EC0154
:1013C00080916B0290916C02CDDF809165029091CB
:1013D000660231D7019771F48091690290916A0297
:1013E000CD2B71F4019690936A0280936902DF918C
:1013F000CF9108958091690290916A02219791F3AB
:101400000197F1CFCF93DF938091650290916602AF
:1014100012D7EC0180916B0290916C02A3DF809156
:1014200067029091680207D7019771F48091690271
:1014300090916A02219771F4019690936A028093C9
:101440006902DF91CF9108958091690290916A02BB
:10145000CD2B91F30197F1CFCF93DF9380916F0262
:1014600090917002E8D6EC01809173029091740221
:1014700079DF80916D0290916E02DDD6019771F453
:101480008091710290917202CD2B71F4019690932C
:10149000720280937102DF91CF9108958091710261
:1014A00090917202219791F30197F1CFCF93DF933F
:1014B00080916D0290916E02BED6EC018091730214
:1014C000909174024FDF80916F0290917002B3D6B9
:1014D000019771F48091710290917202219771F4D9
:1014E00001969093720280937102DF91CF910895DB
:1014F0008091710290917202CD2B91F30197F1CFFF
:10150000CF93DF93809177029091780294D6EC018B
:1015100080917B0290917C0225DF809175029091F1
:10152000760289D6019771F48091790290917A02BE
:10153000CD2B71F4019690937A0280937902DF911A
:10154000CF9108958091790290917A02219791F339
:101550000197F1CFCF93DF9380917502909176023E
:101560006AD6EC0180917B0290917C02FBDE809137
:101570007702909178025FD6019771F48091790299
:1015800090917A02219771F4019690937A02809358
:101590007902DF91CF9108958091790290917A023A
:1015A000CD2B91F30197F1CF0F931F93CF93DF933F
:1015B0008C01EA0120E030E040E85FE3FB0160815C
:1015C000718182819381FFD1811115C0E88188E00A
:1015D000E89FF0011124EB59FD4F84819581F801BA
:1015E00091838083E88188E0E89FF0011124EB5922
:1015F000FD4F15821482DF91CF911F910F910895B5
:10160000CF92DF92EF92FF920F931F93CF93DF93CE
:101610007B01EA0120E030E040E85FE3DB016D910F
:101620007D918D919C91CFD1882309F454C0E8819C
:10163000D8018C9190E0B8E0EB9FF0011124EB59B8
:10164000FD4F91838083E881D6018C9190E0B8E0D2
:10165000EB9FF0011124EB59FD4F93838283E881C6
:1016600028E0E29FF0011124EB59FD4F8081918128
:1016700060E078D5E88188E0E89FF0011124EB591B
:10168000FD4F8281938160E06DD5E881A8E0EA9FFB
:10169000F0011124EB59FD4F8081918161E09ED5CD
:1016A000E881B8E0EB9FF0011124EB59FD4F8281F6
:1016B000938161E093D58881813059F1A8F082301F
:1016C00009F43BC080E090E0A0E8BFE3F70180832D
:1016D0009183A283B383DF91CF911F910F91FF90EC
:1016E000EF90DF90CF90089580916502909166020F
:1016F0002ADE41E050E068ED79E0BDD380916702D9
:101700009091680220DE41E050E062E07AE0B3D3DD
:10171000D9CF80916D0290916E0215DE41E050E0CC
:101720006CE27AE0A8D380916F02909170020BDE98
:1017300041E050E066E57AE0EACF80917502909151
:10174000760201DE41E050E060E87AE094D38091D7
:10175000770290917802F7DD41E050E06AEA7AE0A2
:10176000D6CF40E052EC61E070E090E080E000C055
:10177000892B21F426E089E892E04FC608951F9254
:101780000F920FB60F9211242F933F934F935F93B5
:101790006F937F938F939F93AF93BF93EF93FF9339
:1017A0008FE89DEF909385008093840032D0FF9165
:1017B000EF91BF91AF919F918F917F916F915F91C9
:1017C0004F913F912F910F900FBE0F901F90189542
:1017D0008FE89DEF9093850080938400AFE6B0E0A2
:1017E0008C918E7F8C93E0E8F0E080818C7F808309
:1017F000E1E8F0E08081877E80838081846080835F
:1018000080818C7F80838C9181608C93089581E0AE
:10181000089580917D0291E0980F90937D02882336
:1018200049F021E030E030937F0220937E028093E4
:101830007D02089578940E945403F89480917D026B
:101840008150F5CF0F931F93CF93DF9310928D03A9
:1018500010928C03C8D385DFC0915401D0915501FB
:10186000198218829CDBF894B3DF88819981892BD7
:1018700031F481E0FE01EB53FF4F9081911180E044
:1018800080938C03789478948E010B531F4F809132
:101890008C03811109C077DCF89490E080E0DF913F
:1018A000CF911F910F91089588819981892B89F497
:1018B00081E0F8019081911101C080E080938D0357
:1018C00090918D0381E0911180E080938C039FDFE4
:1018D000DECF81E0F3CF5058BB27AA270ED012C22B
:1018E00003D230F008D220F031F49F3F11F41EF4FF
:1018F000F8C10EF4E095E7FBC5C1E92F14D280F3DF
:10190000BA17620773078407950718F071F49EF5FC
:1019100043C20EF4E0950B2EBA2FA02D0B01B90196
:1019200090010C01CA01A0011124FF27591B99F055
:10193000593F50F4503E68F11A16F040A22F232F61
:10194000342F4427585FF3CF469537952795A795B1
:10195000F0405395C9F77EF41F16BA0B620B730B58
:10196000840BBAF09150A1F0FF0FBB1F661F771FC9
:10197000881FC2F70EC0BA0F621F731F841F48F47E
:10198000879577956795B795F7959E3F08F0B3CF04
:101990009395880F08F09927EE0F979587950895EE
:1019A000E4D180F09F3740F491110EF4F6C160E06D
:1019B00070E080E89FE3089526F01B16611D711DFD
:1019C000811D66C180C13AD108F481E008950CD030
:1019D00099C191D140F088D130F021F45F3F19F0E6
:1019E00051C15111DAC17DC19ED198F39923C9F338
:1019F0005523B1F3951B550BBB27AA276217730715
:101A0000840738F09F5F5F4F220F331F441FAA1FC8
:101A1000A9F333D00E2E3AF0E0E830D09150504088
:101A2000E695001CCAF729D0FE2F27D0660F771F36
:101A3000881FBB1F261737074807AB07B0E809F018
:101A4000BB0B802DBF01FF2793585F4F2AF09E3FAD
:101A5000510568F017C1A1C15F3FECF3983EDCF37C
:101A6000869577956795B795F7959F5FC9F7880F26
:101A7000911D9695879597F90895E1E0660F771F78
:101A8000881FBB1F621773078407BA0720F0621B09
:101A9000730B840BBA0BEE1F88F7E095089504D002
:101AA0006894B1117AC1089546D188F09F5790F09B
:101AB000B92F9927B751A0F0D1F0660F771F881F73
:101AC000991F1AF0BA95C9F712C0B13081F064D1EC
:101AD000B1E0089561C1672F782F8827B85F39F08A
:101AE000B93FCCF3869577956795B395D9F73EF4D2
:101AF00090958095709561957F4F8F4F9F4F08957A
:101B0000E89409C097FB3EF4909580957095619597
:101B10007F4F8F4F9F4F9923A9F0F92F96E9BB274D
:101B20009395F695879577956795B795F111F8CFC9
:101B3000FAF4BB0F11F460FF1BC06F5F7F4F8F4F34
:101B40009F4F16C0882311F096E911C0772321F02A
:101B50009EE8872F762F05C0662371F096E8862FC2
:101B600070E060E02AF09A95660F771F881FDAF719
:101B7000880F9695879597F90895F7D080F09F374D
:101B800040F491110EF009C160E070E080E89FEB35
:101B9000089526F41B16611D711D811D79C093C027
:101BA000A3D018F011F0A7D038F49BC0F6C0E92FED
:101BB000BAD0B0F35523C9F3E7FB62177307840764
:101BC0009507A8F199F3E92FFF2788232AF0319789
:101BD000660F771F881FDAF7952F5527442332F0B9
:101BE00091505040220F331F441FD2F7BB27E91BEF
:101BF000F50B621B730B840BB109C1F222F4620F67
:101C0000731F841FB11D31972AF0660F771F881F3D
:101C1000BB1FEFCF915050405AF041F0882332F073
:101C2000660F771F881F91505040C1F793954BC0A6
:101C30008695779567959F5FD9F7F8CF990F00083C
:101C4000550FAA0BE0E8FEEF16161706E807F9078E
:101C5000C0F012161306E407F50798F0621B730B29
:101C6000840B950B39F40A2661F0232B242B252BAA
:101C700021F408950A2609F4A140A6958FEF811D4D
:101C8000811D089597F99F6780E870E060E00895EE
:101C9000882371F4772321F09850872B762F07C083
:101CA000662311F499270DC09051862B70E060E0F7
:101CB0002AF09A95660F771F881FDAF7880F969596
:101CC000879597F908959F3F31F0915020F48795BB
:101CD00077956795B795880F911D9695879597F994
:101CE00008959FEF80EC089500240A9416161706B5
:101CF00018060906089500240A94121613061406FD
:101D000005060895092E0394000C11F4882352F05F
:101D1000BB0F40F4BF2B11F460FF04C06F5F7F4F17
:101D20008F4F9F4F089557FD9058440F551F59F0FE
:101D30005F3F71F04795880F97FB991F61F09F3FB8
:101D400079F087950895121613061406551FF2CFE1
:101D50004695F1DF08C0161617061806991FF1CF31
:101D600086957105610508940895E5DFA0F0BEE74A
:101D7000B91788F4BB279F3860F41616B11D672F7A
:101D8000782F8827985FF7CF869577956795B11D4F
:101D900093959639C8F30895E894BB27662777276B
:101DA000CB0197F908954ADF08F48FEF08950BD01F
:101DB000A9CF9ADF28F09FDF18F0952309F062CFB2
:101DC00090CF1124EACFAFDFA0F3959FD1F3950F09
:101DD00050E0551F629FF001729FBB27F00DB11DAF
:101DE000639FAA27F00DB11DAA1F649F6627B00D3F
:101DF000A11D661F829F2227B00DA11D621F739F28
:101E0000B00DA11D621F839FA00D611D221F749F35
:101E10003327A00D611D231F849F600D211D822F7C
:101E2000762F6A2F11249F5750408AF0E1F08823C3
:101E30004AF0EE0FFF1FBB1F661F771F881F9150D0
:101E40005040A9F79E3F510570F01CCFA6CF5F3FD1
:101E5000ECF3983EDCF3869577956795B795F79503
:101E6000E7959F5FC1F7FE2B880F911D969587958B
:101E700097F9089508958230E8F4E82FF0E0EE0F26
:101E8000FF1FE55BFE4F71836083813041F08091DD
:101E900069008C7F482B40936900E89A08958091EF
:101EA0006900837F440F551F440F551F482B4093F3
:101EB0006900E99A08951F920F920FB60F921124AC
:101EC0002F933F934F935F936F937F938F939F9342
:101ED000AF93BF93EF93FF93E0914B01F0914C01CF
:101EE0000995FF91EF91BF91AF919F918F917F9154
:101EF0006F915F914F913F912F910F900FBE0F9077
:101F00001F9018951F920F920FB60F9211242F93C6
:101F10003F934F935F936F937F938F939F93AF9371
:101F2000BF93EF93FF93E0914D01F0914E0109951E
:101F3000FF91EF91BF91AF919F918F917F916F91A1
:101F40005F914F913F912F910F900FBE0F901F9077
:101F500018951F920F920FB60F9211242F933F9353
:101F60008F939F93AF93BF93809181029091820250
:101F7000A0918302B09184023091800223E0230F6C
:101F80002D3758F50196A11DB11D20938002809335
:101F9000810290938202A0938302B0938402809185
:101FA000850290918602A0918702B09188020196E5
:101FB000A11DB11D8093850290938602A093870294
:101FC000B0938802BF91AF919F918F913F912F91D4
:101FD0000F900FBE0F901F90189526E8230F0296C2
:101FE000A11DB11DD2CF789484B5826084BD84B523
:101FF000816084BD85B5826085BD85B5816085BD04
:10200000EEE6F0E0808181608083E1E8F0E010821C
:10201000808182608083808181608083E0E8F0E05D
:10202000808181608083E1EBF0E080818460808347
:10203000E0EBF0E0808181608083EAE7F0E080817E
:1020400084608083808182608083808181608083DE
:102050008081806880831092C10008951F93CF9380
:10206000DF93182FEB0161E07DD0209731F460E021
:10207000812FDF91CF911F91B1C0CF3FD10511F4D6
:1020800061E0F6CFE12FF0E0E859FF4FE491E33053
:1020900031F140F4E130B1F0E230E1F0C038D10587
:1020A0007CF7E5CFE73029F1E83059F1E430B1F7BA
:1020B00080918000806280938000D0938B00C093D9
:1020C0008A0004C084B5806884BDC7BDDF91CF910C
:1020D0001F91089584B5806284BDC8BDF7CF8091FB
:1020E0008000806880938000D0938900C09388002E
:1020F000EDCF8091B00080688093B000C093B300B2
:10210000E5CF8091B00080628093B000C093B400AE
:10211000DDCF833081F028F4813099F08230A9F04E
:1021200008958730A9F08830C9F08430B1F48091E7
:1021300080008F7D03C0809180008F778093800026
:10214000089584B58F7784BD089584B58F7DFBCFC6
:102150008091B0008F778093B00008958091B00097
:102160008F7DF9CFCF93DF9390E0FC01E458FF4FD0
:10217000249180579F4FFC0184918823C9F090E0FF
:10218000880F991FFC01E854FF4FA591B491FC0101
:10219000E255FF4FC591D49161110DC09FB7F894DE
:1021A0008C91209582238C938881282328839FBF3C
:1021B000DF91CF910895623051F49FB7F8943C912C
:1021C000822F809583238C93E8812E2BEFCF8FB7BE
:1021D000F894EC912E2B2C938FBFEACF1F93CF93C3
:1021E000DF93282F30E0F901E859FF4F8491F9017E
:1021F000E458FF4FD491F901E057FF4FC491CC232D
:10220000A1F0162F811185DFEC2FF0E0EE0FFF1FFC
:10221000E255FF4FA591B4918FB7F894EC9111114D
:1022200008C0D095DE23DC938FBFDF91CF911F9143
:102230000895DE2BF8CFCF93DF93282F30E0F901FC
:10224000E859FF4F8491F901E458FF4FD491F90107
:10225000E057FF4FC491CC2399F081115ADFEC2F46
:10226000F0E0EE0FFF1FEC55FF4FA591B491EC91FC
:10227000ED2381E090E009F480E0DF91CF910895B3
:1022800080E090E0FACFFC01918D228D892F90E0C3
:10229000805C9F4F821B91098F7399270895FC01E1
:1022A000918D828D981731F0828DE80FF11D858D0B
:1022B00090E008958FEF9FEF0895FC01918D828D3E
:1022C000981761F0A28DAE0FBF2FB11D5D968C9156
:1022D000928D9F5F9F73928F90E008958FEF9FEF95
:1022E0000895FC01538D448D252F30E0842F90E01C
:1022F000821B930B541710F0CF9608950197089501
:10230000FC01A48DA80FB92FB11DA35ABF4F2C916A
:10231000848D90E001968F739927848FA689B78961
:102320002C93A089B1898C91837080648C93938D58
:10233000848D981306C00288F389E02D80818F7DFB
:1023400080830895CF93DF93EC01888D8823B1F0CB
:10235000AA89BB89E889F9898C9185FD03C08081B0
:1023600086FD0CC00FB607FCF7CF8C9185FFF2CF2E
:10237000808185FFEDCFCE01C3DFEACFDF91CF9122
:102380000895EF92FF920F931F93CF93DF93EC0189
:1023900081E0888F9B8D8C8D98131AC0E889F9890C
:1023A000808185FF15C09FB7F894EE89FF8960830F
:1023B000E889F98980818370806480839FBF81E090
:1023C00090E0DF91CF911F910F91FF90EF900895D2
:1023D000F62E0B8D10E00F5F1F4F0F731127E02EAD
:1023E0008C8D8E110BC00FB607FCFACFE889F989E6
:1023F000808185FFF5CFCE0183DFF2CFEB8DEC0F2F
:10240000FD2FF11DE35AFF4FF0829FB7F8940B8F19
:10241000EA89FB8980818062D0CFCF92DF92EF92F0
:10242000FF921F93CF93DF93EC016A017B01122F80
:10243000E889F98982E08083C11481EED806E1043D
:10244000F10499F060E079E08DE390E0A701960156
:10245000F5D22150310941095109569547953795D3
:102460002795211580E1380790F0E889F9891082D5
:1024700060E874E88EE190E0A7019601DFD2215078
:102480003109410951095695479537952795EC85AE
:10249000FD853083EE85FF852083188EEC89FD89CC
:1024A0001083EA89FB89808180618083EA89FB89C6
:1024B000808188608083EA89FB898081806880834D
:1024C000EA89FB8980818F7D8083DF91CF911F9185
:1024D000FF90EF90DF90CF9008951F920F920FB66C
:1024E0000F9211242F938F939F93EF93FF93E0917B
:1024F0009902F0919A028081E0919F02F091A002EE
:1025000082FD1BC090818091A2028F5F8F7320910A
:10251000A302821741F0E091A202F0E0E757FD4FDD
:10252000958F8093A202FF91EF919F918F912F91B0
:102530000F900FBE0F901F9018958081F4CF1F92BF
:102540000F920FB60F9211242F933F934F935F93E7
:102550006F937F938F939F93AF93BF93EF93FF936B
:1025600089E892E0CDDEFF91EF91BF91AF919F910D
:102570008F917F916F915F914F913F912F910F902C
:102580000FBE0F901F901895E9E8F2E013821282B7
:1025900088EE93E0A0E0B0E084839583A683B783C0
:1025A0008EE691E09183808385EC90E09587848727
:1025B00084EC90E09787868780EC90E0918B808B0D
:1025C00081EC90E0938B828B82EC90E0958B848BF6
:1025D00086EC90E0978B868B118E128E138E148E64
:1025E0000895AF92BF92CF92DF92EF92FF920F9336
:1025F0001F93CF93DF936C017B018B01040F151F99
:10260000EB015E01AE18BF08C017D10759F0699100
:10261000D601ED91FC910190F081E02DC601099564
:10262000892B79F7C501DF91CF911F910F91FF9011
:10263000EF90DF90CF90BF90AF900895FB01019095
:102640000020E9F73197AF01461B570BDC01ED91F4
:10265000FC910280F381E02D09946115710509F068
:10266000EDCF90E080E00895DC01ED91FC910190C8
:10267000F081E02D09946CE771E0E0CF8F929F929A
:10268000AF92BF92EF92FF920F931F93CF93DF937E
:10269000CDB7DEB7A1970FB6F894DEBF0FBECDBFA2
:1026A0007C01FA01CB0119A2223008F42AE08E0144
:1026B0000F5D1F4F822E912CB12CA12CBF01A501C3
:1026C0009401BCD1F901CA016A3004F5605DD801FA
:1026D0006E938D01232B242B252B81F790E080E036
:1026E000109719F0BD01C701A9DFA1960FB6F894A4
:1026F000DEBF0FBECDBFDF91CF911F910F91FF9035
:10270000EF90BF90AF909F908F900895695CDFCF5E
:10271000CF92DF92EF92FF920F931F93CF93DF93AD
:102720002115310581F4DC01ED91FC910190F081DE
:10273000E02D642FDF91CF911F910F91FF90EF90CB
:10274000DF90CF9009942A303105F1F42AE077FF29
:102750001BC06A017B01EC016DE286DF8C0144271E
:102760005527BA014C195D096E097F092AE0CE018F
:1027700085DF800F911FDF91CF911F910F91FF9007
:10278000EF90DF90CF900895DF91CF911F910F913F
:10279000FF90EF90DF90CF9071CF9A01AB01770F50
:1027A000660B770BB5CF0F931F93CF93DF93EC019D
:1027B000F4DF8C01CE015FDF800F911FDF91CF919D
:1027C0001F910F9108950F931F93CF93DF93EC0107
:1027D0009FDF8C01CE014FDF800F911FDF91CF91E2
:1027E0001F910F9108952115310541F4DC01ED9100
:1027F000FC910190F081E02D642F09943FCF9A0164
:10280000462F50E070E060E0EECF0F931F93CF9320
:10281000DF93EC01F4DF8C01CE012DDF800F911FDF
:10282000DF91CF911F910F9108959A01AB0170E054
:1028300060E0D9CF0F931F93CF93DF93EC01F5DFC7
:102840008C01CE0118DF800F911FDF91CF911F9176
:102850000F9108950F931F93CF93DF93EC01C3DF84
:102860008C01CE0108DF800F911FDF91CF911F9166
:102870000F9108952F923F924F925F926F927F92A5
:102880008F929F92AF92BF92CF92DF92EF92FF9280
:102890001F93CF93DF93EC016A017B01722EAB0192
:1028A0009601CB01B601F2D06FE771E0811123C030
:1028B00046015701E894B7F82FEF3FEF4FE75FE786
:1028C000C501B401E3D081110BC02FEF3FEF4FE7FB
:1028D0005FE7C501B40177D863E871E018165CF0D2
:1028E0002FEF3FEF4FE75FE4C701B6015CDA181640
:1028F000ACF467E871E0CE01DF91CF911F91FF90BA
:10290000EF90DF90CF90BF90AF909F908F907F908F
:102910006F905F904F903F902F9090CE2FEF3FEFB2
:102920004FE75FECC701B6014ED887FDE2CF20E04C
:1029300030E0A901C701B60146D8312C212C87FF10
:1029400008C06DE2CE0190DE1C01F7FAF094F7F8B2
:10295000F09410E060E070E080E09FE3711639F0E1
:1029600020E030E040E251E432D81F5FF7CFA7010A
:1029700096010E946C0C2B013C0196D84B015C0126
:102980002AE0BC01A401CE0179DE7C01E20CF31C3B
:10299000112381F1C501B401B3D89B01AC01C3017E
:1029A000B2010E946B0C4B015C016EE2CE015CDE59
:1029B000E80EF91E1150F0F020E030E040E251E462
:1029C000C501B401F4D92B013C016ED84B014AE09A
:1029D00050E0CE012ADFE80EF91EB40190E080E05D
:1029E0008FD89B01AC01C301B2010E946B0C4B015B
:1029F0005C01E0CFC701DF91CF911F91FF90EF9075
:102A0000DF90CF90BF90AF909F908F907F906F900E
:102A10005F904F903F902F9008952CCF0F931F936E
:102A2000CF93DF93EC0126DF8C01CE0124DE800FF3
:102A3000911FDF91CF911F910F910895A1E21A2E5E
:102A4000AA1BBB1BFD010DC0AA1FBB1FEE1FFF1F52
:102A5000A217B307E407F50720F0A21BB30BE40BA2
:102A6000F50B661F771F881F991F1A9469F76095E9
:102A70007095809590959B01AC01BD01CF010895A3
:102A8000EE0FFF1F0590F491E02D0994D7D8880B25
:082A9000990B0895F894FFCFA3
:102A9800000000000080BB45000048450000000021
:102AA800000000000000F04200000080832F5C3F1F
:102AB800CDCCCC3F00004041000040C10000AA41FD
:102AC8000000000000007F4300000000000000003C
:102AD80000000000000000000002033A0F3A0F6FE8
:102AE8006465330095010001FFFFFFFFFFFFFFFF53
:102AF800FFFFFFFFFFFF0504030200000000C111F4
:102B0800F1127111A21143115D114F110D0A006EDE
:0C2B1800616E00696E66006F766600005A
:00000001FF
