:1000000061C000000C94F20C0C94190D83C0000028
:1000100081C000007FC000007DC000007BC00000E8
:1000200079C0000077C0000075C0000073C00000F8
:1000300071C000000C9469096DC000006BC0000025
:100040000C94400D67C000000C9404100C94361002
:1000500061C000005FC000005DC000005BC0000028
:1000600059C0000057C00000000000080002010055
:100070000003040700000000000000000102040863
:100080001020408001020408102001020408102002
:10009000040404040404040402020202020203032E
:1000A00003030303000000002300260029000000D2
:1000B0000000250028002B0000000000240027007D
:1000C0002A005B1011241FBECFEFD8E0DEBFCDBFEA
:1000D00011E0A0E0B1E0E6ECF5E202C005900D927F
:1000E000AC38B107D9F723E0ACE8B1E001C01D920C
:1000F000AA35B207E1F710E0C2E6D0E004C02197CC
:10010000FE010E94D712C136D107C9F70E94CB0960
:100110000C94E11275CF611102C00C94490E61304C
:10012000E1F362E0FACF662319F061E00C94850EEA
:1001300060E0FCCFCF92DF92EF92FF92CF938823C3
:1001400051F16A017B01CFEFC80F20E030E0A90137
:10015000CB01B6010E947A0A87FF11C0C701B60120
:1001600090580E94EB0A9B01AC016C2F70E090E06C
:1001700080E0CF91FF90EF90DF90CF90B2C0C701A9
:10018000B6010E94E60A8C2FCF91FF90EF90DF908E
:10019000CF900C94C50DCF91FF90EF90DF90CF9052
:1001A00008950F931F938B019C0183E0369527954B
:1001B000179507958A95D1F704571E4F462F47701C
:1001C00021E030E0F90102C0EE0FFF1F4A95E2F78F
:1001D000AF01F80120812423CB010196211102C037
:1001E00090E080E01F910F9108950F931F938B0172
:1001F0009C0183E036952795179507958A95D1F749
:10020000677081E090E001C0880F6A95EAF7F80115
:10021000E457FE4F2081452B31F480958223808363
:100220001F910F910895822BFACF2F923F924F92F8
:100230005F926F927F928F929F92AF92BF92CF9276
:10024000DF92EF92FF920F931F93CF93DF93D62EFF
:10025000C72E782E692E49015A01280161E08D2DA3
:100260000E94490ECD2DDC2D8E010F5F1F4FA8017E
:100270006D2D7C2D872D962DB8DF20E030E0A90173
:10028000C201B7010E946A0C181664F4C201B701DA
:100290000E94EB0A2B01C501B4010E94EB0AA201E6
:1002A000CE0123D0C801DF91CF911F910F91FF9014
:1002B000EF90DF90CF90BF90AF909F908F907F9006
:1002C0006F905F904F903F902F900895882341F05A
:1002D0008150682F70E090E080E050E040E085CFF2
:1002E0000895862FB9010C94C50D9C01FC01E859B5
:1002F000FF4FE491E33061F140F4E13011F1E2307D
:1003000021F160E0822F0C94850EE730C1F1E830D6
:1003100009F441C0E430A9F7809180008C7F8260AD
:100320008093800090918100907E9061692B609312
:100330008100509387004093860080918000806206
:100340001BC084B5806884BDDCCF84B58062FBCFE0
:10035000809180008C7F82608093800090918100EA
:10036000907E9061692B6093810050938700409349
:10037000860080918000806880938000C2CF809149
:10038000B00080688093B0008091B100887F682BB6
:100390006093B100B6CF8091B0008062F3CF089532
:1003A0004F925F926F927F928F929F92AF92BF9285
:1003B000CF92EF92FF920F931F93CF93DF93CDB71E
:1003C000DEB72B013A01F02E9C2DB40130E028302D
:1003D000310511F424E030E00AE010E0992351F0F7
:1003E00000E110E0913031F008E010E0923011F0BF
:1003F00002E010E08111D0C0F1101BC0269DA001C9
:10040000279D500D369D500D1124B2018DE592E0CF
:10041000DF91CF911F910F91FF90EF90CF90BF9000
:10042000AF909F908F907F906F905F904F900C94C3
:1004300088108DE592E00E94C410E11015C0640C94
:10044000751C6414750409F4A7C0F20161912F01B1
:10045000F1E0A8018DE592E0FF1203C00E94961121
:10046000F0CF0E949C11EDCF81E0E81215C0E1E0D1
:100470006E1A710808F490C0F201619171912F0118
:10048000F1E0A8018DE592E0FF1203C00E94AC11DB
:10049000EECF0E94B111EBCF82E0E81217C0E1E08D
:1004A0006E1A710808F478C0F2014191519161917E
:1004B00071912F01F1E098018DE592E0FF1203C0E8
:1004C0000E948A11ECCF0E94C111E9CF83E0E812AB
:1004D00018C0640C751C4614570409F45DC0F20181
:1004E00061912F01062E000C770BF1E0A8018DE53C
:1004F00092E0FF1203C00E946411EDCF0E946A11C6
:10050000EACF84E0E81215C0E1E06E1A710808F441
:1005100043C0F201619171912F01F1E0A8018DE5D5
:1005200092E0FF1203C00E946411EECF0E946A1194
:10053000EBCF85E0E81216C0E1E06E1A710860F1B9
:10054000F20141915191619171912F01F1E0980176
:100550008DE592E0FF1203C00E941F11EDCF0E94B3
:100560007A11EACF86E0E81217C0B12CE1E06E1AEA
:10057000710890F0F20141915191619171912F01B7
:10058000F1E095018DE592E0FF1203C00E94A412F4
:10059000EDCF0E94A512EACFDF91CF911F910F916D
:1005A000FF90EF90CF90BF90AF909F908F907F90F3
:1005B0006F905F904F900895CF92DF92EF92FF92ED
:1005C0006B017C019F7720E030E040E859E592D74D
:1005D00087FF2AC020E030E040E05FE3C701B601BA
:1005E0000E946A0C87FD0DC020E030E040E05FE330
:1005F000C701B60108D7FF90EF90DF90CF900C9421
:10060000540B20E030E040E05FEBC701B6010E94F0
:100610006A0C181684F420E030E0A901C701B60185
:100620000E946E0C6B017C01C701B601FF90EF9038
:10063000DF90CF90089520E030E040E05FE3C70115
:10064000B601E0D6FF90EF90DF90CF9040C74F9279
:100650005F926F927F928F929F92AF92BF92CF9252
:10066000DF92EF92FF920F931F93CF93DF931F922E
:10067000CDB7DEB7AA24A394B12C5EE3C52E51E01A
:10068000D52EEE24E394F12C0DE311E021E030E0CF
:100690004CE351E062E373E08EE393E02FD5C0902A
:1006A0000001D0900101E0900201F0900301A70148
:1006B0009601609100037091010380910203909173
:1006C000030318D7882341F0C0920003D09201039E
:1006D000E0920203F092030360913E0370913F03A6
:1006E000072E000C880B990BA4D7209104013091A0
:1006F000050140910601509107010E946E0C209166
:1007000008013091090140910A0150910B01F6D680
:10071000CBD76B017C01C0D3811115C2C701B601D3
:1007200078D3811110C220E030E040E853E4C701E3
:10073000B601D4D76B017C0120E030E0A901DAD604
:1007400087FF04C2C701B601905845D761956983F8
:100750006091140370911503809116039091170313
:100760003AD7C62E60910C0370910D0380910E0351
:1007700090910F0330D7E62E609110037091110312
:10078000809112039091130326D7062F60910803DE
:100790007091090380910A0390910B031CD7162FC7
:1007A0006091040370910503809106039091070303
:1007B00012D7862F912C812C32E0A32E212F41E0DD
:1007C00050E0BE016F5F7F4FEBDD609129027091B9
:1007D0002A0280912B0290912C0229D720E030E050
:1007E00040E85FE40E946E0C6B017C016091250281
:1007F00070912602809127029091280218D79B01C0
:10080000AC01C701B601FFD52AE037ED43E25CE356
:100810000E946E0C20911001309111014091120143
:100820005091130167D687FF95C1A0901401B09035
:100830001501C0901601D0901701E0901C01F090B6
:100840001D0100911E0110911F019501A601B70124
:10085000C80150D687FD12C0E0902001F090210120
:1008600000912201109123019501A601B701C80151
:100870000E946A0C181614F075018601209124015B
:10088000309125014091260150912701B701C801FF
:100890000E946E0C6B017C01AC019B0160910C010C
:1008A00070910D0180910E0190910F0123D6682F58
:1008B000661F6627661F8DE036DCE894F7F8C09265
:1008C0003A03D0923B03E0923C03F0923D036BE08D
:1008D00070E080E090E065DC6C01909331038093E0
:1008E0003003E0912F02F091300220E030E040E24E
:1008F00051E46081718182819381FCD587FF33C18E
:1009000080903A0390903B03A0903C03B0903D034D
:10091000E0902801F090290100912A0110912B010B
:100920009401A501B701C801E5D587FD11C0E0908C
:100930002C01F0902D0100912E0110912F019401B6
:10094000A501B701C801C6D7181614F074018501B6
:1009500020E030E04FE753E4B701C801CBD51816CB
:100960000CF406C120E030E0A901B701C801B2D7FC
:1009700087FF04C0E12CF12C00E010E0A701B801D2
:10098000C601D8DBE0912F02F091300220913001B6
:100990003091310140913201509133016081718178
:1009A00082819381A7D587FFE8C06091340170915F
:1009B00035018091360190913701FEDD6B017C019C
:1009C00020E030E040E853E495D587FFE1C020E027
:1009D00030E0A901C701B6017DD787FDD7C0C701A7
:1009E000B601F9D56983698188E09DDBAA24A394C7
:1009F000B12C9EE3C92E91E0D92EEE24E394F12C84
:100A00000DE311E021E030E04CE351E062E373E0FC
:100A10008EE393E09FD3C0901902D0901A02E09029
:100A20001B02F0901C028FEFC81AD80AE80AF80AD5
:100A3000C0921902D0921A02E0921B02F0921C029C
:100A4000C114D104E104F10499F480911D02909144
:100A50001E02A0911F02B09120020196A11DB11D9E
:100A600080931D0290931E02A0931F02B093200258
:100A70008090210290902202A0902302B090240244
:100A800000912F021091300260911D0270911E02A0
:100A900080911F0290912002CAD5A50194011ED712
:100AA00020E030E040E85FE419D72B013C01C701AA
:100AB000B601BDD5A501940111D79B01AC01C301BD
:100AC000B201A1D4F8016083718382839383809102
:100AD000250290912602A0912702B091280201964A
:100AE000A11DB11D8093250290932602A093270299
:100AF000B0932802892B8A2B8B2B99F480912902A1
:100B000090912A02A0912B02B0912C020196A11D76
:100B1000B11D8093290290932A02A0932B02B093D7
:100B20002C020F90DF91CF911F910F91FF90EF90CA
:100B3000DF90CF90BF90AF909F908F907F906F90FD
:100B40005F904F900895C12CD12C7601C701B6015A
:100B500042D5FDCDA0901801B0901901C0901A01A6
:100B6000D0901B016ACE812C912CA12CB12CD0CE1F
:100B7000E12CF12C0FE713E401CF60913801709163
:100B8000390180913A0190913B0117CF19822BCF07
:100B90008FEF898328CF8F929F92AF92BF92DF927F
:100BA000EF92FF920F931F93CF93DF9384E090E037
:100BB000F9D0E5E9F1E084EADF011D928A95E9F7D1
:100BC0008DE292E095838483CFE2D2E0D7AFC6AFC7
:100BD00001E212E0138B028BF093FE01E093FD0122
:100BE000F383E28321E030E0DC012D933C9383E446
:100BF00091E09187808781E392E0998388834AE03E
:100C000057ED63E27CE3F801408351836283738391
:100C1000EAE3F3E086E0DF011D928A95E9F7CAEF87
:100C2000D2E080E4FE0111928A95E9F7DD24D394A5
:100C3000DCAE8091000190910101A0910201B09180
:100C400003018E839F83A887B987812C912C54013F
:100C5000839489829A82AB82BC8280E090E0A0E893
:100C6000BFE38E879F87A88BB98B80E098DBDD82FE
:100C700018A2DEAE89A29AA2ABA2BCA261E08DE06E
:100C80004ADADDA218AADDAE1DAA89AA9AAAABAAE1
:100C9000BCAAE12CF12C8701A80197016BE070E060
:100CA00080E090E0C2DA9FAB8EABDDAA18A6DFAE83
:100CB00089A69AA6ABA6BCA661E088E02CDADDA6E0
:100CC000E8AEF9AE0AAF1BAFDF91CF911F910F9144
:100CD000FF90EF90DF90BF90AF909F908F9008951E
:100CE0008091FA02811103C081E08093FA02809121
:100CF0001A03811103C081E080931A0380912A03B3
:100D000081112AC081E080932A0380912B03909166
:100D10002C03A0912D03B0912E030197A105B105DD
:100D2000D9F480912F038823B9F06BE070E080E064
:100D300090E037DA909331038093300340E050E045
:100D4000BA01F8D96BE070E080E090E02ADA909385
:100D5000310380933003BADA80912203811103C0FA
:100D600081E080932203089560E070E080E89FE7CF
:100D7000089560E070E080E89FE7089560E070E02B
:100D800080E89FEF089560E070E080E89FEF0895AD
:100D900060E070E080EC9FEF089560E070E080EC30
:100DA0009FEF0895F5DF60934C0370934D0380939C
:100DB0004E0390934F03F1DF609340037093410320
:100DC0008093420390934303CFDF60934803709373
:100DD000490380934A0390934B03CBDF6093440312
:100DE000709345038093460390934703C7DF609356
:100DF0005003709351038093520390935303C3DFC6
:100E00006093540370935503809356039093570354
:100E10000895CF92DF92EF92FF92CF936B017C0106
:100E2000AC019B01609148037091490380914A0392
:100E300090914B035FD3C1E0882369F0A70196012D
:100E4000609150037091510380915203909153032C
:100E500051D38111C0E08C2FCF91FF90EF90DF90A4
:100E6000CF9008950F931F938B019C0100271127AA
:100E700020783F770115110520483F4749F4AB0121
:100E8000BC016F77772781E0452B462B472B09F470
:100E900080E01F910F910895E5CF0297843191056D
:100EA00040F4895A9E4FFC018081082E000C990B5A
:100EB00008958FEF9FEF0895CF93DF93EC0170E0DB
:100EC00060E06C177D071CF0DF91CF910895072E2D
:100ED000000C880B990BADD320E030E0A90193D230
:100EE00020E030E0A9018FD220E030E040E450E47F
:100EF0008AD220E030E040E450E484D267D36F5FD0
:100F00007F4FDFCFCF93DF9380913B0290913C02E4
:100F100029D7EC0180913F0290914002CDDF809172
:100F2000390290913A021ED7019771F480913D02E7
:100F300090913E02CD2B71F4019690933E028093E6
:100F40003D02DF91CF91089580913D0290913E0244
:100F5000219791F30197F1CFCF93DF9380913902DD
:100F600090913A02FFD6EC0180913F0290914002AD
:100F7000A3DF80913B0290913C02F4D6019771F47B
:100F800080913D0290913E02219771F401969093D9
:100F90003E0280933D02DF91CF91089580913D0202
:100FA00090913E02CD2B91F30197F1CFCF93DF9338
:100FB0008091430290914402D5D6EC018091470282
:100FC0009091480279DF8091410290914202CAD605
:100FD000019771F48091450290914602CD2B71F4F6
:100FE00001969093460280934502DF91CF91089538
:100FF0008091450290914602219791F30197F1CF9C
:10100000CF93DF938091410290914202ABD6EC01E5
:1010100080914702909148024FDF80914302909166
:101020004402A0D6019771F4809145029091460246
:10103000219771F401969093460280934502DF91C7
:10104000CF9108958091450290914602CD2B91F366
:101050000197F1CFCF93DF9380914B0290914C0297
:1010600081D6EC0180914F029091500225DF809152
:10107000490290914A0276D6019771F480914D020F
:1010800090914E02CD2B71F4019690934E02809375
:101090004D02DF91CF91089580914D0290914E02C3
:1010A000219791F30197F1CFCF93DF93809149027C
:1010B00090914A0257D6EC0180914F0290915002D4
:1010C000FBDE80914B0290914C024CD6019771F45B
:1010D00080914D0290914E02219771F40196909368
:1010E0004E0280934D02DF91CF91089580914D0281
:1010F00090914E02CD2B91F30197F1CF0F931F9357
:10110000CF93DF938C01EA0120E030E040E85FE319
:10111000FB016081718182819381ECD1811115C0C5
:10112000E88188E0E89FF0011124E75CFD4F8481AD
:101130009581F80191838083E88188E0E89FF00140
:101140001124E75CFD4F15821482DF91CF911F912E
:101150000F910895CF92DF92EF92FF920F931F931A
:10116000CF93DF937B01EA0120E030E040E85FE3CA
:10117000DB016D917D918D919C91BCD1882309F407
:1011800054C0E881D8018C9190E0B8E0EB9FF00169
:101190001124E75CFD4F91838083E881D6018C9117
:1011A00090E0B8E0EB9FF0011124E75CFD4F9383E2
:1011B0008283E88128E0E29FF0011124E75CFD4F83
:1011C0008081918160E065D5E88188E0E89FF00149
:1011D0001124E75CFD4F8281938160E05AD5E8815C
:1011E000A8E0EA9FF0011124E75CFD4F8081918126
:1011F00061E08BD5E881B8E0EB9FF0011124E75C5A
:10120000FD4F8281938161E080D58881813059F1E1
:10121000A8F0823009F43BC080E090E0A0E8BFE392
:10122000F70180839183A283B383DF91CF911F91D4
:101230000F91FF90EF90DF90CF9008958091390249
:1012400090913A022ADE41E050E062E877E0AAD3CA
:1012500080913B0290913C0220DE41E050E06CEA3C
:1012600077E0A0D3D9CF809141029091420215DE60
:1012700041E050E066ED77E095D380914302909194
:1012800044020BDE41E050E060E078E0EACF80917C
:10129000490290914A0201DE41E050E06AE278E0C2
:1012A00081D380914B0290914C02F7DD41E050E0F8
:1012B00064E578E0D6CF40E052EC61E070E090E089
:1012C00080E000C0892B21F426E08DE592E03CC649
:1012D00008951F920F920FB60F9211242F933F93F0
:1012E0004F935F936F937F938F939F93AF93BF932E
:1012F000EF93FF938FE89DEF909385008093840098
:1013000032D0FF91EF91BF91AF919F918F917F91DB
:101310006F915F914F913F912F910F900FBE0F9062
:101320001F9018958FE89DEF90938500809384001F
:10133000AFE6B0E08C918E7F8C93E0E8F0E08081A6
:101340008C7F8083E1E8F0E08081877E80838081EC
:101350008460808380818C7F80838C9181608C937A
:10136000089581E008958091510291E0980F909343
:101370005102882349F021E030E03093530220935A
:101380005202809351020895789461D9F894809123
:1013900051028150F6CFCF93DF93109259031092F0
:1013A0005803B8D388DFC0915501D09156011982F6
:1013B0001882F1DBF894B6DF81E028813981232B94
:1013C00009F080E0809358037894789480915803D2
:1013D000811107C085DCF89490E080E0DF91CF9127
:1013E000089581E028813981232B09F480E08093DE
:1013F00059039091590381E0911180E08093580343
:10140000B0DFE4CF5058BB27AA270ED012C203D2B8
:1014100030F008D220F031F49F3F11F41EF4F8C1EF
:101420000EF4E095E7FBC5C1E92F14D280F3BA179B
:10143000620773078407950718F071F49EF543C29D
:101440000EF4E0950B2EBA2FA02D0B01B9019001DF
:101450000C01CA01A0011124FF27591B99F0593F23
:1014600050F4503E68F11A16F040A22F232F342F6B
:101470004427585FF3CF469537952795A795F040B9
:101480005395C9F77EF41F16BA0B620B730B840BCE
:10149000BAF09150A1F0FF0FBB1F661F771F881F86
:1014A000C2F70EC0BA0F621F731F841F48F48795DE
:1014B00077956795B795F7959E3F08F0B3CF9395CD
:1014C000880F08F09927EE0F979587950895E4D136
:1014D00080F09F3740F491110EF4F6C160E070E0A7
:1014E00080E89FE3089526F01B16611D711D811D84
:1014F00066C180C13AD108F481E008950CD099C149
:1015000091D140F088D130F021F45F3F19F051C102
:101510005111DAC17DC19ED198F39923C9F35523A6
:10152000B1F3951B550BBB27AA27621773078407D6
:1015300038F09F5F5F4F220F331F441FAA1FA9F38C
:1015400033D00E2E3AF0E0E830D091505040E6957E
:10155000001CCAF729D0FE2F27D0660F771F881FDF
:10156000BB1F261737074807AB07B0E809F0BB0BCE
:10157000802DBF01FF2793585F4F2AF09E3F5105F2
:1015800068F017C1A1C15F3FECF3983EDCF386958C
:1015900077956795B795F7959F5FC9F7880F911D68
:1015A0009695879597F90895E1E0660F771F881F54
:1015B000BB1F621773078407BA0720F0621B730B07
:1015C000840BBA0BEE1F88F7E095089504D0689459
:1015D000B1117AC1089546D188F09F5790F0B92F84
:1015E0009927B751A0F0D1F0660F771F881F991F78
:1015F0001AF0BA95C9F712C0B13081F064D1B1E0E8
:10160000089561C1672F782F8827B85F39F0B93FF7
:10161000CCF3869577956795B395D9F73EF4909579
:101620008095709561957F4F8F4F9F4F0895E894F7
:1016300009C097FB3EF490958095709561957F4F1A
:101640008F4F9F4F9923A9F0F92F96E9BB279395C8
:10165000F695879577956795B795F111F8CFFAF4D8
:10166000BB0F11F460FF1BC06F5F7F4F8F4F9F4F09
:1016700016C0882311F096E911C0772321F09EE867
:10168000872F762F05C0662371F096E8862F70E0CD
:1016900060E02AF09A95660F771F881FDAF7880FA7
:1016A0009695879597F90895F7D080F09F3740F485
:1016B00091110EF009C160E070E080E89FEB0895A1
:1016C00026F41B16611D711D811D79C093C0A3D026
:1016D00018F011F0A7D038F49BC0F6C0E92FBAD0AB
:1016E000B0F35523C9F3E7FB621773078407950727
:1016F000A8F199F3E92FFF2788232AF03197660F85
:10170000771F881FDAF7952F5527442332F0915021
:101710005040220F331F441FD2F7BB27E91BF50BA4
:10172000621B730B840BB109C1F222F4620F731FA9
:10173000841FB11D31972AF0660F771F881FBB1FCA
:10174000EFCF915050405AF041F0882332F0660FAD
:10175000771F881F91505040C1F793954BC08695D5
:10176000779567959F5FD9F7F8CF990F0008550FC8
:10177000AA0BE0E8FEEF16161706E807F907C0F017
:1017800012161306E407F50798F0621B730B840B1F
:10179000950B39F40A2661F0232B242B252B21F4F9
:1017A00008950A2609F4A140A6958FEF811D811D99
:1017B000089597F99F6780E870E060E008958823B6
:1017C00071F4772321F09850872B762F07C066237A
:1017D00011F499270DC09051862B70E060E02AF03B
:1017E0009A95660F771F881FDAF7880F9695879569
:1017F00097F908959F3F31F0915020F487957795A0
:101800006795B795880F911D9695879597F90895D7
:101810009FEF80EC089500240A9416161706180608
:101820000906089500240A941216130614060506E4
:101830000895092E0394000C11F4882352F0BB0F75
:1018400040F4BF2B11F460FF04C06F5F7F4F8F4FD8
:101850009F4F089557FD9058440F551F59F05F3F13
:1018600071F04795880F97FB991F61F09F3F79F0C2
:1018700087950895121613061406551FF2CF469544
:10188000F1DF08C0161617061806991FF1CF8695C6
:101890007105610508940895E5DFA0F0BEE7B9176A
:1018A00088F4BB279F3860F41616B11D672F782F78
:1018B0008827985FF7CF869577956795B11D9395A3
:1018C0009639C8F30895E894BB2766277727CB019C
:1018D00097F908954ADF08F48FEF08950BD0A9CF48
:1018E0009ADF28F09FDF18F0952309F062CF90CFA0
:1018F0001124EACFAFDFA0F3959FD1F3950F50E00D
:10190000551F629FF001729FBB27F00DB11D639FB1
:10191000AA27F00DB11DAA1F649F6627B00DA11D57
:10192000661F829F2227B00DA11D621F739FB00DFD
:10193000A11D621F839FA00D611D221F749F33276D
:10194000A00D611D231F849F600D211D822F762F06
:101950006A2F11249F5750408AF0E1F088234AF003
:10196000EE0FFF1FBB1F661F771F881F915050404F
:10197000A9F79E3F510570F01CCFA6CF5F3FECF357
:10198000983EDCF3869577956795B795F795E7953B
:101990009F5FC1F7FE2B880F911D9695879597F94C
:1019A000089508958230E8F4E82FF0E0EE0FFF1F6D
:1019B000E15CFE4F71836083813041F0809169006A
:1019C0008C7F482B40936900E89A089580916900C4
:1019D000837F440F551F440F551F482B40936900C8
:1019E000E99A08951F920F920FB60F9211242F9328
:1019F0003F934F935F936F937F938F939F93AF9397
:101A0000BF93EF93FF93E0913F01F091400109955F
:101A1000FF91EF91BF91AF919F918F917F916F91C6
:101A20005F914F913F912F910F900FBE0F901F909C
:101A300018951F920F920FB60F9211242F933F9378
:101A40004F935F936F937F938F939F93AF93BF93C6
:101A5000EF93FF93E0914101F09142010995FF91CD
:101A6000EF91BF91AF919F918F917F916F915F9116
:101A70004F913F912F910F900FBE0F901F9018958F
:101A80001F920F920FB60F9211242F933F938F93B3
:101A90009F93AF93BF938091550290915602A0916E
:101AA0005702B09158023091540223E0230F2D3792
:101AB00058F50196A11DB11D209354028093550243
:101AC00090935602A0935702B09358028091590206
:101AD00090915A02A0915B02B0915C020196A11D07
:101AE000B11D8093590290935A02A0935B02B09368
:101AF0005C02BF91AF919F918F913F912F910F9079
:101B00000FBE0F901F90189526E8230F0296A11D77
:101B1000B11DD2CF789484B5826084BD84B58160D4
:101B200084BD85B5826085BD85B5816085BDEEE6E5
:101B3000F0E0808181608083E1E8F0E010828081C4
:101B400082608083808181608083E0E8F0E0808132
:101B500081608083E1EBF0E0808184608083E0EB52
:101B6000F0E0808181608083EAE7F0E0808184603A
:101B70008083808182608083808181608083808196
:101B8000806880831092C10008951F93CF93DF93E4
:101B9000182FEB0161E07DD0209731F460E0812FB8
:101BA000DF91CF911F91B1C0CF3FD10511F461E01A
:101BB000F6CFE12FF0E0E859FF4FE491E33031F147
:101BC00040F4E130B1F0E230E1F0C038D1057CF70B
:101BD000E5CFE73029F1E83059F1E430B1F78091F1
:101BE0008000806280938000D0938B00C0938A0035
:101BF00004C084B5806884BDC7BDDF91CF911F91BB
:101C0000089584B5806284BDC8BDF7CF80918000FF
:101C1000806880938000D0938900C0938800EDCFC6
:101C20008091B00080688093B000C093B300E5CF8E
:101C30008091B00080628093B000C093B400DDCF8B
:101C4000833081F028F4813099F08230A9F0089532
:101C50008730A9F08830C9F08430B1F480918000D9
:101C60008F7D03C0809180008F77809380000895DE
:101C700084B58F7784BD089584B58F7DFBCF809127
:101C8000B0008F778093B00008958091B0008F7D71
:101C9000F9CFCF93DF9390E0FC01E458FF4F2491FC
:101CA00080579F4FFC0184918823C9F090E0880FF2
:101CB000991FFC01E854FF4FA591B491FC01E25536
:101CC000FF4FC591D49161110DC09FB7F8948C91CD
:101CD000209582238C938881282328839FBFDF91BE
:101CE000CF910895623051F49FB7F8943C91822FC0
:101CF000809583238C93E8812E2BEFCF8FB7F894B8
:101D0000EC912E2B2C938FBFEACF1F93CF93DF93B1
:101D1000282F30E0F901E859FF4F8491F901E45888
:101D2000FF4FD491F901E057FF4FC491CC23A1F0AC
:101D3000162F811185DFEC2FF0E0EE0FFF1FE2552B
:101D4000FF4FA591B4918FB7F894EC91111108C091
:101D5000D095DE23DC938FBFDF91CF911F91089543
:101D6000DE2BF8CFCF93DF93282F30E0F901E8592D
:101D7000FF4F8491F901E458FF4FD491F901E057E6
:101D8000FF4FC491CC2399F081115ADFEC2FF0E082
:101D9000EE0FFF1FEC55FF4FA591B491EC91ED2391
:101DA00081E090E009F480E0DF91CF91089580E038
:101DB00090E0FACFFC01918D228D892F90E0805C1C
:101DC0009F4F821B91098F7399270895FC01918D74
:101DD000828D981731F0828DE80FF11D858D90E08E
:101DE00008958FEF9FEF0895FC01918D828D9817D4
:101DF00061F0A28DAE0FBF2FB11D5D968C91928DBB
:101E00009F5F9F73928F90E008958FEF9FEF0895EB
:101E1000FC01538D448D252F30E0842F90E0821BF0
:101E2000930B541710F0CF96089501970895FC0175
:101E3000A48DA80FB92FB11DA35ABF4F2C91848D2B
:101E400090E001968F739927848FA689B7892C9388
:101E5000A089B1898C91837080648C93938D848DDB
:101E6000981306C00288F389E02D80818F7D8083DE
:101E70000895CF93DF93EC01888D8823B1F0AA8970
:101E8000BB89E889F9898C9185FD03C0808186FD35
:101E90000CC00FB607FCF7CF8C9185FFF2CF808185
:101EA00085FFEDCFCE01C3DFEACFDF91CF9108955B
:101EB000EF92FF920F931F93CF93DF93EC0181E09A
:101EC000888F9B8D8C8D98131AC0E889F989808141
:101ED00085FF15C09FB7F894EE89FF896083E88974
:101EE000F98980818370806480839FBF81E090E066
:101EF000DF91CF911F910F91FF90EF900895F62EF3
:101F00000B8D10E00F5F1F4F0F731127E02E8C8D8C
:101F10008E110BC00FB607FCFACFE889F9898081D2
:101F200085FFF5CFCE0183DFF2CFEB8DEC0FFD2FD8
:101F3000F11DE35AFF4FF0829FB7F8940B8FEA89A7
:101F4000FB8980818062D0CFCF92DF92EF92FF92A7
:101F50001F93CF93DF93EC016A017B01122FE88975
:101F6000F98982E08083C11481EED806E104F1048E
:101F700099F060E079E08DE390E0A7019601F5D259
:101F800021503109410951095695479537952795B3
:101F9000211580E1380790F0E889F989108260E81E
:101FA00074E88EE190E0A7019601DFD2215031095B
:101FB000410951095695479537952795EC85FD853B
:101FC0003083EE85FF852083188EEC89FD89108390
:101FD000EA89FB89808180618083EA89FB8980812D
:101FE00088608083EA89FB89808180688083EA89B0
:101FF000FB8980818F7D8083DF91CF911F91FF903E
:10200000EF90DF90CF9008951F920F920FB60F922E
:1020100011242F938F939F93EF93FF93E0916D0281
:10202000F0916E028081E0917302F091740282FD62
:102030001BC09081809176028F5F8F732091770211
:10204000821741F0E0917602F0E0E35AFD4F958F60
:1020500080937602FF91EF919F918F912F910F9036
:102060000FBE0F901F9018958081F4CF1F920F9292
:102070000FB60F9211242F933F934F935F936F935B
:102080007F938F939F93AF93BF93EF93FF938DE5D0
:1020900092E0CDDEFF91EF91BF91AF919F918F9133
:1020A0007F916F915F914F913F912F910F900FBE54
:1020B0000F901F901895EDE5F2E01382128288EEE2
:1020C00093E0A0E0B0E084839583A683B7838FE696
:1020D00091E09183808385EC90E09587848784EC00
:1020E00090E09787868780EC90E0918B808B81ECE5
:1020F00090E0938B828B82EC90E0958B848B86ECC6
:1021000090E0978B868B118E128E138E148E08950D
:10211000AF92BF92CF92DF92EF92FF920F931F93F5
:10212000CF93DF936C017B018B01040F151FEB0133
:102130005E01AE18BF08C017D10759F06991D601EA
:10214000ED91FC910190F081E02DC6010995892B5C
:1021500079F7C501DF91CF911F910F91FF90EF901B
:10216000DF90CF90BF90AF900895FB0101900020C9
:10217000E9F73197AF01461B570BDC01ED91FC915C
:102180000280F381E02D09946115710509F0EDCF0E
:1021900090E080E00895DC01ED91FC910190F081E8
:1021A000E02D09946DE771E0E0CF8F929F92AF929E
:1021B000BF92EF92FF920F931F93CF93DF93CDB710
:1021C000DEB7A1970FB6F894DEBF0FBECDBF7C017E
:1021D000FA01CB0119A2223008F42AE08E010F5D2A
:1021E0001F4F822E912CB12CA12CBF01A50194016F
:1021F000BCD1F901CA016A3004F5605DD8016E9363
:102200008D01232B242B252B81F790E080E0109764
:1022100019F0BD01C701A9DFA1960FB6F894DEBF82
:102220000FBECDBFDF91CF911F910F91FF90EF9027
:10223000BF90AF909F908F900895695CDFCFCF9251
:10224000DF92EF92FF920F931F93CF93DF932115AD
:10225000310581F4DC01ED91FC910190F081E02DDC
:10226000642FDF91CF911F910F91FF90EF90DF903E
:10227000CF9009942A303105F1F42AE077FF1BC092
:102280006A017B01EC016DE286DF8C014427552752
:10229000BA014C195D096E097F092AE0CE0185DF7C
:1022A000800F911FDF91CF911F910F91FF90EF90C1
:1022B000DF90CF900895DF91CF911F910F91FF9004
:1022C000EF90DF90CF9071CF9A01AB01770F660B43
:1022D000770BB5CF0F931F93CF93DF93EC01F4DF10
:1022E0008C01CE015FDF800F911FDF91CF911F9195
:1022F0000F9108950F931F93CF93DF93EC019FDF0E
:102300008C01CE014FDF800F911FDF91CF911F9184
:102310000F9108952115310541F4DC01ED91FC91F7
:102320000190F081E02D642F09943FCF9A01462F50
:1023300050E070E060E0EECF0F931F93CF93DF93F8
:10234000EC01F4DF8C01CE012DDF800F911FDF91B6
:10235000CF911F910F9108959A01AB0170E060E059
:10236000D9CF0F931F93CF93DF93EC01F5DF8C014F
:10237000CE0118DF800F911FDF91CF911F910F9138
:1023800008950F931F93CF93DF93EC01C3DF8C016C
:10239000CE0108DF800F911FDF91CF911F910F9128
:1023A00008952F923F924F925F926F927F928F92F9
:1023B0009F92AF92BF92CF92DF92EF92FF921F93C4
:1023C000CF93DF93EC016A017B01722EAB01960182
:1023D000CB01B601F2D060E871E0811123C0460163
:1023E0005701E894B7F82FEF3FEF4FE75FE7C501DC
:1023F000B401E3D081110BC02FEF3FEF4FE75FE750
:10240000C501B40177D864E871E018165CF02FEFCD
:102410003FEF4FE75FE4C701B6015CDA1816ACF492
:1024200068E871E0CE01DF91CF911F91FF90EF90AE
:10243000DF90CF90BF90AF909F908F907F906F90E4
:102440005F904F903F902F9090CE2FEF3FEF4FE750
:102450005FECC701B6014ED887FDE2CF20E030E047
:10246000A901C701B60146D8312C212C87FF08C02D
:102470006DE2CE0190DE1C01F7FAF094F7F8F094CB
:1024800010E060E070E080E09FE3711639F020E03A
:1024900030E040E251E432D81F5FF7CFA701960148
:1024A0000E94030A2B013C0196D84B015C012AE0F3
:1024B000BC01A401CE0179DE7C01E20CF31C1123E6
:1024C00081F1C501B401B3D89B01AC01C301B201D4
:1024D0000E94020A4B015C016EE2CE015CDEE80E56
:1024E000F91E1150F0F020E030E040E251E4C50167
:1024F000B401F4D92B013C016ED84B014AE050E005
:10250000CE012ADFE80EF91EB40190E080E08FD8FA
:102510009B01AC01C301B2010E94020A4B015C01A4
:10252000E0CFC701DF91CF911F91FF90EF90DF9037
:10253000CF90BF90AF909F908F907F906F905F9063
:102540004F903F902F9008952CCF0F931F93CF93D0
:10255000DF93EC0126DF8C01CE0124DE800F911F7A
:10256000DF91CF911F910F910895A1E21A2EAA1B1E
:10257000BB1BFD010DC0AA1FBB1FEE1FFF1FA21733
:10258000B307E407F50720F0A21BB30BE40BF50B30
:10259000661F771F881F991F1A9469F760957095B9
:1025A000809590959B01AC01BD01CF010895EE0F80
:1025B000FF1F0590F491E02D0994D7D8880B990B53
:0625C0000895F894FFCF1E
:1025C600000000000080BB450000484500000000F8
:1025D60000000000000000000000404100004041F3
:1025E600000040C10000AA4100007F430000000037
:1025F600000000000000000000000000000203D1FF
:102606000CD10C46697865645374657044697363CC
:10261600726574650095010001FFFFFFFFFFFFFF74
:10262600FFFFFFFFFFFFFF05040302000000005845
:102636000F8810080F390FDA0EF40EE60E0D0A0099
:0C2646006E616E00696E66006F766600C3
:00000001FF
